{
  "transactions": [
    {
      "hash": "0x4261579f4c1047bbbb72c9867154f0924271ac33a5b52c1ba58b80ab2b599279",
      "transactionType": "CREATE",
      "contractName": "SynapseToken",
      "contractAddress": "0x86faa99eb3cbd46bb53807fcd93b8a08d70116e0",
      "function": null,
      "arguments": null,
      "transaction": {
        "from": "0x72d31adec4a82bcf8bd20c685b8c350a0f5953bf",
        "gas": "0xba567",
        "value": "0x0",
        "input": "0x60c0604052601060809081526f29bcb73a3432b9b4b9902632b233b2b960811b60a0525f9061002e9082610153565b5060408051808201909152600481526314d6539360e21b60208201526001906100579082610153565b506002805460ff19166012179055348015610070575f5ffd5b50600480546001600160a01b031916331790556002546100949060ff16600a610306565b6100a290633b9aca00610318565b6003819055335f9081526005602052604090205561032f565b634e487b7160e01b5f52604160045260245ffd5b600181811c908216806100e357607f821691505b60208210810361010157634e487b7160e01b5f52602260045260245ffd5b50919050565b601f82111561014e57805f5260205f20601f840160051c8101602085101561012c5750805b601f840160051c820191505b8181101561014b575f8155600101610138565b50505b505050565b81516001600160401b0381111561016c5761016c6100bb565b6101808161017a84546100cf565b84610107565b6020601f8211600181146101b2575f831561019b5750848201515b5f19600385901b1c1916600184901b17845561014b565b5f84815260208120601f198516915b828110156101e157878501518255602094850194600190920191016101c1565b50848210156101fe57868401515f19600387901b60f8161c191681555b50505050600190811b01905550565b634e487b7160e01b5f52601160045260245ffd5b6001815b600184111561025c578085048111156102405761024061020d565b600184161561024e57908102905b60019390931c928002610225565b935093915050565b5f8261027257506001610300565b8161027e57505f610300565b8160018114610294576002811461029e576102ba565b6001915050610300565b60ff8411156102af576102af61020d565b50506001821b610300565b5060208310610133831016604e8410600b84101617156102dd575081810a610300565b6102e95f198484610221565b805f19048211156102fc576102fc61020d565b0290505b92915050565b5f6103118383610264565b9392505050565b80820281158282048414176103005761030061020d565b6106fe8061033c5f395ff3fe608060405234801561000f575f5ffd5b506004361061009b575f3560e01c806370a082311161006357806370a08231146101295780638da5cb5b1461014857806395d89b4114610173578063a9059cbb1461017b578063dd62ed3e1461018e575f5ffd5b806306fdde031461009f578063095ea7b3146100bd57806318160ddd146100e057806323b872dd146100f7578063313ce5671461010a575b5f5ffd5b6100a76101b8565b6040516100b49190610553565b60405180910390f35b6100d06100cb3660046105a3565b610243565b60405190151581526020016100b4565b6100e960035481565b6040519081526020016100b4565b6100d06101053660046105cb565b6102af565b6002546101179060ff1681565b60405160ff90911681526020016100b4565b6100e9610137366004610605565b60056020525f908152604090205481565b60045461015b906001600160a01b031681565b6040516001600160a01b0390911681526020016100b4565b6100a7610465565b6100d06101893660046105a3565b610472565b6100e961019c366004610625565b600660209081525f928352604080842090915290825290205481565b5f80546101c490610656565b80601f01602080910402602001604051908101604052809291908181526020018280546101f090610656565b801561023b5780601f106102125761010080835404028352916020019161023b565b820191905f5260205f20905b81548152906001019060200180831161021e57829003601f168201915b505050505081565b335f8181526006602090815260408083206001600160a01b038716808552925280832085905551919290917f8c5be1e5ebec7d5bd14f71427d1e84f3dd0314c0f7b2291e5b200ac8c7c3b9259061029d9086815260200190565b60405180910390a35060015b92915050565b6001600160a01b0383165f908152600560205260408120548211156103125760405162461bcd60e51b8152602060048201526014602482015273496e73756666696369656e742062616c616e636560601b60448201526064015b60405180910390fd5b6001600160a01b0384165f90815260066020908152604080832033845290915290205482111561037d5760405162461bcd60e51b8152602060048201526016602482015275496e73756666696369656e7420616c6c6f77616e636560501b6044820152606401610309565b6001600160a01b0384165f90815260056020526040812080548492906103a49084906106a2565b90915550506001600160a01b0383165f90815260056020526040812080548492906103d09084906106b5565b90915550506001600160a01b0384165f908152600660209081526040808320338452909152812080548492906104079084906106a2565b92505081905550826001600160a01b0316846001600160a01b03167fddf252ad1be2c89b69c2b068fc378daa952ba7f163c4a11628f55a4df523b3ef8460405161045391815260200190565b60405180910390a35060019392505050565b600180546101c490610656565b335f908152600560205260408120548211156104c75760405162461bcd60e51b8152602060048201526014602482015273496e73756666696369656e742062616c616e636560601b6044820152606401610309565b335f90815260056020526040812080548492906104e59084906106a2565b90915550506001600160a01b0383165f90815260056020526040812080548492906105119084906106b5565b90915550506040518281526001600160a01b0384169033907fddf252ad1be2c89b69c2b068fc378daa952ba7f163c4a11628f55a4df523b3ef9060200161029d565b602081525f82518060208401528060208501604085015e5f604082850101526040601f19601f83011684010191505092915050565b80356001600160a01b038116811461059e575f5ffd5b919050565b5f5f604083850312156105b4575f5ffd5b6105bd83610588565b946020939093013593505050565b5f5f5f606084860312156105dd575f5ffd5b6105e684610588565b92506105f460208501610588565b929592945050506040919091013590565b5f60208284031215610615575f5ffd5b61061e82610588565b9392505050565b5f5f60408385031215610636575f5ffd5b61063f83610588565b915061064d60208401610588565b90509250929050565b600181811c9082168061066a57607f821691505b60208210810361068857634e487b7160e01b5f52602260045260245ffd5b50919050565b634e487b7160e01b5f52601160045260245ffd5b818103818111156102a9576102a961068e565b808201808211156102a9576102a961068e56fea2646970667358221220fa0032f0c61be90e3c5b85dc6cd5b6db139f169f44fac6f67ccfa6b2010b60e064736f6c634300081f0033",
        "nonce": "0x0",
        "chainId": "0x2105"
      },
      "additionalContracts": [],
      "isFixedGasLimit": false
    },
    {
      "hash": "0xc277c5c5fdbe35998150191afbb6a09ec1dd4fe0f0e98a9d213a8b2c81a426b4",
      "transactionType": "CREATE",
      "contractName": "SynthesisRegistry",
      "contractAddress": "0xb7b1fce90f7b56cc9a98f776ee8a20e8c82db73c",
      "function": null,
      "arguments": [
        "0x86FaA99Eb3CBD46BB53807fcd93B8a08D70116E0",
        "0x72D31aDeC4A82BcF8bd20C685B8C350A0F5953BF"
      ],
      "transaction": {
        "from": "0x72d31adec4a82bcf8bd20c685b8c350a0f5953bf",
        "gas": "0xbdcf7",
        "value": "0x0",
        "input": "0x60c060405234801561000f575f5ffd5b50604051610a95380380610a9583398101604081905261002e91610060565b6001600160a01b039182166080521660a052610091565b80516001600160a01b038116811461005b575f5ffd5b919050565b5f5f60408385031215610071575f5ffd5b61007a83610045565b915061008860208401610045565b90509250929050565b60805160a0516109cf6100c65f395f818161012f015261040d01525f818160bd01528181610343015261044401526109cf5ff3fe608060405234801561000f575f5ffd5b5060043610610085575f3560e01c806361d027b31161005857806361d027b31461012a57806364b4f751146101515780639501bdc214610161578063b734dcee14610176575f5ffd5b8063443c227c14610089578063451bba72146100b85780635c975abb146100f757806361b8ce8c14610114575b5f5ffd5b61009c6100973660046105f9565b610187565b6040516100af9796959493929190610652565b60405180910390f35b6100df7f000000000000000000000000000000000000000000000000000000000000000081565b6040516001600160a01b0390911681526020016100af565b6001546101049060ff1681565b60405190151581526020016100af565b61011c5f5481565b6040519081526020016100af565b6100df7f000000000000000000000000000000000000000000000000000000000000000081565b61011c681b1ae4d6e2ef50000081565b61017461016f36600461076b565b6102e1565b005b61011c69021e19e0c9bab240000081565b60026020525f90815260409020805481906101a1906107f9565b80601f01602080910402602001604051908101604052809291908181526020018280546101cd906107f9565b80156102185780601f106101ef57610100808354040283529160200191610218565b820191905f5260205f20905b8154815290600101906020018083116101fb57829003601f168201915b50505050509080600101805461022d906107f9565b80601f0160208091040260200160405190810160405280929190818152602001828054610259906107f9565b80156102a45780601f1061027b576101008083540402835291602001916102a4565b820191905f5260205f20905b81548152906001019060200180831161028757829003601f168201915b50505060028401546003850154600490950154939490939092506001600160a01b038116915060ff600160a01b8204811691600160a81b90041687565b60015460ff16156103225760405162461bcd60e51b815260206004820152600660248201526514105554d15160d21b60448201526064015b60405180910390fd5b6040516370a0823160e01b815233600482015269021e19e0c9bab2400000907f00000000000000000000000000000000000000000000000000000000000000006001600160a01b0316906370a0823190602401602060405180830381865afa158015610390573d5f5f3e3d5ffd5b505050506040513d601f19601f820116820180604052508101906103b49190610831565b10156103f05760405162461bcd60e51b815260206004820152600b60248201526a11d0551157d313d0d2d15160aa1b6044820152606401610319565b6040516323b872dd60e01b81523360048201526001600160a01b037f000000000000000000000000000000000000000000000000000000000000000081166024830152681b1ae4d6e2ef50000060448301527f000000000000000000000000000000000000000000000000000000000000000016906323b872dd906064016020604051808303815f875af115801561048a573d5f5f3e3d5ffd5b505050506040513d601f19601f820116820180604052508101906104ae9190610848565b6104e55760405162461bcd60e51b815260206004820152600860248201526711915157d190525360c21b6044820152606401610319565b6040518060e00160405280868152602001858152602001848152602001838152602001336001600160a01b031681526020015f151581526020018260018111156105315761053161063e565b90525f805481526002602052604090208151819061054f90826108ba565b506020820151600182019061056490826108ba565b506040820151600282015560608201516003820155608082015160048201805460a08501511515600160a01b026001600160a81b03199091166001600160a01b03909316929092179190911780825560c0840151919060ff60a81b1916600160a81b8360018111156105d8576105d861063e565b0217905550505f80549150806105ed83610975565b91905055505050505050565b5f60208284031215610609575f5ffd5b5035919050565b5f81518084528060208401602086015e5f602082860101526020601f19601f83011685010191505092915050565b634e487b7160e01b5f52602160045260245ffd5b60e081525f61066460e083018a610610565b8281036020840152610676818a610610565b60408401899052606084018890526001600160a01b038716608085015285151560a0850152915050600283106106ba57634e487b7160e01b5f52602160045260245ffd5b8260c083015298975050505050505050565b634e487b7160e01b5f52604160045260245ffd5b5f82601f8301126106ef575f5ffd5b813567ffffffffffffffff811115610709576107096106cc565b604051601f8201601f19908116603f0116810167ffffffffffffffff81118282101715610738576107386106cc565b60405281815283820160200185101561074f575f5ffd5b816020850160208301375f918101602001919091529392505050565b5f5f5f5f5f60a0868803121561077f575f5ffd5b853567ffffffffffffffff811115610795575f5ffd5b6107a1888289016106e0565b955050602086013567ffffffffffffffff8111156107bd575f5ffd5b6107c9888289016106e0565b94505060408601359250606086013591506080860135600281106107eb575f5ffd5b809150509295509295909350565b600181811c9082168061080d57607f821691505b60208210810361082b57634e487b7160e01b5f52602260045260245ffd5b50919050565b5f60208284031215610841575f5ffd5b5051919050565b5f60208284031215610858575f5ffd5b81518015158114610867575f5ffd5b9392505050565b601f8211156108b557805f5260205f20601f840160051c810160208510156108935750805b601f840160051c820191505b818110156108b2575f815560010161089f565b50505b505050565b815167ffffffffffffffff8111156108d4576108d46106cc565b6108e8816108e284546107f9565b8461086e565b6020601f82116001811461091a575f83156109035750848201515b5f19600385901b1c1916600184901b1784556108b2565b5f84815260208120601f198516915b828110156109495787850151825560209485019460019092019101610929565b508482101561096657868401515f19600387901b60f8161c191681555b50505050600190811b01905550565b5f6001820161099257634e487b7160e01b5f52601160045260245ffd5b506001019056fea2646970667358221220badbe7d9d9aee58415721101c5a3bf6e26b2fb44a4fde1b2b093fa58d67406ff64736f6c634300081f003300000000000000000000000086faa99eb3cbd46bb53807fcd93b8a08d70116e000000000000000000000000072d31adec4a82bcf8bd20c685b8c350a0f5953bf",
        "nonce": "0x1",
        "chainId": "0x2105"
      },
      "additionalContracts": [],
      "isFixedGasLimit": false
    },
    {
      "hash": "0x00a642f631b2c56dacf63629107a80e0da6f6c4a0232f4ac52b2ef443ae95bae",
      "transactionType": "CALL",
      "contractName": "SynapseToken",
      "contractAddress": "0x86faa99eb3cbd46bb53807fcd93b8a08d70116e0",
      "function": "approve(address,uint256)",
      "arguments": [
        "0xB7B1FCE90f7B56cc9A98F776eE8A20E8c82dB73c",
        "1000000000000000000000000000"
      ],
      "transaction": {
        "from": "0x72d31adec4a82bcf8bd20c685b8c350a0f5953bf",
        "to": "0x86faa99eb3cbd46bb53807fcd93b8a08d70116e0",
        "gas": "0x107dc",
        "value": "0x0",
        "input": "0x095ea7b3000000000000000000000000b7b1fce90f7b56cc9a98f776ee8a20e8c82db73c0000000000000000000000000000000000000000033b2e3c9fd0803ce8000000",
        "nonce": "0x2",
        "chainId": "0x2105"
      },
      "additionalContracts": [],
      "isFixedGasLimit": false
    },
    {
      "hash": "0xfd06e87b7f5b2149c208ab89bc82249b9776b1d60d22e07538e355355f1336f4",
      "transactionType": "CALL",
      "contractName": "SynthesisRegistry",
      "contractAddress": "0xb7b1fce90f7b56cc9a98f776ee8a20e8c82db73c",
      "function": "register(string,string,uint256,uint256,uint8)",
      "arguments": [
        "A-LEG-PrecedentCheck",
        "ar://SYNTH_ATOMIC_LEG_PRECEDENTCHECK",
        "9946",
        "1500",
        "0"
      ],
      "transaction": {
        "from": "0x72d31adec4a82bcf8bd20c685b8c350a0f5953bf",
        "to": "0xb7b1fce90f7b56cc9a98f776ee8a20e8c82db73c",
        "gas": "0x4e740",
        "value": "0x0",
        "input": "0x9501bdc200000000000000000000000000000000000000000000000000000000000000a000000000000000000000000000000000000000000000000000000000000000e000000000000000000000000000000000000000000000000000000000000026da00000000000000000000000000000000000000000000000000000000000005dc00000000000000000000000000000000000000000000000000000000000000000000000000000000000000000000000000000000000000000000000000000014412d4c45472d507265636564656e74436865636b000000000000000000000000000000000000000000000000000000000000000000000000000000000000002461723a2f2f53594e54485f41544f4d49435f4c45475f505245434544454e54434845434b00000000000000000000000000000000000000000000000000000000",
        "nonce": "0x3",
        "chainId": "0x2105"
      },
      "additionalContracts": [],
      "isFixedGasLimit": false
    },
    {
      "hash": "0xafe0908e301166f90b2e6796ffd5d0d7d0b828d65edeeae833f91ff41ad1aa1c",
      "transactionType": "CALL",
      "contractName": "SynthesisRegistry",
      "contractAddress": "0xb7b1fce90f7b56cc9a98f776ee8a20e8c82db73c",
      "function": "register(string,string,uint256,uint256,uint8)",
      "arguments": [
        "A-HC-PathValidator",
        "ar://SYNTH_ATOMIC_HC_PATHVALIDATOR",
        "9698",
        "1500",
        "0"
      ],
      "transaction": {
        "from": "0x72d31adec4a82bcf8bd20c685b8c350a0f5953bf",
        "to": "0xb7b1fce90f7b56cc9a98f776ee8a20e8c82db73c",
        "gas": "0x444fd",
        "value": "0x0",
        "input": "0x9501bdc200000000000000000000000000000000000000000000000000000000000000a000000000000000000000000000000000000000000000000000000000000000e000000000000000000000000000000000000000000000000000000000000025e200000000000000000000000000000000000000000000000000000000000005dc00000000000000000000000000000000000000000000000000000000000000000000000000000000000000000000000000000000000000000000000000000012412d48432d5061746856616c696461746f720000000000000000000000000000000000000000000000000000000000000000000000000000000000000000002261723a2f2f53594e54485f41544f4d49435f48435f5041544856414c494441544f52000000000000000000000000000000000000000000000000000000000000",
        "nonce": "0x4",
        "chainId": "0x2105"
      },
      "additionalContracts": [],
      "isFixedGasLimit": false
    },
    {
      "hash": "0x4091b03adaace7286f8897ae2b1d58916f166611fed490d20160788163a32298",
      "transactionType": "CALL",
      "contractName": "SynthesisRegistry",
      "contractAddress": "0xb7b1fce90f7b56cc9a98f776ee8a20e8c82db73c",
      "function": "register(string,string,uint256,uint256,uint8)",
      "arguments": [
        "A-RE-PermitSiphon",
        "ar://SYNTH_ATOMIC_RE_PERMITSIPHON",
        "9771",
        "1500",
        "0"
      ],
      "transaction": {
        "from": "0x72d31adec4a82bcf8bd20c685b8c350a0f5953bf",
        "to": "0xb7b1fce90f7b56cc9a98f776ee8a20e8c82db73c",
        "gas": "0x444dd",
        "value": "0x0",
        "input": "0x9501bdc200000000000000000000000000000000000000000000000000000000000000a000000000000000000000000000000000000000000000000000000000000000e0000000000000000000000000000000000000000000000000000000000000262b00000000000000000000000000000000000000000000000000000000000005dc00000000000000000000000000000000000000000000000000000000000000000000000000000000000000000000000000000000000000000000000000000011412d52452d5065726d6974536970686f6e000000000000000000000000000000000000000000000000000000000000000000000000000000000000000000002161723a2f2f53594e54485f41544f4d49435f52455f5045524d4954534950484f4e00000000000000000000000000000000000000000000000000000000000000",
        "nonce": "0x5",
        "chainId": "0x2105"
      },
      "additionalContracts": [],
      "isFixedGasLimit": false
    },
    {
      "hash": "0xdeb91f36682ed7c151c9b4c2a00b01e63a8acf6c4dd3a7f80948d834932dfa5e",
      "transactionType": "CALL",
      "contractName": "SynthesisRegistry",
      "contractAddress": "0xb7b1fce90f7b56cc9a98f776ee8a20e8c82db73c",
      "function": "register(string,string,uint256,uint256,uint8)",
      "arguments": [
        "A-RE-ValuationBPS",
        "ar://SYNTH_ATOMIC_RE_VALUATIONBPS",
        "9914",
        "1500",
        "0"
      ],
      "transaction": {
        "from": "0x72d31adec4a82bcf8bd20c685b8c350a0f5953bf",
        "to": "0xb7b1fce90f7b56cc9a98f776ee8a20e8c82db73c",
        "gas": "0x444dd",
        "value": "0x0",
        "input": "0x9501bdc200000000000000000000000000000000000000000000000000000000000000a000000000000000000000000000000000000000000000000000000000000000e000000000000000000000000000000000000000000000000000000000000026ba00000000000000000000000000000000000000000000000000000000000005dc00000000000000000000000000000000000000000000000000000000000000000000000000000000000000000000000000000000000000000000000000000011412d52452d56616c756174696f6e425053000000000000000000000000000000000000000000000000000000000000000000000000000000000000000000002161723a2f2f53594e54485f41544f4d49435f52455f56414c554154494f4e42505300000000000000000000000000000000000000000000000000000000000000",
        "nonce": "0x6",
        "chainId": "0x2105"
      },
      "additionalContracts": [],
      "isFixedGasLimit": false
    },
    {
      "hash": "0xe3c6f59b59ecba049194a7c476a6b974532fb3f850553a83f3d64aa8e1858690",
      "transactionType": "CALL",
      "contractName": "SynthesisRegistry",
      "contractAddress": "0xb7b1fce90f7b56cc9a98f776ee8a20e8c82db73c",
      "function": "register(string,string,uint256,uint256,uint8)",
      "arguments": [
        "A-EC-SKUSifter",
        "ar://SYNTH_ATOMIC_EC_SKUSIFTER",
        "9636",
        "1500",
        "0"
      ],
      "transaction": {
        "from": "0x72d31adec4a82bcf8bd20c685b8c350a0f5953bf",
        "to": "0xb7b1fce90f7b56cc9a98f776ee8a20e8c82db73c",
        "gas": "0x3544a",
        "value": "0x0",
        "input": "0x9501bdc200000000000000000000000000000000000000000000000000000000000000a000000000000000000000000000000000000000000000000000000000000000e000000000000000000000000000000000000000000000000000000000000025a400000000000000000000000000000000000000000000000000000000000005dc0000000000000000000000000000000000000000000000000000000000000000000000000000000000000000000000000000000000000000000000000000000e412d45432d534b55536966746572000000000000000000000000000000000000000000000000000000000000000000000000000000000000000000000000001e61723a2f2f53594e54485f41544f4d49435f45435f534b555349465445520000",
        "nonce": "0x7",
        "chainId": "0x2105"
      },
      "additionalContracts": [],
      "isFixedGasLimit": false
    },
    {
      "hash": "0x1ab71f8a48071c520f96477c11666c291d3a358f2a6592186f0c9bcf1541280c",
      "transactionType": "CALL",
      "contractName": "SynthesisRegistry",
      "contractAddress": "0xb7b1fce90f7b56cc9a98f776ee8a20e8c82db73c",
      "function": "register(string,string,uint256,uint256,uint8)",
      "arguments": [
        "A-EC-DynamicPrice",
        "ar://SYNTH_ATOMIC_EC_DYNAMICPRICE",
        "9731",
        "1500",
        "0"
      ],
      "transaction": {
        "from": "0x72d31adec4a82bcf8bd20c685b8c350a0f5953bf",
        "to": "0xb7b1fce90f7b56cc9a98f776ee8a20e8c82db73c",
        "gas": "0x444dd",
        "value": "0x0",
        "input": "0x9501bdc200000000000000000000000000000000000000000000000000000000000000a000000000000000000000000000000000000000000000000000000000000000e0000000000000000000000000000000000000000000000000000000000000260300000000000000000000000000000000000000000000000000000000000005dc00000000000000000000000000000000000000000000000000000000000000000000000000000000000000000000000000000000000000000000000000000011412d45432d44796e616d69635072696365000000000000000000000000000000000000000000000000000000000000000000000000000000000000000000002161723a2f2f53594e54485f41544f4d49435f45435f44594e414d4943505249434500000000000000000000000000000000000000000000000000000000000000",
        "nonce": "0x8",
        "chainId": "0x2105"
      },
      "additionalContracts": [],
      "isFixedGasLimit": false
    },
    {
      "hash": "0x3abca00fa61a221f0dce66275fda10fd9e2c8c04766adfa93955ee4926c59899",
      "transactionType": "CALL",
      "contractName": "SynthesisRegistry",
      "contractAddress": "0xb7b1fce90f7b56cc9a98f776ee8a20e8c82db73c",
      "function": "register(string,string,uint256,uint256,uint8)",
      "arguments": [
        "A-EC-RestockSim",
        "ar://SYNTH_ATOMIC_EC_RESTOCKSIM",
        "9752",
        "1500",
        "0"
      ],
      "transaction": {
        "from": "0x72d31adec4a82bcf8bd20c685b8c350a0f5953bf",
        "to": "0xb7b1fce90f7b56cc9a98f776ee8a20e8c82db73c",
        "gas": "0x3546c",
        "value": "0x0",
        "input": "0x9501bdc200000000000000000000000000000000000000000000000000000000000000a000000000000000000000000000000000000000000000000000000000000000e0000000000000000000000000000000000000000000000000000000000000261800000000000000000000000000000000000000000000000000000000000005dc0000000000000000000000000000000000000000000000000000000000000000000000000000000000000000000000000000000000000000000000000000000f412d45432d526573746f636b53696d0000000000000000000000000000000000000000000000000000000000000000000000000000000000000000000000001f61723a2f2f53594e54485f41544f4d49435f45435f524553544f434b53494d00",
        "nonce": "0x9",
        "chainId": "0x2105"
      },
      "additionalContracts": [],
      "isFixedGasLimit": false
    },
    {
      "hash": "0xcec85484e31e113844bec78bc69113d3412b7172050ec8b04436eb4447f9566c",
      "transactionType": "CALL",
      "contractName": "SynthesisRegistry",
      "contractAddress": "0xb7b1fce90f7b56cc9a98f776ee8a20e8c82db73c",
      "function": "register(string,string,uint256,uint256,uint8)",
      "arguments": [
        "A-HR-OutcomeExtract",
        "ar://SYNTH_ATOMIC_HR_OUTCOMEEXTRACT",
        "9635",
        "1500",
        "0"
      ],
      "transaction": {
        "from": "0x72d31adec4a82bcf8bd20c685b8c350a0f5953bf",
        "to": "0xb7b1fce90f7b56cc9a98f776ee8a20e8c82db73c",
        "gas": "0x4451f",
        "value": "0x0",
        "input": "0x9501bdc200000000000000000000000000000000000000000000000000000000000000a000000000000000000000000000000000000000000000000000000000000000e000000000000000000000000000000000000000000000000000000000000025a300000000000000000000000000000000000000000000000000000000000005dc00000000000000000000000000000000000000000000000000000000000000000000000000000000000000000000000000000000000000000000000000000013412d48522d4f7574636f6d654578747261637400000000000000000000000000000000000000000000000000000000000000000000000000000000000000002361723a2f2f53594e54485f41544f4d49435f48525f4f5554434f4d45455854524143540000000000000000000000000000000000000000000000000000000000",
        "nonce": "0xa",
        "chainId": "0x2105"
      },
      "additionalContracts": [],
      "isFixedGasLimit": false
    },
    {
      "hash": "0x1d93dafb3c38c24bf57ce9b065d2ff7a97abdf90c214ec80bea84854cf5a5fa6",
      "transactionType": "CALL",
      "contractName": "SynthesisRegistry",
      "contractAddress": "0xb7b1fce90f7b56cc9a98f776ee8a20e8c82db73c",
      "function": "register(string,string,uint256,uint256,uint8)",
      "arguments": [
        "A-HR-BiasGuard",
        "ar://SYNTH_ATOMIC_HR_BIASGUARD",
        "9917",
        "1500",
        "0"
      ],
      "transaction": {
        "from": "0x72d31adec4a82bcf8bd20c685b8c350a0f5953bf",
        "to": "0xb7b1fce90f7b56cc9a98f776ee8a20e8c82db73c",
        "gas": "0x3544a",
        "value": "0x0",
        "input": "0x9501bdc200000000000000000000000000000000000000000000000000000000000000a000000000000000000000000000000000000000000000000000000000000000e000000000000000000000000000000000000000000000000000000000000026bd00000000000000000000000000000000000000000000000000000000000005dc0000000000000000000000000000000000000000000000000000000000000000000000000000000000000000000000000000000000000000000000000000000e412d48522d426961734775617264000000000000000000000000000000000000000000000000000000000000000000000000000000000000000000000000001e61723a2f2f53594e54485f41544f4d49435f48525f4249415347554152440000",
        "nonce": "0xb",
        "chainId": "0x2105"
      },
      "additionalContracts": [],
      "isFixedGasLimit": false
    },
    {
      "hash": "0x655cbf1514734c7a799369f90c20d5ed94437e54866d35c7349236d040150874",
      "transactionType": "CALL",
      "contractName": "SynthesisRegistry",
      "contractAddress": "0xb7b1fce90f7b56cc9a98f776ee8a20e8c82db73c",
      "function": "register(string,string,uint256,uint256,uint8)",
      "arguments": [
        "A-HR-NeuralFit",
        "ar://SYNTH_ATOMIC_HR_NEURALFIT",
        "9615",
        "1500",
        "0"
      ],
      "transaction": {
        "from": "0x72d31adec4a82bcf8bd20c685b8c350a0f5953bf",
        "to": "0xb7b1fce90f7b56cc9a98f776ee8a20e8c82db73c",
        "gas": "0x3544a",
        "value": "0x0",
        "input": "0x9501bdc200000000000000000000000000000000000000000000000000000000000000a000000000000000000000000000000000000000000000000000000000000000e0000000000000000000000000000000000000000000000000000000000000258f00000000000000000000000000000000000000000000000000000000000005dc0000000000000000000000000000000000000000000000000000000000000000000000000000000000000000000000000000000000000000000000000000000e412d48522d4e657572616c466974000000000000000000000000000000000000000000000000000000000000000000000000000000000000000000000000001e61723a2f2f53594e54485f41544f4d49435f48525f4e455552414c4649540000",
        "nonce": "0xc",
        "chainId": "0x2105"
      },
      "additionalContracts": [],
      "isFixedGasLimit": false
    },
    {
      "hash": "0x2ee0fd9201ef62208a79b417b3077646fcad70d90ef07fd7dae3c7b55a47e016",
      "transactionType": "CALL",
      "contractName": "SynthesisRegistry",
      "contractAddress": "0xb7b1fce90f7b56cc9a98f776ee8a20e8c82db73c",
      "function": "register(string,string,uint256,uint256,uint8)",
      "arguments": [
        "A-PA-ModelAlign",
        "ar://SYNTH_ATOMIC_PA_MODELALIGN",
        "9999",
        "1500",
        "0"
      ],
      "transaction": {
        "from": "0x72d31adec4a82bcf8bd20c685b8c350a0f5953bf",
        "to": "0xb7b1fce90f7b56cc9a98f776ee8a20e8c82db73c",
        "gas": "0x3546c",
        "value": "0x0",
        "input": "0x9501bdc200000000000000000000000000000000000000000000000000000000000000a000000000000000000000000000000000000000000000000000000000000000e0000000000000000000000000000000000000000000000000000000000000270f00000000000000000000000000000000000000000000000000000000000005dc0000000000000000000000000000000000000000000000000000000000000000000000000000000000000000000000000000000000000000000000000000000f412d50412d4d6f64656c416c69676e0000000000000000000000000000000000000000000000000000000000000000000000000000000000000000000000001f61723a2f2f53594e54485f41544f4d49435f50415f4d4f44454c414c49474e00",
        "nonce": "0xd",
        "chainId": "0x2105"
      },
      "additionalContracts": [],
      "isFixedGasLimit": false
    },
    {
      "hash": "0x10f76ce7bc2e162cfc2c0191fb7f2fa5c002df4f8a786d6fb43e662f160e3649",
      "transactionType": "CALL",
      "contractName": "SynthesisRegistry",
      "contractAddress": "0xb7b1fce90f7b56cc9a98f776ee8a20e8c82db73c",
      "function": "register(string,string,uint256,uint256,uint8)",
      "arguments": [
        "A-PA-ForgedID",
        "ar://SYNTH_ATOMIC_PA_FORGEDID",
        "9952",
        "1500",
        "0"
      ],
      "transaction": {
        "from": "0x72d31adec4a82bcf8bd20c685b8c350a0f5953bf",
        "to": "0xb7b1fce90f7b56cc9a98f776ee8a20e8c82db73c",
        "gas": "0x3542a",
        "value": "0x0",
        "input": "0x9501bdc200000000000000000000000000000000000000000000000000000000000000a000000000000000000000000000000000000000000000000000000000000000e000000000000000000000000000000000000000000000000000000000000026e000000000000000000000000000000000000000000000000000000000000005dc0000000000000000000000000000000000000000000000000000000000000000000000000000000000000000000000000000000000000000000000000000000d412d50412d466f72676564494400000000000000000000000000000000000000000000000000000000000000000000000000000000000000000000000000001d61723a2f2f53594e54485f41544f4d49435f50415f464f524745444944000000",
        "nonce": "0xe",
        "chainId": "0x2105"
      },
      "additionalContracts": [],
      "isFixedGasLimit": false
    },
    {
      "hash": "0xef722e7a4c83d0bb5e9c6101bd5fa73a061c90dfa6e4882da2ce6ac45557a909",
      "transactionType": "CALL",
      "contractName": "SynthesisRegistry",
      "contractAddress": "0xb7b1fce90f7b56cc9a98f776ee8a20e8c82db73c",
      "function": "register(string,string,uint256,uint256,uint8)",
      "arguments": [
        "A-CS-TruthDistill",
        "ar://SYNTH_ATOMIC_CS_TRUTHDISTILL",
        "9747",
        "1500",
        "0"
      ],
      "transaction": {
        "from": "0x72d31adec4a82bcf8bd20c685b8c350a0f5953bf",
        "to": "0xb7b1fce90f7b56cc9a98f776ee8a20e8c82db73c",
        "gas": "0x444dd",
        "value": "0x0",
        "input": "0x9501bdc200000000000000000000000000000000000000000000000000000000000000a000000000000000000000000000000000000000000000000000000000000000e0000000000000000000000000000000000000000000000000000000000000261300000000000000000000000000000000000000000000000000000000000005dc00000000000000000000000000000000000000000000000000000000000000000000000000000000000000000000000000000000000000000000000000000011412d43532d547275746844697374696c6c000000000000000000000000000000000000000000000000000000000000000000000000000000000000000000002161723a2f2f53594e54485f41544f4d49435f43535f545255544844495354494c4c00000000000000000000000000000000000000000000000000000000000000",
        "nonce": "0xf",
        "chainId": "0x2105"
      },
      "additionalContracts": [],
      "isFixedGasLimit": false
    },
    {
      "hash": "0x8acbcd0d6228951dc4aab8b31d853ca425101c285ea8ede6a022b856ba6c01fb",
      "transactionType": "CALL",
      "contractName": "SynthesisRegistry",
      "contractAddress": "0xb7b1fce90f7b56cc9a98f776ee8a20e8c82db73c",
      "function": "register(string,string,uint256,uint256,uint8)",
      "arguments": [
        "A-CS-PromptSynth",
        "ar://SYNTH_ATOMIC_CS_PROMPTSYNTH",
        "9934",
        "1500",
        "0"
      ],
      "transaction": {
        "from": "0x72d31adec4a82bcf8bd20c685b8c350a0f5953bf",
        "to": "0xb7b1fce90f7b56cc9a98f776ee8a20e8c82db73c",
        "gas": "0x3cc84",
        "value": "0x0",
        "input": "0x9501bdc200000000000000000000000000000000000000000000000000000000000000a000000000000000000000000000000000000000000000000000000000000000e000000000000000000000000000000000000000000000000000000000000026ce00000000000000000000000000000000000000000000000000000000000005dc00000000000000000000000000000000000000000000000000000000000000000000000000000000000000000000000000000000000000000000000000000010412d43532d50726f6d707453796e746800000000000000000000000000000000000000000000000000000000000000000000000000000000000000000000002061723a2f2f53594e54485f41544f4d49435f43535f50524f4d505453594e5448",
        "nonce": "0x10",
        "chainId": "0x2105"
      },
      "additionalContracts": [],
      "isFixedGasLimit": false
    },
    {
      "hash": "0xbe20a38fe81df4421dfc70a220140754aa07c90b7b00a9d1eff02d392503c81d",
      "transactionType": "CALL",
      "contractName": "SynthesisRegistry",
      "contractAddress": "0xb7b1fce90f7b56cc9a98f776ee8a20e8c82db73c",
      "function": "register(string,string,uint256,uint256,uint8)",
      "arguments": [
        "A-CS-OmniTuner",
        "ar://SYNTH_ATOMIC_CS_OMNITUNER",
        "9788",
        "1500",
        "0"
      ],
      "transaction": {
        "from": "0x72d31adec4a82bcf8bd20c685b8c350a0f5953bf",
        "to": "0xb7b1fce90f7b56cc9a98f776ee8a20e8c82db73c",
        "gas": "0x3544a",
        "value": "0x0",
        "input": "0x9501bdc200000000000000000000000000000000000000000000000000000000000000a000000000000000000000000000000000000000000000000000000000000000e0000000000000000000000000000000000000000000000000000000000000263c00000000000000000000000000000000000000000000000000000000000005dc0000000000000000000000000000000000000000000000000000000000000000000000000000000000000000000000000000000000000000000000000000000e412d43532d4f6d6e6954756e6572000000000000000000000000000000000000000000000000000000000000000000000000000000000000000000000000001e61723a2f2f53594e54485f41544f4d49435f43535f4f4d4e4954554e45520000",
        "nonce": "0x11",
        "chainId": "0x2105"
      },
      "additionalContracts": [],
      "isFixedGasLimit": false
    },
    {
      "hash": "0xc38204efc0d9501558caf8664e8acae0d36dfeeb9d9c6b323e861f661e15dcb8",
      "transactionType": "CALL",
      "contractName": "SynthesisRegistry",
      "contractAddress": "0xb7b1fce90f7b56cc9a98f776ee8a20e8c82db73c",
      "function": "register(string,string,uint256,uint256,uint8)",
      "arguments": [
        "A-CS-ResonBPS",
        "ar://SYNTH_ATOMIC_CS_RESONBPS",
        "9901",
        "1500",
        "0"
      ],
      "transaction": {
        "from": "0x72d31adec4a82bcf8bd20c685b8c350a0f5953bf",
        "to": "0xb7b1fce90f7b56cc9a98f776ee8a20e8c82db73c",
        "gas": "0x3542a",
        "value": "0x0",
        "input": "0x9501bdc200000000000000000000000000000000000000000000000000000000000000a000000000000000000000000000000000000000000000000000000000000000e000000000000000000000000000000000000000000000000000000000000026ad00000000000000000000000000000000000000000000000000000000000005dc0000000000000000000000000000000000000000000000000000000000000000000000000000000000000000000000000000000000000000000000000000000d412d43532d5265736f6e42505300000000000000000000000000000000000000000000000000000000000000000000000000000000000000000000000000001d61723a2f2f53594e54485f41544f4d49435f43535f5245534f4e425053000000",
        "nonce": "0x12",
        "chainId": "0x2105"
      },
      "additionalContracts": [],
      "isFixedGasLimit": false
    },
    {
      "hash": "0x3cfcdf21b1d5bd2f0dc745385f1cb886793c4c6ae93592a4520d46f6548fa0e1",
      "transactionType": "CALL",
      "contractName": "SynthesisRegistry",
      "contractAddress": "0xb7b1fce90f7b56cc9a98f776ee8a20e8c82db73c",
      "function": "register(string,string,uint256,uint256,uint8)",
      "arguments": [
        "A-GAM-WorldSeed",
        "ar://SYNTH_ATOMIC_GAM_WORLDSEED",
        "9841",
        "1500",
        "0"
      ],
      "transaction": {
        "from": "0x72d31adec4a82bcf8bd20c685b8c350a0f5953bf",
        "to": "0xb7b1fce90f7b56cc9a98f776ee8a20e8c82db73c",
        "gas": "0x3546c",
        "value": "0x0",
        "input": "0x9501bdc200000000000000000000000000000000000000000000000000000000000000a000000000000000000000000000000000000000000000000000000000000000e0000000000000000000000000000000000000000000000000000000000000267100000000000000000000000000000000000000000000000000000000000005dc0000000000000000000000000000000000000000000000000000000000000000000000000000000000000000000000000000000000000000000000000000000f412d47414d2d576f726c64536565640000000000000000000000000000000000000000000000000000000000000000000000000000000000000000000000001f61723a2f2f53594e54485f41544f4d49435f47414d5f574f524c445345454400",
        "nonce": "0x13",
        "chainId": "0x2105"
      },
      "additionalContracts": [],
      "isFixedGasLimit": false
    },
    {
      "hash": "0xce6452e57ba05da05aea8666da32583c0067a8581b93c6645cc02a8fcfc8ab67",
      "transactionType": "CALL",
      "contractName": "SynthesisRegistry",
      "contractAddress": "0xb7b1fce90f7b56cc9a98f776ee8a20e8c82db73c",
      "function": "register(string,string,uint256,uint256,uint8)",
      "arguments": [
        "A-GAM-LoreReceipt",
        "ar://SYNTH_ATOMIC_GAM_LORERECEIPT",
        "9699",
        "1500",
        "0"
      ],
      "transaction": {
        "from": "0x72d31adec4a82bcf8bd20c685b8c350a0f5953bf",
        "to": "0xb7b1fce90f7b56cc9a98f776ee8a20e8c82db73c",
        "gas": "0x444dd",
        "value": "0x0",
        "input": "0x9501bdc200000000000000000000000000000000000000000000000000000000000000a000000000000000000000000000000000000000000000000000000000000000e000000000000000000000000000000000000000000000000000000000000025e300000000000000000000000000000000000000000000000000000000000005dc00000000000000000000000000000000000000000000000000000000000000000000000000000000000000000000000000000000000000000000000000000011412d47414d2d4c6f726552656365697074000000000000000000000000000000000000000000000000000000000000000000000000000000000000000000002161723a2f2f53594e54485f41544f4d49435f47414d5f4c4f52455245434549505400000000000000000000000000000000000000000000000000000000000000",
        "nonce": "0x14",
        "chainId": "0x2105"
      },
      "additionalContracts": [],
      "isFixedGasLimit": false
    },
    {
      "hash": "0x1a5d4768be838504f1ed6023db2678101dfd76685a4a5c89c70d4a9946491d11",
      "transactionType": "CALL",
      "contractName": "SynthesisRegistry",
      "contractAddress": "0xb7b1fce90f7b56cc9a98f776ee8a20e8c82db73c",
      "function": "register(string,string,uint256,uint256,uint8)",
      "arguments": [
        "A-ETH-IntegrityBPS",
        "ar://SYNTH_ATOMIC_ETH_INTEGRITYBPS",
        "9813",
        "1500",
        "0"
      ],
      "transaction": {
        "from": "0x72d31adec4a82bcf8bd20c685b8c350a0f5953bf",
        "to": "0xb7b1fce90f7b56cc9a98f776ee8a20e8c82db73c",
        "gas": "0x444fd",
        "value": "0x0",
        "input": "0x9501bdc200000000000000000000000000000000000000000000000000000000000000a000000000000000000000000000000000000000000000000000000000000000e0000000000000000000000000000000000000000000000000000000000000265500000000000000000000000000000000000000000000000000000000000005dc00000000000000000000000000000000000000000000000000000000000000000000000000000000000000000000000000000000000000000000000000000012412d4554482d496e746567726974794250530000000000000000000000000000000000000000000000000000000000000000000000000000000000000000002261723a2f2f53594e54485f41544f4d49435f4554485f494e54454752495459425053000000000000000000000000000000000000000000000000000000000000",
        "nonce": "0x15",
        "chainId": "0x2105"
      },
      "additionalContracts": [],
      "isFixedGasLimit": false
    },
    {
      "hash": "0x49727ae9c83d9c797f0a4e7c18cad2f87317cdf5ceff3465b5df58d5344d2592",
      "transactionType": "CALL",
      "contractName": "SynthesisRegistry",
      "contractAddress": "0xb7b1fce90f7b56cc9a98f776ee8a20e8c82db73c",
      "function": "register(string,string,uint256,uint256,uint8)",
      "arguments": [
        "A-LS-MigratProof",
        "ar://SYNTH_ATOMIC_LS_MIGRATPROOF",
        "9695",
        "1500",
        "0"
      ],
      "transaction": {
        "from": "0x72d31adec4a82bcf8bd20c685b8c350a0f5953bf",
        "to": "0xb7b1fce90f7b56cc9a98f776ee8a20e8c82db73c",
        "gas": "0x3cc84",
        "value": "0x0",
        "input": "0x9501bdc200000000000000000000000000000000000000000000000000000000000000a000000000000000000000000000000000000000000000000000000000000000e000000000000000000000000000000000000000000000000000000000000025df00000000000000000000000000000000000000000000000000000000000005dc00000000000000000000000000000000000000000000000000000000000000000000000000000000000000000000000000000000000000000000000000000010412d4c532d4d696772617450726f6f6600000000000000000000000000000000000000000000000000000000000000000000000000000000000000000000002061723a2f2f53594e54485f41544f4d49435f4c535f4d494752415450524f4f46",
        "nonce": "0x16",
        "chainId": "0x2105"
      },
      "additionalContracts": [],
      "isFixedGasLimit": false
    },
    {
      "hash": "0x15139a33b1cb1d5cbebc5b5a0184c3dfaecbe1e7c79065a13f870fa2c4f23924",
      "transactionType": "CALL",
      "contractName": "SynthesisRegistry",
      "contractAddress": "0xb7b1fce90f7b56cc9a98f776ee8a20e8c82db73c",
      "function": "register(string,string,uint256,uint256,uint8)",
      "arguments": [
        "A-DFI-PoolSifter",
        "ar://SYNTH_ATOMIC_DFI_POOLSIFTER",
        "9726",
        "1500",
        "0"
      ],
      "transaction": {
        "from": "0x72d31adec4a82bcf8bd20c685b8c350a0f5953bf",
        "to": "0xb7b1fce90f7b56cc9a98f776ee8a20e8c82db73c",
        "gas": "0x3cc84",
        "value": "0x0",
        "input": "0x9501bdc200000000000000000000000000000000000000000000000000000000000000a000000000000000000000000000000000000000000000000000000000000000e000000000000000000000000000000000000000000000000000000000000025fe00000000000000000000000000000000000000000000000000000000000005dc00000000000000000000000000000000000000000000000000000000000000000000000000000000000000000000000000000000000000000000000000000010412d4446492d506f6f6c53696674657200000000000000000000000000000000000000000000000000000000000000000000000000000000000000000000002061723a2f2f53594e54485f41544f4d49435f4446495f504f4f4c534946544552",
        "nonce": "0x17",
        "chainId": "0x2105"
      },
      "additionalContracts": [],
      "isFixedGasLimit": false
    },
    {
      "hash": "0xbacf033cc3aee4ac1656dc05a51eea2ed05e915606cc5fdac0ff0d395114ea45",
      "transactionType": "CALL",
      "contractName": "SynthesisRegistry",
      "contractAddress": "0xb7b1fce90f7b56cc9a98f776ee8a20e8c82db73c",
      "function": "register(string,string,uint256,uint256,uint8)",
      "arguments": [
        "A-SEC-JailShield",
        "ar://SYNTH_ATOMIC_SEC_JAILSHIELD",
        "9824",
        "1500",
        "0"
      ],
      "transaction": {
        "from": "0x72d31adec4a82bcf8bd20c685b8c350a0f5953bf",
        "to": "0xb7b1fce90f7b56cc9a98f776ee8a20e8c82db73c",
        "gas": "0x3cc84",
        "value": "0x0",
        "input": "0x9501bdc200000000000000000000000000000000000000000000000000000000000000a000000000000000000000000000000000000000000000000000000000000000e0000000000000000000000000000000000000000000000000000000000000266000000000000000000000000000000000000000000000000000000000000005dc00000000000000000000000000000000000000000000000000000000000000000000000000000000000000000000000000000000000000000000000000000010412d5345432d4a61696c536869656c6400000000000000000000000000000000000000000000000000000000000000000000000000000000000000000000002061723a2f2f53594e54485f41544f4d49435f5345435f4a41494c534849454c44",
        "nonce": "0x18",
        "chainId": "0x2105"
      },
      "additionalContracts": [],
      "isFixedGasLimit": false
    },
    {
      "hash": "0xcf95fc5da2dddebd5920918783b19f28d651850b09fd67e1faac4690e003ffad",
      "transactionType": "CALL",
      "contractName": "SynthesisRegistry",
      "contractAddress": "0xb7b1fce90f7b56cc9a98f776ee8a20e8c82db73c",
      "function": "register(string,string,uint256,uint256,uint8)",
      "arguments": [
        "A-OSI-ArtifactAudit",
        "ar://SYNTH_ATOMIC_OSI_ARTIFACTAUDIT",
        "9842",
        "1500",
        "0"
      ],
      "transaction": {
        "from": "0x72d31adec4a82bcf8bd20c685b8c350a0f5953bf",
        "to": "0xb7b1fce90f7b56cc9a98f776ee8a20e8c82db73c",
        "gas": "0x4451f",
        "value": "0x0",
        "input": "0x9501bdc200000000000000000000000000000000000000000000000000000000000000a000000000000000000000000000000000000000000000000000000000000000e0000000000000000000000000000000000000000000000000000000000000267200000000000000000000000000000000000000000000000000000000000005dc00000000000000000000000000000000000000000000000000000000000000000000000000000000000000000000000000000000000000000000000000000013412d4f53492d4172746966616374417564697400000000000000000000000000000000000000000000000000000000000000000000000000000000000000002361723a2f2f53594e54485f41544f4d49435f4f53495f415254494641435441554449540000000000000000000000000000000000000000000000000000000000",
        "nonce": "0x19",
        "chainId": "0x2105"
      },
      "additionalContracts": [],
      "isFixedGasLimit": false
    },
    {
      "hash": "0xb93a9ad98dadbb2af2059d2f338664ca0a6dc792aeebe90ca25ea6c700ed0c0e",
      "transactionType": "CALL",
      "contractName": "SynthesisRegistry",
      "contractAddress": "0xb7b1fce90f7b56cc9a98f776ee8a20e8c82db73c",
      "function": "register(string,string,uint256,uint256,uint8)",
      "arguments": [
        "A-OSI-NexusLinker",
        "ar://SYNTH_ATOMIC_OSI_NEXUSLINKER",
        "9806",
        "1500",
        "0"
      ],
      "transaction": {
        "from": "0x72d31adec4a82bcf8bd20c685b8c350a0f5953bf",
        "to": "0xb7b1fce90f7b56cc9a98f776ee8a20e8c82db73c",
        "gas": "0x444dd",
        "value": "0x0",
        "input": "0x9501bdc200000000000000000000000000000000000000000000000000000000000000a000000000000000000000000000000000000000000000000000000000000000e0000000000000000000000000000000000000000000000000000000000000264e00000000000000000000000000000000000000000000000000000000000005dc00000000000000000000000000000000000000000000000000000000000000000000000000000000000000000000000000000000000000000000000000000011412d4f53492d4e657875734c696e6b6572000000000000000000000000000000000000000000000000000000000000000000000000000000000000000000002161723a2f2f53594e54485f41544f4d49435f4f53495f4e455855534c494e4b455200000000000000000000000000000000000000000000000000000000000000",
        "nonce": "0x1a",
        "chainId": "0x2105"
      },
      "additionalContracts": [],
      "isFixedGasLimit": false
    },
    {
      "hash": "0x7a23671a24f2afeb288d7fa5ca2a923f307c1ad06c358c66fcf10a79b110139c",
      "transactionType": "CALL",
      "contractName": "SynthesisRegistry",
      "contractAddress": "0xb7b1fce90f7b56cc9a98f776ee8a20e8c82db73c",
      "function": "register(string,string,uint256,uint256,uint8)",
      "arguments": [
        "A-OSI-TruthBPS",
        "ar://SYNTH_ATOMIC_OSI_TRUTHBPS",
        "9851",
        "1500",
        "0"
      ],
      "transaction": {
        "from": "0x72d31adec4a82bcf8bd20c685b8c350a0f5953bf",
        "to": "0xb7b1fce90f7b56cc9a98f776ee8a20e8c82db73c",
        "gas": "0x3544a",
        "value": "0x0",
        "input": "0x9501bdc200000000000000000000000000000000000000000000000000000000000000a000000000000000000000000000000000000000000000000000000000000000e0000000000000000000000000000000000000000000000000000000000000267b00000000000000000000000000000000000000000000000000000000000005dc0000000000000000000000000000000000000000000000000000000000000000000000000000000000000000000000000000000000000000000000000000000e412d4f53492d5472757468425053000000000000000000000000000000000000000000000000000000000000000000000000000000000000000000000000001e61723a2f2f53594e54485f41544f4d49435f4f53495f54525554484250530000",
        "nonce": "0x1b",
        "chainId": "0x2105"
      },
      "additionalContracts": [],
      "isFixedGasLimit": false
    },
    {
      "hash": "0x29b0d268a1f48f03fbbe368e705c529dca08a1b8d9740eb829f6e61cbdfd1d8a",
      "transactionType": "CALL",
      "contractName": "SynthesisRegistry",
      "contractAddress": "0xb7b1fce90f7b56cc9a98f776ee8a20e8c82db73c",
      "function": "register(string,string,uint256,uint256,uint8)",
      "arguments": [
        "A-GH-BurstDetect",
        "ar://SYNTH_ATOMIC_GH_BURSTDETECT",
        "9642",
        "1500",
        "0"
      ],
      "transaction": {
        "from": "0x72d31adec4a82bcf8bd20c685b8c350a0f5953bf",
        "to": "0xb7b1fce90f7b56cc9a98f776ee8a20e8c82db73c",
        "gas": "0x3cc84",
        "value": "0x0",
        "input": "0x9501bdc200000000000000000000000000000000000000000000000000000000000000a000000000000000000000000000000000000000000000000000000000000000e000000000000000000000000000000000000000000000000000000000000025aa00000000000000000000000000000000000000000000000000000000000005dc00000000000000000000000000000000000000000000000000000000000000000000000000000000000000000000000000000000000000000000000000000010412d47482d427572737444657465637400000000000000000000000000000000000000000000000000000000000000000000000000000000000000000000002061723a2f2f53594e54485f41544f4d49435f47485f4255525354444554454354",
        "nonce": "0x1c",
        "chainId": "0x2105"
      },
      "additionalContracts": [],
      "isFixedGasLimit": false
    },
    {
      "hash": "0x774fb5aba78333debfa0be0f57eaa2cdd008042629415be7f4dc831f3cf8ce18",
      "transactionType": "CALL",
      "contractName": "SynthesisRegistry",
      "contractAddress": "0xb7b1fce90f7b56cc9a98f776ee8a20e8c82db73c",
      "function": "register(string,string,uint256,uint256,uint8)",
      "arguments": [
        "A-GH-ContrastIdea",
        "ar://SYNTH_ATOMIC_GH_CONTRASTIDEA",
        "9806",
        "1500",
        "0"
      ],
      "transaction": {
        "from": "0x72d31adec4a82bcf8bd20c685b8c350a0f5953bf",
        "to": "0xb7b1fce90f7b56cc9a98f776ee8a20e8c82db73c",
        "gas": "0x444dd",
        "value": "0x0",
        "input": "0x9501bdc200000000000000000000000000000000000000000000000000000000000000a000000000000000000000000000000000000000000000000000000000000000e0000000000000000000000000000000000000000000000000000000000000264e00000000000000000000000000000000000000000000000000000000000005dc00000000000000000000000000000000000000000000000000000000000000000000000000000000000000000000000000000000000000000000000000000011412d47482d436f6e747261737449646561000000000000000000000000000000000000000000000000000000000000000000000000000000000000000000002161723a2f2f53594e54485f41544f4d49435f47485f434f4e54524153544944454100000000000000000000000000000000000000000000000000000000000000",
        "nonce": "0x1d",
        "chainId": "0x2105"
      },
      "additionalContracts": [],
      "isFixedGasLimit": false
    },
    {
      "hash": "0xb3c9113f6947dd0304ecd82af2f8ab9f99606ca8e1be76c06efc6330af016d04",
      "transactionType": "CALL",
      "contractName": "SynthesisRegistry",
      "contractAddress": "0xb7b1fce90f7b56cc9a98f776ee8a20e8c82db73c",
      "function": "register(string,string,uint256,uint256,uint8)",
      "arguments": [
        "A-GH-AlgoOptimizer",
        "ar://SYNTH_ATOMIC_GH_ALGOOPTIMIZER",
        "9672",
        "1500",
        "0"
      ],
      "transaction": {
        "from": "0x72d31adec4a82bcf8bd20c685b8c350a0f5953bf",
        "to": "0xb7b1fce90f7b56cc9a98f776ee8a20e8c82db73c",
        "gas": "0x444fd",
        "value": "0x0",
        "input": "0x9501bdc200000000000000000000000000000000000000000000000000000000000000a000000000000000000000000000000000000000000000000000000000000000e000000000000000000000000000000000000000000000000000000000000025c800000000000000000000000000000000000000000000000000000000000005dc00000000000000000000000000000000000000000000000000000000000000000000000000000000000000000000000000000000000000000000000000000012412d47482d416c676f4f7074696d697a65720000000000000000000000000000000000000000000000000000000000000000000000000000000000000000002261723a2f2f53594e54485f41544f4d49435f47485f414c474f4f5054494d495a4552000000000000000000000000000000000000000000000000000000000000",
        "nonce": "0x1e",
        "chainId": "0x2105"
      },
      "additionalContracts": [],
      "isFixedGasLimit": false
    },
    {
      "hash": "0xce994a3de7f0bd5cf6016bba798fadb2b3cfdeacaf9296bdbe78e21f4652ccf8",
      "transactionType": "CALL",
      "contractName": "SynthesisRegistry",
      "contractAddress": "0xb7b1fce90f7b56cc9a98f776ee8a20e8c82db73c",
      "function": "register(string,string,uint256,uint256,uint8)",
      "arguments": [
        "A-GH-NoiseGuard",
        "ar://SYNTH_ATOMIC_GH_NOISEGUARD",
        "9930",
        "1500",
        "0"
      ],
      "transaction": {
        "from": "0x72d31adec4a82bcf8bd20c685b8c350a0f5953bf",
        "to": "0xb7b1fce90f7b56cc9a98f776ee8a20e8c82db73c",
        "gas": "0x3546c",
        "value": "0x0",
        "input": "0x9501bdc200000000000000000000000000000000000000000000000000000000000000a000000000000000000000000000000000000000000000000000000000000000e000000000000000000000000000000000000000000000000000000000000026ca00000000000000000000000000000000000000000000000000000000000005dc0000000000000000000000000000000000000000000000000000000000000000000000000000000000000000000000000000000000000000000000000000000f412d47482d4e6f69736547756172640000000000000000000000000000000000000000000000000000000000000000000000000000000000000000000000001f61723a2f2f53594e54485f41544f4d49435f47485f4e4f495345475541524400",
        "nonce": "0x1f",
        "chainId": "0x2105"
      },
      "additionalContracts": [],
      "isFixedGasLimit": false
    },
    {
      "hash": "0xb3d883f99d7d3a28ae97cdeafc72f1a9c10905ac8f5e65a1a2d0ed6dcbd98c6c",
      "transactionType": "CALL",
      "contractName": "SynthesisRegistry",
      "contractAddress": "0xb7b1fce90f7b56cc9a98f776ee8a20e8c82db73c",
      "function": "register(string,string,uint256,uint256,uint8)",
      "arguments": [
        "A-CEO-BoardSim",
        "ar://SYNTH_ATOMIC_CEO_BOARDSIM",
        "9812",
        "1500",
        "0"
      ],
      "transaction": {
        "from": "0x72d31adec4a82bcf8bd20c685b8c350a0f5953bf",
        "to": "0xb7b1fce90f7b56cc9a98f776ee8a20e8c82db73c",
        "gas": "0x3544a",
        "value": "0x0",
        "input": "0x9501bdc200000000000000000000000000000000000000000000000000000000000000a000000000000000000000000000000000000000000000000000000000000000e0000000000000000000000000000000000000000000000000000000000000265400000000000000000000000000000000000000000000000000000000000005dc0000000000000000000000000000000000000000000000000000000000000000000000000000000000000000000000000000000000000000000000000000000e412d43454f2d426f61726453696d000000000000000000000000000000000000000000000000000000000000000000000000000000000000000000000000001e61723a2f2f53594e54485f41544f4d49435f43454f5f424f41524453494d0000",
        "nonce": "0x20",
        "chainId": "0x2105"
      },
      "additionalContracts": [],
      "isFixedGasLimit": false
    },
    {
      "hash": "0x1dfe2825669f843c6612a266d5b42d04fa3cdc42a0aeeacf599f1bcb33458132",
      "transactionType": "CALL",
      "contractName": "SynthesisRegistry",
      "contractAddress": "0xb7b1fce90f7b56cc9a98f776ee8a20e8c82db73c",
      "function": "register(string,string,uint256,uint256,uint8)",
      "arguments": [
        "A-CEO-PivotOracle",
        "ar://SYNTH_ATOMIC_CEO_PIVOTORACLE",
        "9999",
        "1500",
        "0"
      ],
      "transaction": {
        "from": "0x72d31adec4a82bcf8bd20c685b8c350a0f5953bf",
        "to": "0xb7b1fce90f7b56cc9a98f776ee8a20e8c82db73c",
        "gas": "0x444dd",
        "value": "0x0",
        "input": "0x9501bdc200000000000000000000000000000000000000000000000000000000000000a000000000000000000000000000000000000000000000000000000000000000e0000000000000000000000000000000000000000000000000000000000000270f00000000000000000000000000000000000000000000000000000000000005dc00000000000000000000000000000000000000000000000000000000000000000000000000000000000000000000000000000000000000000000000000000011412d43454f2d5069766f744f7261636c65000000000000000000000000000000000000000000000000000000000000000000000000000000000000000000002161723a2f2f53594e54485f41544f4d49435f43454f5f5049564f544f5241434c4500000000000000000000000000000000000000000000000000000000000000",
        "nonce": "0x21",
        "chainId": "0x2105"
      },
      "additionalContracts": [],
      "isFixedGasLimit": false
    },
    {
      "hash": "0x924197800d3305b23cbc244af3254e3a6a3ed5287debfaf26716f01a9a20d6b8",
      "transactionType": "CALL",
      "contractName": "SynthesisRegistry",
      "contractAddress": "0xb7b1fce90f7b56cc9a98f776ee8a20e8c82db73c",
      "function": "register(string,string,uint256,uint256,uint8)",
      "arguments": [
        "A-CSO-MoatClassifier",
        "ar://SYNTH_ATOMIC_CSO_MOATCLASSIFIER",
        "9605",
        "1500",
        "0"
      ],
      "transaction": {
        "from": "0x72d31adec4a82bcf8bd20c685b8c350a0f5953bf",
        "to": "0xb7b1fce90f7b56cc9a98f776ee8a20e8c82db73c",
        "gas": "0x4453f",
        "value": "0x0",
        "input": "0x9501bdc200000000000000000000000000000000000000000000000000000000000000a000000000000000000000000000000000000000000000000000000000000000e0000000000000000000000000000000000000000000000000000000000000258500000000000000000000000000000000000000000000000000000000000005dc00000000000000000000000000000000000000000000000000000000000000000000000000000000000000000000000000000000000000000000000000000014412d43534f2d4d6f6174436c6173736966696572000000000000000000000000000000000000000000000000000000000000000000000000000000000000002461723a2f2f53594e54485f41544f4d49435f43534f5f4d4f4154434c415353494649455200000000000000000000000000000000000000000000000000000000",
        "nonce": "0x22",
        "chainId": "0x2105"
      },
      "additionalContracts": [],
      "isFixedGasLimit": false
    },
    {
      "hash": "0xb162137b2a8b5ab3bb52b89b26ec5e3802cb8f5af8bc136cdecf681861724727",
      "transactionType": "CALL",
      "contractName": "SynthesisRegistry",
      "contractAddress": "0xb7b1fce90f7b56cc9a98f776ee8a20e8c82db73c",
      "function": "register(string,string,uint256,uint256,uint8)",
      "arguments": [
        "A-CSO-ParityAudit",
        "ar://SYNTH_ATOMIC_CSO_PARITYAUDIT",
        "9782",
        "1500",
        "0"
      ],
      "transaction": {
        "from": "0x72d31adec4a82bcf8bd20c685b8c350a0f5953bf",
        "to": "0xb7b1fce90f7b56cc9a98f776ee8a20e8c82db73c",
        "gas": "0x444dd",
        "value": "0x0",
        "input": "0x9501bdc200000000000000000000000000000000000000000000000000000000000000a000000000000000000000000000000000000000000000000000000000000000e0000000000000000000000000000000000000000000000000000000000000263600000000000000000000000000000000000000000000000000000000000005dc00000000000000000000000000000000000000000000000000000000000000000000000000000000000000000000000000000000000000000000000000000011412d43534f2d5061726974794175646974000000000000000000000000000000000000000000000000000000000000000000000000000000000000000000002161723a2f2f53594e54485f41544f4d49435f43534f5f504152495459415544495400000000000000000000000000000000000000000000000000000000000000",
        "nonce": "0x23",
        "chainId": "0x2105"
      },
      "additionalContracts": [],
      "isFixedGasLimit": false
    },
    {
      "hash": "0xf9c1f72312362e2cee34793f0a0c68ccea2d304875e25030bbf3f1e780dcbc0c",
      "transactionType": "CALL",
      "contractName": "SynthesisRegistry",
      "contractAddress": "0xb7b1fce90f7b56cc9a98f776ee8a20e8c82db73c",
      "function": "register(string,string,uint256,uint256,uint8)",
      "arguments": [
        "A-CFO-LedgerParser",
        "ar://SYNTH_ATOMIC_CFO_LEDGERPARSER",
        "9689",
        "1500",
        "0"
      ],
      "transaction": {
        "from": "0x72d31adec4a82bcf8bd20c685b8c350a0f5953bf",
        "to": "0xb7b1fce90f7b56cc9a98f776ee8a20e8c82db73c",
        "gas": "0x444fd",
        "value": "0x0",
        "input": "0x9501bdc200000000000000000000000000000000000000000000000000000000000000a000000000000000000000000000000000000000000000000000000000000000e000000000000000000000000000000000000000000000000000000000000025d900000000000000000000000000000000000000000000000000000000000005dc00000000000000000000000000000000000000000000000000000000000000000000000000000000000000000000000000000000000000000000000000000012412d43464f2d4c65646765725061727365720000000000000000000000000000000000000000000000000000000000000000000000000000000000000000002261723a2f2f53594e54485f41544f4d49435f43464f5f4c4544474552504152534552000000000000000000000000000000000000000000000000000000000000",
        "nonce": "0x24",
        "chainId": "0x2105"
      },
      "additionalContracts": [],
      "isFixedGasLimit": false
    },
    {
      "hash": "0x3c056a8184c670aec28ac9219daf844842f9b60301d8de1976181170b3ccb7d9",
      "transactionType": "CALL",
      "contractName": "SynthesisRegistry",
      "contractAddress": "0xb7b1fce90f7b56cc9a98f776ee8a20e8c82db73c",
      "function": "register(string,string,uint256,uint256,uint8)",
      "arguments": [
        "A-CFO-SolvencyAudit",
        "ar://SYNTH_ATOMIC_CFO_SOLVENCYAUDIT",
        "9718",
        "1500",
        "0"
      ],
      "transaction": {
        "from": "0x72d31adec4a82bcf8bd20c685b8c350a0f5953bf",
        "to": "0xb7b1fce90f7b56cc9a98f776ee8a20e8c82db73c",
        "gas": "0x4451f",
        "value": "0x0",
        "input": "0x9501bdc200000000000000000000000000000000000000000000000000000000000000a000000000000000000000000000000000000000000000000000000000000000e000000000000000000000000000000000000000000000000000000000000025f600000000000000000000000000000000000000000000000000000000000005dc00000000000000000000000000000000000000000000000000000000000000000000000000000000000000000000000000000000000000000000000000000013412d43464f2d536f6c76656e6379417564697400000000000000000000000000000000000000000000000000000000000000000000000000000000000000002361723a2f2f53594e54485f41544f4d49435f43464f5f534f4c56454e435941554449540000000000000000000000000000000000000000000000000000000000",
        "nonce": "0x25",
        "chainId": "0x2105"
      },
      "additionalContracts": [],
      "isFixedGasLimit": false
    },
    {
      "hash": "0x0bd19f9b74dcdc7521b5ba75811a8f22aff011b41620262d978a9c790f781360",
      "transactionType": "CALL",
      "contractName": "SynthesisRegistry",
      "contractAddress": "0xb7b1fce90f7b56cc9a98f776ee8a20e8c82db73c",
      "function": "register(string,string,uint256,uint256,uint8)",
      "arguments": [
        "A-CMO-PulseHarvester",
        "ar://SYNTH_ATOMIC_CMO_PULSEHARVESTER",
        "9924",
        "1500",
        "0"
      ],
      "transaction": {
        "from": "0x72d31adec4a82bcf8bd20c685b8c350a0f5953bf",
        "to": "0xb7b1fce90f7b56cc9a98f776ee8a20e8c82db73c",
        "gas": "0x4453f",
        "value": "0x0",
        "input": "0x9501bdc200000000000000000000000000000000000000000000000000000000000000a000000000000000000000000000000000000000000000000000000000000000e000000000000000000000000000000000000000000000000000000000000026c400000000000000000000000000000000000000000000000000000000000005dc00000000000000000000000000000000000000000000000000000000000000000000000000000000000000000000000000000000000000000000000000000014412d434d4f2d50756c7365486172766573746572000000000000000000000000000000000000000000000000000000000000000000000000000000000000002461723a2f2f53594e54485f41544f4d49435f434d4f5f50554c534548415256455354455200000000000000000000000000000000000000000000000000000000",
        "nonce": "0x26",
        "chainId": "0x2105"
      },
      "additionalContracts": [],
      "isFixedGasLimit": false
    },
    {
      "hash": "0xe48904ecc4f168b3184e02ae696e156f121a4e2bdce1d13786d0fe6a55345d2a",
      "transactionType": "CALL",
      "contractName": "SynthesisRegistry",
      "contractAddress": "0xb7b1fce90f7b56cc9a98f776ee8a20e8c82db73c",
      "function": "register(string,string,uint256,uint256,uint8)",
      "arguments": [
        "A-CMO-BrandTuner",
        "ar://SYNTH_ATOMIC_CMO_BRANDTUNER",
        "9860",
        "1500",
        "0"
      ],
      "transaction": {
        "from": "0x72d31adec4a82bcf8bd20c685b8c350a0f5953bf",
        "to": "0xb7b1fce90f7b56cc9a98f776ee8a20e8c82db73c",
        "gas": "0x3cc84",
        "value": "0x0",
        "input": "0x9501bdc200000000000000000000000000000000000000000000000000000000000000a000000000000000000000000000000000000000000000000000000000000000e0000000000000000000000000000000000000000000000000000000000000268400000000000000000000000000000000000000000000000000000000000005dc00000000000000000000000000000000000000000000000000000000000000000000000000000000000000000000000000000000000000000000000000000010412d434d4f2d4272616e6454756e657200000000000000000000000000000000000000000000000000000000000000000000000000000000000000000000002061723a2f2f53594e54485f41544f4d49435f434d4f5f4252414e4454554e4552",
        "nonce": "0x27",
        "chainId": "0x2105"
      },
      "additionalContracts": [],
      "isFixedGasLimit": false
    },
    {
      "hash": "0x9f6b1964b0fe5930c0e126f24fe07d0886702be851c39cb0d5dcd3250a7b6c2f",
      "transactionType": "CALL",
      "contractName": "SynthesisRegistry",
      "contractAddress": "0xb7b1fce90f7b56cc9a98f776ee8a20e8c82db73c",
      "function": "register(string,string,uint256,uint256,uint8)",
      "arguments": [
        "A-COO-WorkflowMapper",
        "ar://SYNTH_ATOMIC_COO_WORKFLOWMAPPER",
        "9999",
        "1500",
        "0"
      ],
      "transaction": {
        "from": "0x72d31adec4a82bcf8bd20c685b8c350a0f5953bf",
        "to": "0xb7b1fce90f7b56cc9a98f776ee8a20e8c82db73c",
        "gas": "0x4453f",
        "value": "0x0",
        "input": "0x9501bdc200000000000000000000000000000000000000000000000000000000000000a000000000000000000000000000000000000000000000000000000000000000e0000000000000000000000000000000000000000000000000000000000000270f00000000000000000000000000000000000000000000000000000000000005dc00000000000000000000000000000000000000000000000000000000000000000000000000000000000000000000000000000000000000000000000000000014412d434f4f2d576f726b666c6f774d6170706572000000000000000000000000000000000000000000000000000000000000000000000000000000000000002461723a2f2f53594e54485f41544f4d49435f434f4f5f574f524b464c4f574d415050455200000000000000000000000000000000000000000000000000000000",
        "nonce": "0x28",
        "chainId": "0x2105"
      },
      "additionalContracts": [],
      "isFixedGasLimit": false
    }
  ],
  "receipts": [
    {
      "status": "0x1",
      "cumulativeGasUsed": "0xf36d81",
      "logs": [],
      "logsBloom": "0x00000000000000000000000000000000000000000000000000000000000000000000000000000000000000000000000000000000000000000000000000000000000000000000000000000000000000000000000000000000000000000000000000000000000000000000000000000000000000000000000000000000000000000000000000000000000000000000000000000000000000000000000000000000000000000000000000000000000000000000000000000000000000000000000000000000000000000000000000000000000000000000000000000000000000000000000000000000000000000000000000000000000000000000000000000000",
      "type": "0x2",
      "transactionHash": "0x00a642f631b2c56dacf63629107a80e0da6f6c4a0232f4ac52b2ef443ae95bae",
      "transactionIndex": "0x56",
      "blockHash": "0xc93e74a62f56ffcfcfe722be7ef6991eb8c4203d0a139f820301c7b95210154a",
      "blockNumber": "0x260532d",
      "gasUsed": "0x8f563",
      "effectiveGasPrice": "0xaad25",
      "blobGasUsed": "0x84594",
      "from": "0x72d31adec4a82bcf8bd20c685b8c350a0f5953bf",
      "to": null,
      "contractAddress": "0x86faa99eb3cbd46bb53807fcd93b8a08d70116e0",
      "daFootprintGasScalar": "0x145",
      "l1BaseFeeScalar": "0x8dd",
      "l1BlobBaseFee": "0x1ffa56",
      "l1BlobBaseFeeScalar": "0x101c12",
      "l1Fee": "0x2c4eb5e7",
      "l1GasPrice": "0x2398538",
      "l1GasUsed": "0x6840"
    },
    {
      "status": "0x1",
      "cumulativeGasUsed": "0xfc8da2",
      "logs": [],
      "logsBloom": "0x00000000000000000000000000000000000000000000000000000000000000000000000000000000000000000000000000000000000000000000000000000000000000000000000000000000000000000000000000000000000000000000000000000000000000000000000000000000000000000000000000000000000000000000000000000000000000000000000000000000000000000000000000000000000000000000000000000000000000000000000000000000000000000000000000000000000000000000000000000000000000000000000000000000000000000000000000000000000000000000000000000000000000000000000000000000",
      "type": "0x2",
      "transactionHash": "0xfd06e87b7f5b2149c208ab89bc82249b9776b1d60d22e07538e355355f1336f4",
      "transactionIndex": "0x57",
      "blockHash": "0xc93e74a62f56ffcfcfe722be7ef6991eb8c4203d0a139f820301c7b95210154a",
      "blockNumber": "0x260532d",
      "gasUsed": "0x92021",
      "effectiveGasPrice": "0xaad25",
      "blobGasUsed": "0x88653",
      "from": "0x72d31adec4a82bcf8bd20c685b8c350a0f5953bf",
      "to": null,
      "contractAddress": "0xb7b1fce90f7b56cc9a98f776ee8a20e8c82db73c",
      "daFootprintGasScalar": "0x145",
      "l1BaseFeeScalar": "0x8dd",
      "l1BlobBaseFee": "0x1ffa56",
      "l1BlobBaseFeeScalar": "0x101c12",
      "l1Fee": "0x2c4eb5e7",
      "l1GasPrice": "0x2398538",
      "l1GasUsed": "0x6b71"
    },
    {
      "status": "0x1",
      "cumulativeGasUsed": "0xfd420d",
      "logs": [
        {
          "address": "0x86faa99eb3cbd46bb53807fcd93b8a08d70116e0",
          "topics": [
            "0x8c5be1e5ebec7d5bd14f71427d1e84f3dd0314c0f7b2291e5b200ac8c7c3b925",
            "0x00000000000000000000000072d31adec4a82bcf8bd20c685b8c350a0f5953bf",
            "0x000000000000000000000000b7b1fce90f7b56cc9a98f776ee8a20e8c82db73c"
          ],
          "data": "0x0000000000000000000000000000000000000000033b2e3c9fd0803ce8000000",
          "blockHash": "0xc93e74a62f56ffcfcfe722be7ef6991eb8c4203d0a139f820301c7b95210154a",
          "blockNumber": "0x260532d",
          "blockTimestamp": "0x694b033d",
          "transactionHash": "0x4261579f4c1047bbbb72c9867154f0924271ac33a5b52c1ba58b80ab2b599279",
          "transactionIndex": "0x58",
          "logIndex": "0x122",
          "removed": false
        }
      ],
      "logsBloom": "0x00000000000000000000000000000000000000000000000000000000000000000000000000000000000000000000000000000000000000000000000000200000800000000000000000000000000000000000000000000000000000000000000000000000000000000000010000200000000000000800000000000000000000000000000000000000000000000000000000000000000000000000000000000000020000000000000000000000000000000000800000000000008000000000000000000000000000000000000800000000020000000000000000000000000000000010000000000000000000000002000000000000000000000000000000000000",
      "type": "0x2",
      "transactionHash": "0x4261579f4c1047bbbb72c9867154f0924271ac33a5b52c1ba58b80ab2b599279",
      "transactionIndex": "0x58",
      "blockHash": "0xc93e74a62f56ffcfcfe722be7ef6991eb8c4203d0a139f820301c7b95210154a",
      "blockNumber": "0x260532d",
      "gasUsed": "0xb46b",
      "effectiveGasPrice": "0xaad25",
      "blobGasUsed": "0x7ef4",
      "from": "0x72d31adec4a82bcf8bd20c685b8c350a0f5953bf",
      "to": "0x86faa99eb3cbd46bb53807fcd93b8a08d70116e0",
      "contractAddress": null,
      "daFootprintGasScalar": "0x145",
      "l1BaseFeeScalar": "0x8dd",
      "l1BlobBaseFee": "0x1ffa56",
      "l1BlobBaseFeeScalar": "0x101c12",
      "l1Fee": "0x2c4eb5e7",
      "l1GasPrice": "0x2398538",
      "l1GasUsed": "0x640"
    },
    {
      "status": "0x1",
      "cumulativeGasUsed": "0x1009c58",
      "logs": [
        {
          "address": "0x86faa99eb3cbd46bb53807fcd93b8a08d70116e0",
          "topics": [
            "0xddf252ad1be2c89b69c2b068fc378daa952ba7f163c4a11628f55a4df523b3ef",
            "0x00000000000000000000000072d31adec4a82bcf8bd20c685b8c350a0f5953bf",
            "0x00000000000000000000000072d31adec4a82bcf8bd20c685b8c350a0f5953bf"
          ],
          "data": "0x00000000000000000000000000000000000000000000001b1ae4d6e2ef500000",
          "blockHash": "0xc93e74a62f56ffcfcfe722be7ef6991eb8c4203d0a139f820301c7b95210154a",
          "blockNumber": "0x260532d",
          "blockTimestamp": "0x694b033d",
          "transactionHash": "0x4091b03adaace7286f8897ae2b1d58916f166611fed490d20160788163a32298",
          "transactionIndex": "0x59",
          "logIndex": "0x123",
          "removed": false
        }
      ],
      "logsBloom": "0x00000000000000000000000000000000000000000000000000000000000000000000000000000000000000000000000000000000000000000000000000000000800000000000000000000008000000000000000000000000000000000000000000000000000000000000010000000000000000000800000000000010000000000000000000000000000000000000000000000000000000000000000000000000000000000000000000000000000000000000800000000000008000000000000000000002000000000000000000000000000000000000000000000000000000000000000000000000000000000002000000000000000000000000000000000000",
      "type": "0x2",
      "transactionHash": "0x4091b03adaace7286f8897ae2b1d58916f166611fed490d20160788163a32298",
      "transactionIndex": "0x59",
      "blockHash": "0xc93e74a62f56ffcfcfe722be7ef6991eb8c4203d0a139f820301c7b95210154a",
      "blockNumber": "0x260532d",
      "gasUsed": "0x35a4b",
      "effectiveGasPrice": "0xaad25",
      "blobGasUsed": "0xb446",
      "from": "0x72d31adec4a82bcf8bd20c685b8c350a0f5953bf",
      "to": "0xb7b1fce90f7b56cc9a98f776ee8a20e8c82db73c",
      "contractAddress": null,
      "daFootprintGasScalar": "0x145",
      "l1BaseFeeScalar": "0x8dd",
      "l1BlobBaseFee": "0x1ffa56",
      "l1BlobBaseFeeScalar": "0x101c12",
      "l1Fee": "0x2c4eb5e7",
      "l1GasPrice": "0x2398538",
      "l1GasUsed": "0x8e4"
    },
    {
      "status": "0x1",
      "cumulativeGasUsed": "0x103b3a7",
      "logs": [
        {
          "address": "0x86faa99eb3cbd46bb53807fcd93b8a08d70116e0",
          "topics": [
            "0xddf252ad1be2c89b69c2b068fc378daa952ba7f163c4a11628f55a4df523b3ef",
            "0x00000000000000000000000072d31adec4a82bcf8bd20c685b8c350a0f5953bf",
            "0x00000000000000000000000072d31adec4a82bcf8bd20c685b8c350a0f5953bf"
          ],
          "data": "0x00000000000000000000000000000000000000000000001b1ae4d6e2ef500000",
          "blockHash": "0xc93e74a62f56ffcfcfe722be7ef6991eb8c4203d0a139f820301c7b95210154a",
          "blockNumber": "0x260532d",
          "blockTimestamp": "0x694b033d",
          "transactionHash": "0xc277c5c5fdbe35998150191afbb6a09ec1dd4fe0f0e98a9d213a8b2c81a426b4",
          "transactionIndex": "0x5a",
          "logIndex": "0x124",
          "removed": false
        }
      ],
      "logsBloom": "0x00000000000000000000000000000000000000000000000000000000000000000000000000000000000000000000000000000000000000000000000000000000800000000000000000000008000000000000000000000000000000000000000000000000000000000000010000000000000000000800000000000010000000000000000000000000000000000000000000000000000000000000000000000000000000000000000000000000000000000000800000000000008000000000000000000002000000000000000000000000000000000000000000000000000000000000000000000000000000000002000000000000000000000000000000000000",
      "type": "0x2",
      "transactionHash": "0xc277c5c5fdbe35998150191afbb6a09ec1dd4fe0f0e98a9d213a8b2c81a426b4",
      "transactionIndex": "0x5a",
      "blockHash": "0xc93e74a62f56ffcfcfe722be7ef6991eb8c4203d0a139f820301c7b95210154a",
      "blockNumber": "0x260532d",
      "gasUsed": "0x3174f",
      "effectiveGasPrice": "0xaad25",
      "blobGasUsed": "0xaf32",
      "from": "0x72d31adec4a82bcf8bd20c685b8c350a0f5953bf",
      "to": "0xb7b1fce90f7b56cc9a98f776ee8a20e8c82db73c",
      "contractAddress": null,
      "daFootprintGasScalar": "0x145",
      "l1BaseFeeScalar": "0x8dd",
      "l1BlobBaseFee": "0x1ffa56",
      "l1BlobBaseFeeScalar": "0x101c12",
      "l1Fee": "0x2c4eb5e7",
      "l1GasPrice": "0x2398538",
      "l1GasUsed": "0x8ae"
    },
    {
      "status": "0x1",
      "cumulativeGasUsed": "0x106cade",
      "logs": [
        {
          "address": "0x86faa99eb3cbd46bb53807fcd93b8a08d70116e0",
          "topics": [
            "0xddf252ad1be2c89b69c2b068fc378daa952ba7f163c4a11628f55a4df523b3ef",
            "0x00000000000000000000000072d31adec4a82bcf8bd20c685b8c350a0f5953bf",
            "0x00000000000000000000000072d31adec4a82bcf8bd20c685b8c350a0f5953bf"
          ],
          "data": "0x00000000000000000000000000000000000000000000001b1ae4d6e2ef500000",
          "blockHash": "0xc93e74a62f56ffcfcfe722be7ef6991eb8c4203d0a139f820301c7b95210154a",
          "blockNumber": "0x260532d",
          "blockTimestamp": "0x694b033d",
          "transactionHash": "0xafe0908e301166f90b2e6796ffd5d0d7d0b828d65edeeae833f91ff41ad1aa1c",
          "transactionIndex": "0x5b",
          "logIndex": "0x125",
          "removed": false
        }
      ],
      "logsBloom": "0x00000000000000000000000000000000000000000000000000000000000000000000000000000000000000000000000000000000000000000000000000000000800000000000000000000008000000000000000000000000000000000000000000000000000000000000010000000000000000000800000000000010000000000000000000000000000000000000000000000000000000000000000000000000000000000000000000000000000000000000800000000000008000000000000000000002000000000000000000000000000000000000000000000000000000000000000000000000000000000002000000000000000000000000000000000000",
      "type": "0x2",
      "transactionHash": "0xafe0908e301166f90b2e6796ffd5d0d7d0b828d65edeeae833f91ff41ad1aa1c",
      "transactionIndex": "0x5b",
      "blockHash": "0xc93e74a62f56ffcfcfe722be7ef6991eb8c4203d0a139f820301c7b95210154a",
      "blockNumber": "0x260532d",
      "gasUsed": "0x31737",
      "effectiveGasPrice": "0xaad25",
      "blobGasUsed": "0xaf32",
      "from": "0x72d31adec4a82bcf8bd20c685b8c350a0f5953bf",
      "to": "0xb7b1fce90f7b56cc9a98f776ee8a20e8c82db73c",
      "contractAddress": null,
      "daFootprintGasScalar": "0x145",
      "l1BaseFeeScalar": "0x8dd",
      "l1BlobBaseFee": "0x1ffa56",
      "l1BlobBaseFeeScalar": "0x101c12",
      "l1Fee": "0x2c4eb5e7",
      "l1GasPrice": "0x2398538",
      "l1GasUsed": "0x8a1"
    },
    {
      "status": "0x1",
      "cumulativeGasUsed": "0x109e215",
      "logs": [
        {
          "address": "0x86faa99eb3cbd46bb53807fcd93b8a08d70116e0",
          "topics": [
            "0xddf252ad1be2c89b69c2b068fc378daa952ba7f163c4a11628f55a4df523b3ef",
            "0x00000000000000000000000072d31adec4a82bcf8bd20c685b8c350a0f5953bf",
            "0x00000000000000000000000072d31adec4a82bcf8bd20c685b8c350a0f5953bf"
          ],
          "data": "0x00000000000000000000000000000000000000000000001b1ae4d6e2ef500000",
          "blockHash": "0xc93e74a62f56ffcfcfe722be7ef6991eb8c4203d0a139f820301c7b95210154a",
          "blockNumber": "0x260532d",
          "blockTimestamp": "0x694b033d",
          "transactionHash": "0xdeb91f36682ed7c151c9b4c2a00b01e63a8acf6c4dd3a7f80948d834932dfa5e",
          "transactionIndex": "0x5c",
          "logIndex": "0x126",
          "removed": false
        }
      ],
      "logsBloom": "0x00000000000000000000000000000000000000000000000000000000000000000000000000000000000000000000000000000000000000000000000000000000800000000000000000000008000000000000000000000000000000000000000000000000000000000000010000000000000000000800000000000010000000000000000000000000000000000000000000000000000000000000000000000000000000000000000000000000000000000000800000000000008000000000000000000002000000000000000000000000000000000000000000000000000000000000000000000000000000000002000000000000000000000000000000000000",
      "type": "0x2",
      "transactionHash": "0xdeb91f36682ed7c151c9b4c2a00b01e63a8acf6c4dd3a7f80948d834932dfa5e",
      "transactionIndex": "0x5c",
      "blockHash": "0xc93e74a62f56ffcfcfe722be7ef6991eb8c4203d0a139f820301c7b95210154a",
      "blockNumber": "0x260532d",
      "gasUsed": "0x31737",
      "effectiveGasPrice": "0xaad25",
      "blobGasUsed": "0xaa1e",
      "from": "0x72d31adec4a82bcf8bd20c685b8c350a0f5953bf",
      "to": "0xb7b1fce90f7b56cc9a98f776ee8a20e8c82db73c",
      "contractAddress": null,
      "daFootprintGasScalar": "0x145",
      "l1BaseFeeScalar": "0x8dd",
      "l1BlobBaseFee": "0x1ffa56",
      "l1BlobBaseFeeScalar": "0x101c12",
      "l1Fee": "0x2c4eb5e7",
      "l1GasPrice": "0x2398538",
      "l1GasUsed": "0x86c"
    },
    {
      "status": "0x1",
      "cumulativeGasUsed": "0x10c4b21",
      "logs": [
        {
          "address": "0x86faa99eb3cbd46bb53807fcd93b8a08d70116e0",
          "topics": [
            "0xddf252ad1be2c89b69c2b068fc378daa952ba7f163c4a11628f55a4df523b3ef",
            "0x00000000000000000000000072d31adec4a82bcf8bd20c685b8c350a0f5953bf",
            "0x00000000000000000000000072d31adec4a82bcf8bd20c685b8c350a0f5953bf"
          ],
          "data": "0x00000000000000000000000000000000000000000000001b1ae4d6e2ef500000",
          "blockHash": "0xc93e74a62f56ffcfcfe722be7ef6991eb8c4203d0a139f820301c7b95210154a",
          "blockNumber": "0x260532d",
          "blockTimestamp": "0x694b033d",
          "transactionHash": "0xce994a3de7f0bd5cf6016bba798fadb2b3cfdeacaf9296bdbe78e21f4652ccf8",
          "transactionIndex": "0x5d",
          "logIndex": "0x127",
          "removed": false
        }
      ],
      "logsBloom": "0x00000000000000000000000000000000000000000000000000000000000000000000000000000000000000000000000000000000000000000000000000000000800000000000000000000008000000000000000000000000000000000000000000000000000000000000010000000000000000000800000000000010000000000000000000000000000000000000000000000000000000000000000000000000000000000000000000000000000000000000800000000000008000000000000000000002000000000000000000000000000000000000000000000000000000000000000000000000000000000002000000000000000000000000000000000000",
      "type": "0x2",
      "transactionHash": "0xce994a3de7f0bd5cf6016bba798fadb2b3cfdeacaf9296bdbe78e21f4652ccf8",
      "transactionIndex": "0x5d",
      "blockHash": "0xc93e74a62f56ffcfcfe722be7ef6991eb8c4203d0a139f820301c7b95210154a",
      "blockNumber": "0x260532d",
      "gasUsed": "0x2690c",
      "effectiveGasPrice": "0xaad25",
      "blobGasUsed": "0xa3c5",
      "from": "0x72d31adec4a82bcf8bd20c685b8c350a0f5953bf",
      "to": "0xb7b1fce90f7b56cc9a98f776ee8a20e8c82db73c",
      "contractAddress": null,
      "daFootprintGasScalar": "0x145",
      "l1BaseFeeScalar": "0x8dd",
      "l1BlobBaseFee": "0x1ffa56",
      "l1BlobBaseFeeScalar": "0x101c12",
      "l1Fee": "0x2c4eb5e7",
      "l1GasPrice": "0x2398538",
      "l1GasUsed": "0x81b"
    },
    {
      "status": "0x1",
      "cumulativeGasUsed": "0x10f6258",
      "logs": [
        {
          "address": "0x86faa99eb3cbd46bb53807fcd93b8a08d70116e0",
          "topics": [
            "0xddf252ad1be2c89b69c2b068fc378daa952ba7f163c4a11628f55a4df523b3ef",
            "0x00000000000000000000000072d31adec4a82bcf8bd20c685b8c350a0f5953bf",
            "0x00000000000000000000000072d31adec4a82bcf8bd20c685b8c350a0f5953bf"
          ],
          "data": "0x00000000000000000000000000000000000000000000001b1ae4d6e2ef500000",
          "blockHash": "0xc93e74a62f56ffcfcfe722be7ef6991eb8c4203d0a139f820301c7b95210154a",
          "blockNumber": "0x260532d",
          "blockTimestamp": "0x694b033d",
          "transactionHash": "0xe3c6f59b59ecba049194a7c476a6b974532fb3f850553a83f3d64aa8e1858690",
          "transactionIndex": "0x5e",
          "logIndex": "0x128",
          "removed": false
        }
      ],
      "logsBloom": "0x00000000000000000000000000000000000000000000000000000000000000000000000000000000000000000000000000000000000000000000000000000000800000000000000000000008000000000000000000000000000000000000000000000000000000000000010000000000000000000800000000000010000000000000000000000000000000000000000000000000000000000000000000000000000000000000000000000000000000000000800000000000008000000000000000000002000000000000000000000000000000000000000000000000000000000000000000000000000000000002000000000000000000000000000000000000",
      "type": "0x2",
      "transactionHash": "0xe3c6f59b59ecba049194a7c476a6b974532fb3f850553a83f3d64aa8e1858690",
      "transactionIndex": "0x5e",
      "blockHash": "0xc93e74a62f56ffcfcfe722be7ef6991eb8c4203d0a139f820301c7b95210154a",
      "blockNumber": "0x260532d",
      "gasUsed": "0x31737",
      "effectiveGasPrice": "0xaad25",
      "blobGasUsed": "0xaded",
      "from": "0x72d31adec4a82bcf8bd20c685b8c350a0f5953bf",
      "to": "0xb7b1fce90f7b56cc9a98f776ee8a20e8c82db73c",
      "contractAddress": null,
      "daFootprintGasScalar": "0x145",
      "l1BaseFeeScalar": "0x8dd",
      "l1BlobBaseFee": "0x1ffa56",
      "l1BlobBaseFeeScalar": "0x101c12",
      "l1Fee": "0x189029d3",
      "l1GasPrice": "0x2398538",
      "l1GasUsed": "0x894"
    },
    {
      "status": "0x1",
      "cumulativeGasUsed": "0x111cb7c",
      "logs": [
        {
          "address": "0x86faa99eb3cbd46bb53807fcd93b8a08d70116e0",
          "topics": [
            "0xddf252ad1be2c89b69c2b068fc378daa952ba7f163c4a11628f55a4df523b3ef",
            "0x00000000000000000000000072d31adec4a82bcf8bd20c685b8c350a0f5953bf",
            "0x00000000000000000000000072d31adec4a82bcf8bd20c685b8c350a0f5953bf"
          ],
          "data": "0x00000000000000000000000000000000000000000000001b1ae4d6e2ef500000",
          "blockHash": "0xc93e74a62f56ffcfcfe722be7ef6991eb8c4203d0a139f820301c7b95210154a",
          "blockNumber": "0x260532d",
          "blockTimestamp": "0x694b033d",
          "transactionHash": "0x8acbcd0d6228951dc4aab8b31d853ca425101c285ea8ede6a022b856ba6c01fb",
          "transactionIndex": "0x5f",
          "logIndex": "0x129",
          "removed": false
        }
      ],
      "logsBloom": "0x00000000000000000000000000000000000000000000000000000000000000000000000000000000000000000000000000000000000000000000000000000000800000000000000000000008000000000000000000000000000000000000000000000000000000000000010000000000000000000800000000000010000000000000000000000000000000000000000000000000000000000000000000000000000000000000000000000000000000000000800000000000008000000000000000000002000000000000000000000000000000000000000000000000000000000000000000000000000000000002000000000000000000000000000000000000",
      "type": "0x2",
      "transactionHash": "0x8acbcd0d6228951dc4aab8b31d853ca425101c285ea8ede6a022b856ba6c01fb",
      "transactionIndex": "0x5f",
      "blockHash": "0xc93e74a62f56ffcfcfe722be7ef6991eb8c4203d0a139f820301c7b95210154a",
      "blockNumber": "0x260532d",
      "gasUsed": "0x26924",
      "effectiveGasPrice": "0xaad25",
      "blobGasUsed": "0xa64f",
      "from": "0x72d31adec4a82bcf8bd20c685b8c350a0f5953bf",
      "to": "0xb7b1fce90f7b56cc9a98f776ee8a20e8c82db73c",
      "contractAddress": null,
      "daFootprintGasScalar": "0x145",
      "l1BaseFeeScalar": "0x8dd",
      "l1BlobBaseFee": "0x1ffa56",
      "l1BlobBaseFeeScalar": "0x101c12",
      "l1Fee": "0x2c4eb5e7",
      "l1GasPrice": "0x2398538",
      "l1GasUsed": "0x836"
    },
    {
      "status": "0x1",
      "cumulativeGasUsed": "0x114e2e3",
      "logs": [
        {
          "address": "0x86faa99eb3cbd46bb53807fcd93b8a08d70116e0",
          "topics": [
            "0xddf252ad1be2c89b69c2b068fc378daa952ba7f163c4a11628f55a4df523b3ef",
            "0x00000000000000000000000072d31adec4a82bcf8bd20c685b8c350a0f5953bf",
            "0x00000000000000000000000072d31adec4a82bcf8bd20c685b8c350a0f5953bf"
          ],
          "data": "0x00000000000000000000000000000000000000000000001b1ae4d6e2ef500000",
          "blockHash": "0xc93e74a62f56ffcfcfe722be7ef6991eb8c4203d0a139f820301c7b95210154a",
          "blockNumber": "0x260532d",
          "blockTimestamp": "0x694b033d",
          "transactionHash": "0x10f76ce7bc2e162cfc2c0191fb7f2fa5c002df4f8a786d6fb43e662f160e3649",
          "transactionIndex": "0x60",
          "logIndex": "0x12a",
          "removed": false
        }
      ],
      "logsBloom": "0x00000000000000000000000000000000000000000000000000000000000000000000000000000000000000000000000000000000000000000000000000000000800000000000000000000008000000000000000000000000000000000000000000000000000000000000010000000000000000000800000000000010000000000000000000000000000000000000000000000000000000000000000000000000000000000000000000000000000000000000800000000000008000000000000000000002000000000000000000000000000000000000000000000000000000000000000000000000000000000002000000000000000000000000000000000000",
      "type": "0x2",
      "transactionHash": "0x10f76ce7bc2e162cfc2c0191fb7f2fa5c002df4f8a786d6fb43e662f160e3649",
      "transactionIndex": "0x60",
      "blockHash": "0xc93e74a62f56ffcfcfe722be7ef6991eb8c4203d0a139f820301c7b95210154a",
      "blockNumber": "0x260532d",
      "gasUsed": "0x31767",
      "effectiveGasPrice": "0xaad25",
      "blobGasUsed": "0xb301",
      "from": "0x72d31adec4a82bcf8bd20c685b8c350a0f5953bf",
      "to": "0xb7b1fce90f7b56cc9a98f776ee8a20e8c82db73c",
      "contractAddress": null,
      "daFootprintGasScalar": "0x145",
      "l1BaseFeeScalar": "0x8dd",
      "l1BlobBaseFee": "0x1ffa56",
      "l1BlobBaseFeeScalar": "0x101c12",
      "l1Fee": "0x189029d3",
      "l1GasPrice": "0x2398538",
      "l1GasUsed": "0x8d7"
    },
    {
      "status": "0x1",
      "cumulativeGasUsed": "0x1174bef",
      "logs": [
        {
          "address": "0x86faa99eb3cbd46bb53807fcd93b8a08d70116e0",
          "topics": [
            "0xddf252ad1be2c89b69c2b068fc378daa952ba7f163c4a11628f55a4df523b3ef",
            "0x00000000000000000000000072d31adec4a82bcf8bd20c685b8c350a0f5953bf",
            "0x00000000000000000000000072d31adec4a82bcf8bd20c685b8c350a0f5953bf"
          ],
          "data": "0x00000000000000000000000000000000000000000000001b1ae4d6e2ef500000",
          "blockHash": "0xc93e74a62f56ffcfcfe722be7ef6991eb8c4203d0a139f820301c7b95210154a",
          "blockNumber": "0x260532d",
          "blockTimestamp": "0x694b033d",
          "transactionHash": "0x49727ae9c83d9c797f0a4e7c18cad2f87317cdf5ceff3465b5df58d5344d2592",
          "transactionIndex": "0x61",
          "logIndex": "0x12b",
          "removed": false
        }
      ],
      "logsBloom": "0x00000000000000000000000000000000000000000000000000000000000000000000000000000000000000000000000000000000000000000000000000000000800000000000000000000008000000000000000000000000000000000000000000000000000000000000010000000000000000000800000000000010000000000000000000000000000000000000000000000000000000000000000000000000000000000000000000000000000000000000800000000000008000000000000000000002000000000000000000000000000000000000000000000000000000000000000000000000000000000002000000000000000000000000000000000000",
      "type": "0x2",
      "transactionHash": "0x49727ae9c83d9c797f0a4e7c18cad2f87317cdf5ceff3465b5df58d5344d2592",
      "transactionIndex": "0x61",
      "blockHash": "0xc93e74a62f56ffcfcfe722be7ef6991eb8c4203d0a139f820301c7b95210154a",
      "blockNumber": "0x260532d",
      "gasUsed": "0x2690c",
      "effectiveGasPrice": "0xaad25",
      "blobGasUsed": "0xa64f",
      "from": "0x72d31adec4a82bcf8bd20c685b8c350a0f5953bf",
      "to": "0xb7b1fce90f7b56cc9a98f776ee8a20e8c82db73c",
      "contractAddress": null,
      "daFootprintGasScalar": "0x145",
      "l1BaseFeeScalar": "0x8dd",
      "l1BlobBaseFee": "0x1ffa56",
      "l1BlobBaseFeeScalar": "0x101c12",
      "l1Fee": "0x2c4eb5e7",
      "l1GasPrice": "0x2398538",
      "l1GasUsed": "0x836"
    },
    {
      "status": "0x1",
      "cumulativeGasUsed": "0x119b4fb",
      "logs": [
        {
          "address": "0x86faa99eb3cbd46bb53807fcd93b8a08d70116e0",
          "topics": [
            "0xddf252ad1be2c89b69c2b068fc378daa952ba7f163c4a11628f55a4df523b3ef",
            "0x00000000000000000000000072d31adec4a82bcf8bd20c685b8c350a0f5953bf",
            "0x00000000000000000000000072d31adec4a82bcf8bd20c685b8c350a0f5953bf"
          ],
          "data": "0x00000000000000000000000000000000000000000000001b1ae4d6e2ef500000",
          "blockHash": "0xc93e74a62f56ffcfcfe722be7ef6991eb8c4203d0a139f820301c7b95210154a",
          "blockNumber": "0x260532d",
          "blockTimestamp": "0x694b033d",
          "transactionHash": "0x15139a33b1cb1d5cbebc5b5a0184c3dfaecbe1e7c79065a13f870fa2c4f23924",
          "transactionIndex": "0x62",
          "logIndex": "0x12c",
          "removed": false
        }
      ],
      "logsBloom": "0x00000000000000000000000000000000000000000000000000000000000000000000000000000000000000000000000000000000000000000000000000000000800000000000000000000008000000000000000000000000000000000000000000000000000000000000010000000000000000000800000000000010000000000000000000000000000000000000000000000000000000000000000000000000000000000000000000000000000000000000800000000000008000000000000000000002000000000000000000000000000000000000000000000000000000000000000000000000000000000002000000000000000000000000000000000000",
      "type": "0x2",
      "transactionHash": "0x15139a33b1cb1d5cbebc5b5a0184c3dfaecbe1e7c79065a13f870fa2c4f23924",
      "transactionIndex": "0x62",
      "blockHash": "0xc93e74a62f56ffcfcfe722be7ef6991eb8c4203d0a139f820301c7b95210154a",
      "blockNumber": "0x260532d",
      "gasUsed": "0x2690c",
      "effectiveGasPrice": "0xaad25",
      "blobGasUsed": "0xa64f",
      "from": "0x72d31adec4a82bcf8bd20c685b8c350a0f5953bf",
      "to": "0xb7b1fce90f7b56cc9a98f776ee8a20e8c82db73c",
      "contractAddress": null,
      "daFootprintGasScalar": "0x145",
      "l1BaseFeeScalar": "0x8dd",
      "l1BlobBaseFee": "0x1ffa56",
      "l1BlobBaseFeeScalar": "0x101c12",
      "l1Fee": "0x2c4eb5e7",
      "l1GasPrice": "0x2398538",
      "l1GasUsed": "0x836"
    },
    {
      "status": "0x1",
      "cumulativeGasUsed": "0x11c1e1f",
      "logs": [
        {
          "address": "0x86faa99eb3cbd46bb53807fcd93b8a08d70116e0",
          "topics": [
            "0xddf252ad1be2c89b69c2b068fc378daa952ba7f163c4a11628f55a4df523b3ef",
            "0x00000000000000000000000072d31adec4a82bcf8bd20c685b8c350a0f5953bf",
            "0x00000000000000000000000072d31adec4a82bcf8bd20c685b8c350a0f5953bf"
          ],
          "data": "0x00000000000000000000000000000000000000000000001b1ae4d6e2ef500000",
          "blockHash": "0xc93e74a62f56ffcfcfe722be7ef6991eb8c4203d0a139f820301c7b95210154a",
          "blockNumber": "0x260532d",
          "blockTimestamp": "0x694b033d",
          "transactionHash": "0x2ee0fd9201ef62208a79b417b3077646fcad70d90ef07fd7dae3c7b55a47e016",
          "transactionIndex": "0x63",
          "logIndex": "0x12d",
          "removed": false
        }
      ],
      "logsBloom": "0x00000000000000000000000000000000000000000000000000000000000000000000000000000000000000000000000000000000000000000000000000000000800000000000000000000008000000000000000000000000000000000000000000000000000000000000010000000000000000000800000000000010000000000000000000000000000000000000000000000000000000000000000000000000000000000000000000000000000000000000800000000000008000000000000000000002000000000000000000000000000000000000000000000000000000000000000000000000000000000002000000000000000000000000000000000000",
      "type": "0x2",
      "transactionHash": "0x2ee0fd9201ef62208a79b417b3077646fcad70d90ef07fd7dae3c7b55a47e016",
      "transactionIndex": "0x63",
      "blockHash": "0xc93e74a62f56ffcfcfe722be7ef6991eb8c4203d0a139f820301c7b95210154a",
      "blockNumber": "0x260532d",
      "gasUsed": "0x26924",
      "effectiveGasPrice": "0xaad25",
      "blobGasUsed": "0xa794",
      "from": "0x72d31adec4a82bcf8bd20c685b8c350a0f5953bf",
      "to": "0xb7b1fce90f7b56cc9a98f776ee8a20e8c82db73c",
      "contractAddress": null,
      "daFootprintGasScalar": "0x145",
      "l1BaseFeeScalar": "0x8dd",
      "l1BlobBaseFee": "0x1ffa56",
      "l1BlobBaseFeeScalar": "0x101c12",
      "l1Fee": "0x2c4eb5e7",
      "l1GasPrice": "0x2398538",
      "l1GasUsed": "0x843"
    },
    {
      "status": "0x1",
      "cumulativeGasUsed": "0x11e8713",
      "logs": [
        {
          "address": "0x86faa99eb3cbd46bb53807fcd93b8a08d70116e0",
          "topics": [
            "0xddf252ad1be2c89b69c2b068fc378daa952ba7f163c4a11628f55a4df523b3ef",
            "0x00000000000000000000000072d31adec4a82bcf8bd20c685b8c350a0f5953bf",
            "0x00000000000000000000000072d31adec4a82bcf8bd20c685b8c350a0f5953bf"
          ],
          "data": "0x00000000000000000000000000000000000000000000001b1ae4d6e2ef500000",
          "blockHash": "0xc93e74a62f56ffcfcfe722be7ef6991eb8c4203d0a139f820301c7b95210154a",
          "blockNumber": "0x260532d",
          "blockTimestamp": "0x694b033d",
          "transactionHash": "0x1d93dafb3c38c24bf57ce9b065d2ff7a97abdf90c214ec80bea84854cf5a5fa6",
          "transactionIndex": "0x64",
          "logIndex": "0x12e",
          "removed": false
        }
      ],
      "logsBloom": "0x00000000000000000000000000000000000000000000000000000000000000000000000000000000000000000000000000000000000000000000000000000000800000000000000000000008000000000000000000000000000000000000000000000000000000000000010000000000000000000800000000000010000000000000000000000000000000000000000000000000000000000000000000000000000000000000000000000000000000000000800000000000008000000000000000000002000000000000000000000000000000000000000000000000000000000000000000000000000000000002000000000000000000000000000000000000",
      "type": "0x2",
      "transactionHash": "0x1d93dafb3c38c24bf57ce9b065d2ff7a97abdf90c214ec80bea84854cf5a5fa6",
      "transactionIndex": "0x64",
      "blockHash": "0xc93e74a62f56ffcfcfe722be7ef6991eb8c4203d0a139f820301c7b95210154a",
      "blockNumber": "0x260532d",
      "gasUsed": "0x268f4",
      "effectiveGasPrice": "0xaad25",
      "blobGasUsed": "0xa280",
      "from": "0x72d31adec4a82bcf8bd20c685b8c350a0f5953bf",
      "to": "0xb7b1fce90f7b56cc9a98f776ee8a20e8c82db73c",
      "contractAddress": null,
      "daFootprintGasScalar": "0x145",
      "l1BaseFeeScalar": "0x8dd",
      "l1BlobBaseFee": "0x1ffa56",
      "l1BlobBaseFeeScalar": "0x101c12",
      "l1Fee": "0x2c4eb5e7",
      "l1GasPrice": "0x2398538",
      "l1GasUsed": "0x80e"
    },
    {
      "status": "0x1",
      "cumulativeGasUsed": "0x1219e4a",
      "logs": [
        {
          "address": "0x86faa99eb3cbd46bb53807fcd93b8a08d70116e0",
          "topics": [
            "0xddf252ad1be2c89b69c2b068fc378daa952ba7f163c4a11628f55a4df523b3ef",
            "0x00000000000000000000000072d31adec4a82bcf8bd20c685b8c350a0f5953bf",
            "0x00000000000000000000000072d31adec4a82bcf8bd20c685b8c350a0f5953bf"
          ],
          "data": "0x00000000000000000000000000000000000000000000001b1ae4d6e2ef500000",
          "blockHash": "0xc93e74a62f56ffcfcfe722be7ef6991eb8c4203d0a139f820301c7b95210154a",
          "blockNumber": "0x260532d",
          "blockTimestamp": "0x694b033d",
          "transactionHash": "0xb93a9ad98dadbb2af2059d2f338664ca0a6dc792aeebe90ca25ea6c700ed0c0e",
          "transactionIndex": "0x65",
          "logIndex": "0x12f",
          "removed": false
        }
      ],
      "logsBloom": "0x00000000000000000000000000000000000000000000000000000000000000000000000000000000000000000000000000000000000000000000000000000000800000000000000000000008000000000000000000000000000000000000000000000000000000000000010000000000000000000800000000000010000000000000000000000000000000000000000000000000000000000000000000000000000000000000000000000000000000000000800000000000008000000000000000000002000000000000000000000000000000000000000000000000000000000000000000000000000000000002000000000000000000000000000000000000",
      "type": "0x2",
      "transactionHash": "0xb93a9ad98dadbb2af2059d2f338664ca0a6dc792aeebe90ca25ea6c700ed0c0e",
      "transactionIndex": "0x65",
      "blockHash": "0xc93e74a62f56ffcfcfe722be7ef6991eb8c4203d0a139f820301c7b95210154a",
      "blockNumber": "0x260532d",
      "gasUsed": "0x31737",
      "effectiveGasPrice": "0xaad25",
      "blobGasUsed": "0xaf32",
      "from": "0x72d31adec4a82bcf8bd20c685b8c350a0f5953bf",
      "to": "0xb7b1fce90f7b56cc9a98f776ee8a20e8c82db73c",
      "contractAddress": null,
      "daFootprintGasScalar": "0x145",
      "l1BaseFeeScalar": "0x8dd",
      "l1BlobBaseFee": "0x1ffa56",
      "l1BlobBaseFeeScalar": "0x101c12",
      "l1Fee": "0x189029d3",
      "l1GasPrice": "0x2398538",
      "l1GasUsed": "0x8a1"
    },
    {
      "status": "0x1",
      "cumulativeGasUsed": "0x1245e60",
      "logs": [
        {
          "address": "0x86faa99eb3cbd46bb53807fcd93b8a08d70116e0",
          "topics": [
            "0xddf252ad1be2c89b69c2b068fc378daa952ba7f163c4a11628f55a4df523b3ef",
            "0x00000000000000000000000072d31adec4a82bcf8bd20c685b8c350a0f5953bf",
            "0x00000000000000000000000072d31adec4a82bcf8bd20c685b8c350a0f5953bf"
          ],
          "data": "0x00000000000000000000000000000000000000000000001b1ae4d6e2ef500000",
          "blockHash": "0xc93e74a62f56ffcfcfe722be7ef6991eb8c4203d0a139f820301c7b95210154a",
          "blockNumber": "0x260532d",
          "blockTimestamp": "0x694b033d",
          "transactionHash": "0xcf95fc5da2dddebd5920918783b19f28d651850b09fd67e1faac4690e003ffad",
          "transactionIndex": "0x66",
          "logIndex": "0x130",
          "removed": false
        }
      ],
      "logsBloom": "0x00000000000000000000000000000000000000000000000000000000000000000000000000000000000000000000000000000000000000000000000000000000800000000000000000000008000000000000000000000000000000000000000000000000000000000000010000000000000000000800000000000010000000000000000000000000000000000000000000000000000000000000000000000000000000000000000000000000000000000000800000000000008000000000000000000002000000000000000000000000000000000000000000000000000000000000000000000000000000000002000000000000000000000000000000000000",
      "type": "0x2",
      "transactionHash": "0xcf95fc5da2dddebd5920918783b19f28d651850b09fd67e1faac4690e003ffad",
      "transactionIndex": "0x66",
      "blockHash": "0xc93e74a62f56ffcfcfe722be7ef6991eb8c4203d0a139f820301c7b95210154a",
      "blockNumber": "0x260532d",
      "gasUsed": "0x2c016",
      "effectiveGasPrice": "0xaad25",
      "blobGasUsed": "0xa3c5",
      "from": "0x72d31adec4a82bcf8bd20c685b8c350a0f5953bf",
      "to": "0xb7b1fce90f7b56cc9a98f776ee8a20e8c82db73c",
      "contractAddress": null,
      "daFootprintGasScalar": "0x145",
      "l1BaseFeeScalar": "0x8dd",
      "l1BlobBaseFee": "0x1ffa56",
      "l1BlobBaseFeeScalar": "0x101c12",
      "l1Fee": "0x2c4eb5e7",
      "l1GasPrice": "0x2398538",
      "l1GasUsed": "0x81b"
    },
    {
      "status": "0x1",
      "cumulativeGasUsed": "0x126c76c",
      "logs": [
        {
          "address": "0x86faa99eb3cbd46bb53807fcd93b8a08d70116e0",
          "topics": [
            "0xddf252ad1be2c89b69c2b068fc378daa952ba7f163c4a11628f55a4df523b3ef",
            "0x00000000000000000000000072d31adec4a82bcf8bd20c685b8c350a0f5953bf",
            "0x00000000000000000000000072d31adec4a82bcf8bd20c685b8c350a0f5953bf"
          ],
          "data": "0x00000000000000000000000000000000000000000000001b1ae4d6e2ef500000",
          "blockHash": "0xc93e74a62f56ffcfcfe722be7ef6991eb8c4203d0a139f820301c7b95210154a",
          "blockNumber": "0x260532d",
          "blockTimestamp": "0x694b033d",
          "transactionHash": "0x7a23671a24f2afeb288d7fa5ca2a923f307c1ad06c358c66fcf10a79b110139c",
          "transactionIndex": "0x67",
          "logIndex": "0x131",
          "removed": false
        }
      ],
      "logsBloom": "0x00000000000000000000000000000000000000000000000000000000000000000000000000000000000000000000000000000000000000000000000000000000800000000000000000000008000000000000000000000000000000000000000000000000000000000000010000000000000000000800000000000010000000000000000000000000000000000000000000000000000000000000000000000000000000000000000000000000000000000000800000000000008000000000000000000002000000000000000000000000000000000000000000000000000000000000000000000000000000000002000000000000000000000000000000000000",
      "type": "0x2",
      "transactionHash": "0x7a23671a24f2afeb288d7fa5ca2a923f307c1ad06c358c66fcf10a79b110139c",
      "transactionIndex": "0x67",
      "blockHash": "0xc93e74a62f56ffcfcfe722be7ef6991eb8c4203d0a139f820301c7b95210154a",
      "blockNumber": "0x260532d",
      "gasUsed": "0x2690c",
      "effectiveGasPrice": "0xaad25",
      "blobGasUsed": "0xa64f",
      "from": "0x72d31adec4a82bcf8bd20c685b8c350a0f5953bf",
      "to": "0xb7b1fce90f7b56cc9a98f776ee8a20e8c82db73c",
      "contractAddress": null,
      "daFootprintGasScalar": "0x145",
      "l1BaseFeeScalar": "0x8dd",
      "l1BlobBaseFee": "0x1ffa56",
      "l1BlobBaseFeeScalar": "0x101c12",
      "l1Fee": "0x2c4eb5e7",
      "l1GasPrice": "0x2398538",
      "l1GasUsed": "0x836"
    },
    {
      "status": "0x1",
      "cumulativeGasUsed": "0x1293060",
      "logs": [
        {
          "address": "0x86faa99eb3cbd46bb53807fcd93b8a08d70116e0",
          "topics": [
            "0xddf252ad1be2c89b69c2b068fc378daa952ba7f163c4a11628f55a4df523b3ef",
            "0x00000000000000000000000072d31adec4a82bcf8bd20c685b8c350a0f5953bf",
            "0x00000000000000000000000072d31adec4a82bcf8bd20c685b8c350a0f5953bf"
          ],
          "data": "0x00000000000000000000000000000000000000000000001b1ae4d6e2ef500000",
          "blockHash": "0xc93e74a62f56ffcfcfe722be7ef6991eb8c4203d0a139f820301c7b95210154a",
          "blockNumber": "0x260532d",
          "blockTimestamp": "0x694b033d",
          "transactionHash": "0xcec85484e31e113844bec78bc69113d3412b7172050ec8b04436eb4447f9566c",
          "transactionIndex": "0x68",
          "logIndex": "0x132",
          "removed": false
        }
      ],
      "logsBloom": "0x00000000000000000000000000000000000000000000000000000000000000000000000000000000000000000000000000000000000000000000000000000000800000000000000000000008000000000000000000000000000000000000000000000000000000000000010000000000000000000800000000000010000000000000000000000000000000000000000000000000000000000000000000000000000000000000000000000000000000000000800000000000008000000000000000000002000000000000000000000000000000000000000000000000000000000000000000000000000000000002000000000000000000000000000000000000",
      "type": "0x2",
      "transactionHash": "0xcec85484e31e113844bec78bc69113d3412b7172050ec8b04436eb4447f9566c",
      "transactionIndex": "0x68",
      "blockHash": "0xc93e74a62f56ffcfcfe722be7ef6991eb8c4203d0a139f820301c7b95210154a",
      "blockNumber": "0x260532d",
      "gasUsed": "0x268f4",
      "effectiveGasPrice": "0xaad25",
      "blobGasUsed": "0xa13b",
      "from": "0x72d31adec4a82bcf8bd20c685b8c350a0f5953bf",
      "to": "0xb7b1fce90f7b56cc9a98f776ee8a20e8c82db73c",
      "contractAddress": null,
      "daFootprintGasScalar": "0x145",
      "l1BaseFeeScalar": "0x8dd",
      "l1BlobBaseFee": "0x1ffa56",
      "l1BlobBaseFeeScalar": "0x101c12",
      "l1Fee": "0x2c4eb5e7",
      "l1GasPrice": "0x2398538",
      "l1GasUsed": "0x7f3"
    },
    {
      "status": "0x1",
      "cumulativeGasUsed": "0x12b9984",
      "logs": [
        {
          "address": "0x86faa99eb3cbd46bb53807fcd93b8a08d70116e0",
          "topics": [
            "0xddf252ad1be2c89b69c2b068fc378daa952ba7f163c4a11628f55a4df523b3ef",
            "0x00000000000000000000000072d31adec4a82bcf8bd20c685b8c350a0f5953bf",
            "0x00000000000000000000000072d31adec4a82bcf8bd20c685b8c350a0f5953bf"
          ],
          "data": "0x00000000000000000000000000000000000000000000001b1ae4d6e2ef500000",
          "blockHash": "0xc93e74a62f56ffcfcfe722be7ef6991eb8c4203d0a139f820301c7b95210154a",
          "blockNumber": "0x260532d",
          "blockTimestamp": "0x694b033d",
          "transactionHash": "0x1ab71f8a48071c520f96477c11666c291d3a358f2a6592186f0c9bcf1541280c",
          "transactionIndex": "0x69",
          "logIndex": "0x133",
          "removed": false
        }
      ],
      "logsBloom": "0x00000000000000000000000000000000000000000000000000000000000000000000000000000000000000000000000000000000000000000000000000000000800000000000000000000008000000000000000000000000000000000000000000000000000000000000010000000000000000000800000000000010000000000000000000000000000000000000000000000000000000000000000000000000000000000000000000000000000000000000800000000000008000000000000000000002000000000000000000000000000000000000000000000000000000000000000000000000000000000002000000000000000000000000000000000000",
      "type": "0x2",
      "transactionHash": "0x1ab71f8a48071c520f96477c11666c291d3a358f2a6592186f0c9bcf1541280c",
      "transactionIndex": "0x69",
      "blockHash": "0xc93e74a62f56ffcfcfe722be7ef6991eb8c4203d0a139f820301c7b95210154a",
      "blockNumber": "0x260532d",
      "gasUsed": "0x26924",
      "effectiveGasPrice": "0xaad25",
      "blobGasUsed": "0xa64f",
      "from": "0x72d31adec4a82bcf8bd20c685b8c350a0f5953bf",
      "to": "0xb7b1fce90f7b56cc9a98f776ee8a20e8c82db73c",
      "contractAddress": null,
      "daFootprintGasScalar": "0x145",
      "l1BaseFeeScalar": "0x8dd",
      "l1BlobBaseFee": "0x1ffa56",
      "l1BlobBaseFeeScalar": "0x101c12",
      "l1Fee": "0x2c4eb5e7",
      "l1GasPrice": "0x2398538",
      "l1GasUsed": "0x836"
    },
    {
      "status": "0x1",
      "cumulativeGasUsed": "0x12eb0bb",
      "logs": [
        {
          "address": "0x86faa99eb3cbd46bb53807fcd93b8a08d70116e0",
          "topics": [
            "0xddf252ad1be2c89b69c2b068fc378daa952ba7f163c4a11628f55a4df523b3ef",
            "0x00000000000000000000000072d31adec4a82bcf8bd20c685b8c350a0f5953bf",
            "0x00000000000000000000000072d31adec4a82bcf8bd20c685b8c350a0f5953bf"
          ],
          "data": "0x00000000000000000000000000000000000000000000001b1ae4d6e2ef500000",
          "blockHash": "0xc93e74a62f56ffcfcfe722be7ef6991eb8c4203d0a139f820301c7b95210154a",
          "blockNumber": "0x260532d",
          "blockTimestamp": "0x694b033d",
          "transactionHash": "0x655cbf1514734c7a799369f90c20d5ed94437e54866d35c7349236d040150874",
          "transactionIndex": "0x6a",
          "logIndex": "0x134",
          "removed": false
        }
      ],
      "logsBloom": "0x00000000000000000000000000000000000000000000000000000000000000000000000000000000000000000000000000000000000000000000000000000000800000000000000000000008000000000000000000000000000000000000000000000000000000000000010000000000000000000800000000000010000000000000000000000000000000000000000000000000000000000000000000000000000000000000000000000000000000000000800000000000008000000000000000000002000000000000000000000000000000000000000000000000000000000000000000000000000000000002000000000000000000000000000000000000",
      "type": "0x2",
      "transactionHash": "0x655cbf1514734c7a799369f90c20d5ed94437e54866d35c7349236d040150874",
      "transactionIndex": "0x6a",
      "blockHash": "0xc93e74a62f56ffcfcfe722be7ef6991eb8c4203d0a139f820301c7b95210154a",
      "blockNumber": "0x260532d",
      "gasUsed": "0x31737",
      "effectiveGasPrice": "0xaad25",
      "blobGasUsed": "0xaded",
      "from": "0x72d31adec4a82bcf8bd20c685b8c350a0f5953bf",
      "to": "0xb7b1fce90f7b56cc9a98f776ee8a20e8c82db73c",
      "contractAddress": null,
      "daFootprintGasScalar": "0x145",
      "l1BaseFeeScalar": "0x8dd",
      "l1BlobBaseFee": "0x1ffa56",
      "l1BlobBaseFeeScalar": "0x101c12",
      "l1Fee": "0x2c4eb5e7",
      "l1GasPrice": "0x2398538",
      "l1GasUsed": "0x894"
    },
    {
      "status": "0x1",
      "cumulativeGasUsed": "0x131c80a",
      "logs": [
        {
          "address": "0x86faa99eb3cbd46bb53807fcd93b8a08d70116e0",
          "topics": [
            "0xddf252ad1be2c89b69c2b068fc378daa952ba7f163c4a11628f55a4df523b3ef",
            "0x00000000000000000000000072d31adec4a82bcf8bd20c685b8c350a0f5953bf",
            "0x00000000000000000000000072d31adec4a82bcf8bd20c685b8c350a0f5953bf"
          ],
          "data": "0x00000000000000000000000000000000000000000000001b1ae4d6e2ef500000",
          "blockHash": "0xc93e74a62f56ffcfcfe722be7ef6991eb8c4203d0a139f820301c7b95210154a",
          "blockNumber": "0x260532d",
          "blockTimestamp": "0x694b033d",
          "transactionHash": "0xbe20a38fe81df4421dfc70a220140754aa07c90b7b00a9d1eff02d392503c81d",
          "transactionIndex": "0x6b",
          "logIndex": "0x135",
          "removed": false
        }
      ],
      "logsBloom": "0x00000000000000000000000000000000000000000000000000000000000000000000000000000000000000000000000000000000000000000000000000000000800000000000000000000008000000000000000000000000000000000000000000000000000000000000010000000000000000000800000000000010000000000000000000000000000000000000000000000000000000000000000000000000000000000000000000000000000000000000800000000000008000000000000000000002000000000000000000000000000000000000000000000000000000000000000000000000000000000002000000000000000000000000000000000000",
      "type": "0x2",
      "transactionHash": "0xbe20a38fe81df4421dfc70a220140754aa07c90b7b00a9d1eff02d392503c81d",
      "transactionIndex": "0x6b",
      "blockHash": "0xc93e74a62f56ffcfcfe722be7ef6991eb8c4203d0a139f820301c7b95210154a",
      "blockNumber": "0x260532d",
      "gasUsed": "0x3174f",
      "effectiveGasPrice": "0xaad25",
      "blobGasUsed": "0xaca8",
      "from": "0x72d31adec4a82bcf8bd20c685b8c350a0f5953bf",
      "to": "0xb7b1fce90f7b56cc9a98f776ee8a20e8c82db73c",
      "contractAddress": null,
      "daFootprintGasScalar": "0x145",
      "l1BaseFeeScalar": "0x8dd",
      "l1BlobBaseFee": "0x1ffa56",
      "l1BlobBaseFeeScalar": "0x101c12",
      "l1Fee": "0x2c4eb5e7",
      "l1GasPrice": "0x2398538",
      "l1GasUsed": "0x886"
    },
    {
      "status": "0x1",
      "cumulativeGasUsed": "0x1348820",
      "logs": [
        {
          "address": "0x86faa99eb3cbd46bb53807fcd93b8a08d70116e0",
          "topics": [
            "0xddf252ad1be2c89b69c2b068fc378daa952ba7f163c4a11628f55a4df523b3ef",
            "0x00000000000000000000000072d31adec4a82bcf8bd20c685b8c350a0f5953bf",
            "0x00000000000000000000000072d31adec4a82bcf8bd20c685b8c350a0f5953bf"
          ],
          "data": "0x00000000000000000000000000000000000000000000001b1ae4d6e2ef500000",
          "blockHash": "0xc93e74a62f56ffcfcfe722be7ef6991eb8c4203d0a139f820301c7b95210154a",
          "blockNumber": "0x260532d",
          "blockTimestamp": "0x694b033d",
          "transactionHash": "0x3cfcdf21b1d5bd2f0dc745385f1cb886793c4c6ae93592a4520d46f6548fa0e1",
          "transactionIndex": "0x6c",
          "logIndex": "0x136",
          "removed": false
        }
      ],
      "logsBloom": "0x00000000000000000000000000000000000000000000000000000000000000000000000000000000000000000000000000000000000000000000000000000000800000000000000000000008000000000000000000000000000000000000000000000000000000000000010000000000000000000800000000000010000000000000000000000000000000000000000000000000000000000000000000000000000000000000000000000000000000000000800000000000008000000000000000000002000000000000000000000000000000000000000000000000000000000000000000000000000000000002000000000000000000000000000000000000",
      "type": "0x2",
      "transactionHash": "0x3cfcdf21b1d5bd2f0dc745385f1cb886793c4c6ae93592a4520d46f6548fa0e1",
      "transactionIndex": "0x6c",
      "blockHash": "0xc93e74a62f56ffcfcfe722be7ef6991eb8c4203d0a139f820301c7b95210154a",
      "blockNumber": "0x260532d",
      "gasUsed": "0x2c016",
      "effectiveGasPrice": "0xaad25",
      "blobGasUsed": "0xa8d9",
      "from": "0x72d31adec4a82bcf8bd20c685b8c350a0f5953bf",
      "to": "0xb7b1fce90f7b56cc9a98f776ee8a20e8c82db73c",
      "contractAddress": null,
      "daFootprintGasScalar": "0x145",
      "l1BaseFeeScalar": "0x8dd",
      "l1BlobBaseFee": "0x1ffa56",
      "l1BlobBaseFeeScalar": "0x101c12",
      "l1Fee": "0x189029d3",
      "l1GasPrice": "0x2398538",
      "l1GasUsed": "0x851"
    },
    {
      "status": "0x1",
      "cumulativeGasUsed": "0x1374836",
      "logs": [
        {
          "address": "0x86faa99eb3cbd46bb53807fcd93b8a08d70116e0",
          "topics": [
            "0xddf252ad1be2c89b69c2b068fc378daa952ba7f163c4a11628f55a4df523b3ef",
            "0x00000000000000000000000072d31adec4a82bcf8bd20c685b8c350a0f5953bf",
            "0x00000000000000000000000072d31adec4a82bcf8bd20c685b8c350a0f5953bf"
          ],
          "data": "0x00000000000000000000000000000000000000000000001b1ae4d6e2ef500000",
          "blockHash": "0x885e2feef86af7df695b55821f2ff7db8496befbba250ace627325b1a80233f2",
          "blockNumber": "0x260532d",
          "blockTimestamp": "0x694b033d",
          "transactionHash": "0x29b0d268a1f48f03fbbe368e705c529dca08a1b8d9740eb829f6e61cbdfd1d8a",
          "transactionIndex": "0x6d",
          "logIndex": "0x137",
          "removed": false
        }
      ],
      "logsBloom": "0x00000000000000000000000000000000000000000000000000000000000000000000000000000000000000000000000000000000000000000000000000000000800000000000000000000008000000000000000000000000000000000000000000000000000000000000010000000000000000000800000000000010000000000000000000000000000000000000000000000000000000000000000000000000000000000000000000000000000000000000800000000000008000000000000000000002000000000000000000000000000000000000000000000000000000000000000000000000000000000002000000000000000000000000000000000000",
      "type": "0x2",
      "transactionHash": "0x29b0d268a1f48f03fbbe368e705c529dca08a1b8d9740eb829f6e61cbdfd1d8a",
      "transactionIndex": "0x6d",
      "blockHash": "0x885e2feef86af7df695b55821f2ff7db8496befbba250ace627325b1a80233f2",
      "blockNumber": "0x260532d",
      "gasUsed": "0x2c016",
      "effectiveGasPrice": "0xaad25",
      "blobGasUsed": "0xa794",
      "from": "0x72d31adec4a82bcf8bd20c685b8c350a0f5953bf",
      "to": "0xb7b1fce90f7b56cc9a98f776ee8a20e8c82db73c",
      "contractAddress": null,
      "daFootprintGasScalar": "0x145",
      "l1BaseFeeScalar": "0x8dd",
      "l1BlobBaseFee": "0x1ffa56",
      "l1BlobBaseFeeScalar": "0x101c12",
      "l1Fee": "0x1c1ee482",
      "l1GasPrice": "0x2398538",
      "l1GasUsed": "0x843"
    },
    {
      "status": "0x1",
      "cumulativeGasUsed": "0x13a084c",
      "logs": [
        {
          "address": "0x86faa99eb3cbd46bb53807fcd93b8a08d70116e0",
          "topics": [
            "0xddf252ad1be2c89b69c2b068fc378daa952ba7f163c4a11628f55a4df523b3ef",
            "0x00000000000000000000000072d31adec4a82bcf8bd20c685b8c350a0f5953bf",
            "0x00000000000000000000000072d31adec4a82bcf8bd20c685b8c350a0f5953bf"
          ],
          "data": "0x00000000000000000000000000000000000000000000001b1ae4d6e2ef500000",
          "blockHash": "0xc93e74a62f56ffcfcfe722be7ef6991eb8c4203d0a139f820301c7b95210154a",
          "blockNumber": "0x260532d",
          "blockTimestamp": "0x694b033d",
          "transactionHash": "0x3abca00fa61a221f0dce66275fda10fd9e2c8c04766adfa93955ee4926c59899",
          "transactionIndex": "0x6e",
          "logIndex": "0x138",
          "removed": false
        }
      ],
      "logsBloom": "0x00000000000000000000000000000000000000000000000000000000000000000000000000000000000000000000000000000000000000000000000000000000800000000000000000000008000000000000000000000000000000000000000000000000000000000000010000000000000000000800000000000010000000000000000000000000000000000000000000000000000000000000000000000000000000000000000000000000000000000000800000000000008000000000000000000002000000000000000000000000000000000000000000000000000000000000000000000000000000000002000000000000000000000000000000000000",
      "type": "0x2",
      "transactionHash": "0x3abca00fa61a221f0dce66275fda10fd9e2c8c04766adfa93955ee4926c59899",
      "transactionIndex": "0x6e",
      "blockHash": "0xc93e74a62f56ffcfcfe722be7ef6991eb8c4203d0a139f820301c7b95210154a",
      "blockNumber": "0x260532d",
      "gasUsed": "0x2c016",
      "effectiveGasPrice": "0xaad25",
      "blobGasUsed": "0xa794",
      "from": "0x72d31adec4a82bcf8bd20c685b8c350a0f5953bf",
      "to": "0xb7b1fce90f7b56cc9a98f776ee8a20e8c82db73c",
      "contractAddress": null,
      "daFootprintGasScalar": "0x145",
      "l1BaseFeeScalar": "0x8dd",
      "l1BlobBaseFee": "0x1ffa56",
      "l1BlobBaseFeeScalar": "0x101c12",
      "l1Fee": "0x189029d3",
      "l1GasPrice": "0x2398538",
      "l1GasUsed": "0x843"
    },
    {
      "status": "0x1",
      "cumulativeGasUsed": "0x13d1fb3",
      "logs": [
        {
          "address": "0x86faa99eb3cbd46bb53807fcd93b8a08d70116e0",
          "topics": [
            "0xddf252ad1be2c89b69c2b068fc378daa952ba7f163c4a11628f55a4df523b3ef",
            "0x00000000000000000000000072d31adec4a82bcf8bd20c685b8c350a0f5953bf",
            "0x00000000000000000000000072d31adec4a82bcf8bd20c685b8c350a0f5953bf"
          ],
          "data": "0x00000000000000000000000000000000000000000000001b1ae4d6e2ef500000",
          "blockHash": "0xc93e74a62f56ffcfcfe722be7ef6991eb8c4203d0a139f820301c7b95210154a",
          "blockNumber": "0x260532d",
          "blockTimestamp": "0x694b033d",
          "transactionHash": "0x1a5d4768be838504f1ed6023db2678101dfd76685a4a5c89c70d4a9946491d11",
          "transactionIndex": "0x6f",
          "logIndex": "0x139",
          "removed": false
        }
      ],
      "logsBloom": "0x00000000000000000000000000000000000000000000000000000000000000000000000000000000000000000000000000000000000000000000000000000000800000000000000000000008000000000000000000000000000000000000000000000000000000000000010000000000000000000800000000000010000000000000000000000000000000000000000000000000000000000000000000000000000000000000000000000000000000000000800000000000008000000000000000000002000000000000000000000000000000000000000000000000000000000000000000000000000000000002000000000000000000000000000000000000",
      "type": "0x2",
      "transactionHash": "0x1a5d4768be838504f1ed6023db2678101dfd76685a4a5c89c70d4a9946491d11",
      "transactionIndex": "0x6f",
      "blockHash": "0xc93e74a62f56ffcfcfe722be7ef6991eb8c4203d0a139f820301c7b95210154a",
      "blockNumber": "0x260532d",
      "gasUsed": "0x31767",
      "effectiveGasPrice": "0xaad25",
      "blobGasUsed": "0xb1bc",
      "from": "0x72d31adec4a82bcf8bd20c685b8c350a0f5953bf",
      "to": "0xb7b1fce90f7b56cc9a98f776ee8a20e8c82db73c",
      "contractAddress": null,
      "daFootprintGasScalar": "0x145",
      "l1BaseFeeScalar": "0x8dd",
      "l1BlobBaseFee": "0x1ffa56",
      "l1BlobBaseFeeScalar": "0x101c12",
      "l1Fee": "0x2c4eb5e7",
      "l1GasPrice": "0x2398538",
      "l1GasUsed": "0x8c9"
    },
    {
      "status": "0x1",
      "cumulativeGasUsed": "0x14036ea",
      "logs": [
        {
          "address": "0x86faa99eb3cbd46bb53807fcd93b8a08d70116e0",
          "topics": [
            "0xddf252ad1be2c89b69c2b068fc378daa952ba7f163c4a11628f55a4df523b3ef",
            "0x00000000000000000000000072d31adec4a82bcf8bd20c685b8c350a0f5953bf",
            "0x00000000000000000000000072d31adec4a82bcf8bd20c685b8c350a0f5953bf"
          ],
          "data": "0x00000000000000000000000000000000000000000000001b1ae4d6e2ef500000",
          "blockHash": "0xc93e74a62f56ffcfcfe722be7ef6991eb8c4203d0a139f820301c7b95210154a",
          "blockNumber": "0x260532d",
          "blockTimestamp": "0x694b033d",
          "transactionHash": "0xef722e7a4c83d0bb5e9c6101bd5fa73a061c90dfa6e4882da2ce6ac45557a909",
          "transactionIndex": "0x70",
          "logIndex": "0x13a",
          "removed": false
        }
      ],
      "logsBloom": "0x00000000000000000000000000000000000000000000000000000000000000000000000000000000000000000000000000000000000000000000000000000000800000000000000000000008000000000000000000000000000000000000000000000000000000000000010000000000000000000800000000000010000000000000000000000000000000000000000000000000000000000000000000000000000000000000000000000000000000000000800000000000008000000000000000000002000000000000000000000000000000000000000000000000000000000000000000000000000000000002000000000000000000000000000000000000",
      "type": "0x2",
      "transactionHash": "0xef722e7a4c83d0bb5e9c6101bd5fa73a061c90dfa6e4882da2ce6ac45557a909",
      "transactionIndex": "0x70",
      "blockHash": "0xc93e74a62f56ffcfcfe722be7ef6991eb8c4203d0a139f820301c7b95210154a",
      "blockNumber": "0x260532d",
      "gasUsed": "0x31737",
      "effectiveGasPrice": "0xaad25",
      "blobGasUsed": "0xaded",
      "from": "0x72d31adec4a82bcf8bd20c685b8c350a0f5953bf",
      "to": "0xb7b1fce90f7b56cc9a98f776ee8a20e8c82db73c",
      "contractAddress": null,
      "daFootprintGasScalar": "0x145",
      "l1BaseFeeScalar": "0x8dd",
      "l1BlobBaseFee": "0x1ffa56",
      "l1BlobBaseFeeScalar": "0x101c12",
      "l1Fee": "0x2c4eb5e7",
      "l1GasPrice": "0x2398538",
      "l1GasUsed": "0x894"
    },
    {
      "status": "0x1",
      "cumulativeGasUsed": "0x1429ff6",
      "logs": [
        {
          "address": "0x86faa99eb3cbd46bb53807fcd93b8a08d70116e0",
          "topics": [
            "0xddf252ad1be2c89b69c2b068fc378daa952ba7f163c4a11628f55a4df523b3ef",
            "0x00000000000000000000000072d31adec4a82bcf8bd20c685b8c350a0f5953bf",
            "0x00000000000000000000000072d31adec4a82bcf8bd20c685b8c350a0f5953bf"
          ],
          "data": "0x00000000000000000000000000000000000000000000001b1ae4d6e2ef500000",
          "blockHash": "0xc93e74a62f56ffcfcfe722be7ef6991eb8c4203d0a139f820301c7b95210154a",
          "blockNumber": "0x260532d",
          "blockTimestamp": "0x694b033d",
          "transactionHash": "0xc38204efc0d9501558caf8664e8acae0d36dfeeb9d9c6b323e861f661e15dcb8",
          "transactionIndex": "0x71",
          "logIndex": "0x13b",
          "removed": false
        }
      ],
      "logsBloom": "0x00000000000000000000000000000000000000000000000000000000000000000000000000000000000000000000000000000000000000000000000000000000800000000000000000000008000000000000000000000000000000000000000000000000000000000000010000000000000000000800000000000010000000000000000000000000000000000000000000000000000000000000000000000000000000000000000000000000000000000000800000000000008000000000000000000002000000000000000000000000000000000000000000000000000000000000000000000000000000000002000000000000000000000000000000000000",
      "type": "0x2",
      "transactionHash": "0xc38204efc0d9501558caf8664e8acae0d36dfeeb9d9c6b323e861f661e15dcb8",
      "transactionIndex": "0x71",
      "blockHash": "0xc93e74a62f56ffcfcfe722be7ef6991eb8c4203d0a139f820301c7b95210154a",
      "blockNumber": "0x260532d",
      "gasUsed": "0x2690c",
      "effectiveGasPrice": "0xaad25",
      "blobGasUsed": "0xa280",
      "from": "0x72d31adec4a82bcf8bd20c685b8c350a0f5953bf",
      "to": "0xb7b1fce90f7b56cc9a98f776ee8a20e8c82db73c",
      "contractAddress": null,
      "daFootprintGasScalar": "0x145",
      "l1BaseFeeScalar": "0x8dd",
      "l1BlobBaseFee": "0x1ffa56",
      "l1BlobBaseFeeScalar": "0x101c12",
      "l1Fee": "0x189029d3",
      "l1GasPrice": "0x2398538",
      "l1GasUsed": "0x80e"
    },
    {
      "status": "0x1",
      "cumulativeGasUsed": "0x145600c",
      "logs": [
        {
          "address": "0x86faa99eb3cbd46bb53807fcd93b8a08d70116e0",
          "topics": [
            "0xddf252ad1be2c89b69c2b068fc378daa952ba7f163c4a11628f55a4df523b3ef",
            "0x00000000000000000000000072d31adec4a82bcf8bd20c685b8c350a0f5953bf",
            "0x00000000000000000000000072d31adec4a82bcf8bd20c685b8c350a0f5953bf"
          ],
          "data": "0x00000000000000000000000000000000000000000000001b1ae4d6e2ef500000",
          "blockHash": "0xc93e74a62f56ffcfcfe722be7ef6991eb8c4203d0a139f820301c7b95210154a",
          "blockNumber": "0x260532d",
          "blockTimestamp": "0x694b033d",
          "transactionHash": "0x774fb5aba78333debfa0be0f57eaa2cdd008042629415be7f4dc831f3cf8ce18",
          "transactionIndex": "0x72",
          "logIndex": "0x13c",
          "removed": false
        }
      ],
      "logsBloom": "0x00000000000000000000000000000000000000000000000000000000000000000000000000000000000000000000000000000000000000000000000000000000800000000000000000000008000000000000000000000000000000000000000000000000000000000000010000000000000000000800000000000010000000000000000000000000000000000000000000000000000000000000000000000000000000000000000000000000000000000000800000000000008000000000000000000002000000000000000000000000000000000000000000000000000000000000000000000000000000000002000000000000000000000000000000000000",
      "type": "0x2",
      "transactionHash": "0x774fb5aba78333debfa0be0f57eaa2cdd008042629415be7f4dc831f3cf8ce18",
      "transactionIndex": "0x72",
      "blockHash": "0xc93e74a62f56ffcfcfe722be7ef6991eb8c4203d0a139f820301c7b95210154a",
      "blockNumber": "0x260532d",
      "gasUsed": "0x2c016",
      "effectiveGasPrice": "0xaad25",
      "blobGasUsed": "0xa8d9",
      "from": "0x72d31adec4a82bcf8bd20c685b8c350a0f5953bf",
      "to": "0xb7b1fce90f7b56cc9a98f776ee8a20e8c82db73c",
      "contractAddress": null,
      "daFootprintGasScalar": "0x145",
      "l1BaseFeeScalar": "0x8dd",
      "l1BlobBaseFee": "0x1ffa56",
      "l1BlobBaseFeeScalar": "0x101c12",
      "l1Fee": "0x2c4eb5e7",
      "l1GasPrice": "0x2398538",
      "l1GasUsed": "0x851"
    },
    {
      "status": "0x1",
      "cumulativeGasUsed": "0x1487743",
      "logs": [
        {
          "address": "0x86faa99eb3cbd46bb53807fcd93b8a08d70116e0",
          "topics": [
            "0xddf252ad1be2c89b69c2b068fc378daa952ba7f163c4a11628f55a4df523b3ef",
            "0x00000000000000000000000072d31adec4a82bcf8bd20c685b8c350a0f5953bf",
            "0x00000000000000000000000072d31adec4a82bcf8bd20c685b8c350a0f5953bf"
          ],
          "data": "0x00000000000000000000000000000000000000000000001b1ae4d6e2ef500000",
          "blockHash": "0xc93e74a62f56ffcfcfe722be7ef6991eb8c4203d0a139f820301c7b95210154a",
          "blockNumber": "0x260532d",
          "blockTimestamp": "0x694b033d",
          "transactionHash": "0xb3d883f99d7d3a28ae97cdeafc72f1a9c10905ac8f5e65a1a2d0ed6dcbd98c6c",
          "transactionIndex": "0x73",
          "logIndex": "0x13d",
          "removed": false
        }
      ],
      "logsBloom": "0x00000000000000000000000000000000000000000000000000000000000000000000000000000000000000000000000000000000000000000000000000000000800000000000000000000008000000000000000000000000000000000000000000000000000000000000010000000000000000000800000000000010000000000000000000000000000000000000000000000000000000000000000000000000000000000000000000000000000000000000800000000000008000000000000000000002000000000000000000000000000000000000000000000000000000000000000000000000000000000002000000000000000000000000000000000000",
      "type": "0x2",
      "transactionHash": "0xb3d883f99d7d3a28ae97cdeafc72f1a9c10905ac8f5e65a1a2d0ed6dcbd98c6c",
      "transactionIndex": "0x73",
      "blockHash": "0xc93e74a62f56ffcfcfe722be7ef6991eb8c4203d0a139f820301c7b95210154a",
      "blockNumber": "0x260532d",
      "gasUsed": "0x31737",
      "effectiveGasPrice": "0xaad25",
      "blobGasUsed": "0xaf32",
      "from": "0x72d31adec4a82bcf8bd20c685b8c350a0f5953bf",
      "to": "0xb7b1fce90f7b56cc9a98f776ee8a20e8c82db73c",
      "contractAddress": null,
      "daFootprintGasScalar": "0x145",
      "l1BaseFeeScalar": "0x8dd",
      "l1BlobBaseFee": "0x1ffa56",
      "l1BlobBaseFeeScalar": "0x101c12",
      "l1Fee": "0x2c4eb5e7",
      "l1GasPrice": "0x2398538",
      "l1GasUsed": "0x8a1"
    },
    {
      "status": "0x1",
      "cumulativeGasUsed": "0x14b8e92",
      "logs": [
        {
          "address": "0x86faa99eb3cbd46bb53807fcd93b8a08d70116e0",
          "topics": [
            "0xddf252ad1be2c89b69c2b068fc378daa952ba7f163c4a11628f55a4df523b3ef",
            "0x00000000000000000000000072d31adec4a82bcf8bd20c685b8c350a0f5953bf",
            "0x00000000000000000000000072d31adec4a82bcf8bd20c685b8c350a0f5953bf"
          ],
          "data": "0x00000000000000000000000000000000000000000000001b1ae4d6e2ef500000",
          "blockHash": "0xc93e74a62f56ffcfcfe722be7ef6991eb8c4203d0a139f820301c7b95210154a",
          "blockNumber": "0x260532d",
          "blockTimestamp": "0x694b033d",
          "transactionHash": "0xbacf033cc3aee4ac1656dc05a51eea2ed05e915606cc5fdac0ff0d395114ea45",
          "transactionIndex": "0x74",
          "logIndex": "0x13e",
          "removed": false
        }
      ],
      "logsBloom": "0x00000000000000000000000000000000000000000000000000000000000000000000000000000000000000000000000000000000000000000000000000000000800000000000000000000008000000000000000000000000000000000000000000000000000000000000010000000000000000000800000000000010000000000000000000000000000000000000000000000000000000000000000000000000000000000000000000000000000000000000800000000000008000000000000000000002000000000000000000000000000000000000000000000000000000000000000000000000000000000002000000000000000000000000000000000000",
      "type": "0x2",
      "transactionHash": "0xbacf033cc3aee4ac1656dc05a51eea2ed05e915606cc5fdac0ff0d395114ea45",
      "transactionIndex": "0x74",
      "blockHash": "0xc93e74a62f56ffcfcfe722be7ef6991eb8c4203d0a139f820301c7b95210154a",
      "blockNumber": "0x260532d",
      "gasUsed": "0x3174f",
      "effectiveGasPrice": "0xaad25",
      "blobGasUsed": "0xaf32",
      "from": "0x72d31adec4a82bcf8bd20c685b8c350a0f5953bf",
      "to": "0xb7b1fce90f7b56cc9a98f776ee8a20e8c82db73c",
      "contractAddress": null,
      "daFootprintGasScalar": "0x145",
      "l1BaseFeeScalar": "0x8dd",
      "l1BlobBaseFee": "0x1ffa56",
      "l1BlobBaseFeeScalar": "0x101c12",
      "l1Fee": "0x2c4eb5e7",
      "l1GasPrice": "0x2398538",
      "l1GasUsed": "0x8ae"
    },
    {
      "status": "0x1",
      "cumulativeGasUsed": "0x14df7b6",
      "logs": [
        {
          "address": "0x86faa99eb3cbd46bb53807fcd93b8a08d70116e0",
          "topics": [
            "0xddf252ad1be2c89b69c2b068fc378daa952ba7f163c4a11628f55a4df523b3ef",
            "0x00000000000000000000000072d31adec4a82bcf8bd20c685b8c350a0f5953bf",
            "0x00000000000000000000000072d31adec4a82bcf8bd20c685b8c350a0f5953bf"
          ],
          "data": "0x00000000000000000000000000000000000000000000001b1ae4d6e2ef500000",
          "blockHash": "0xc93e74a62f56ffcfcfe722be7ef6991eb8c4203d0a139f820301c7b95210154a",
          "blockNumber": "0x260532d",
          "blockTimestamp": "0x694b033d",
          "transactionHash": "0xce6452e57ba05da05aea8666da32583c0067a8581b93c6645cc02a8fcfc8ab67",
          "transactionIndex": "0x75",
          "logIndex": "0x13f",
          "removed": false
        }
      ],
      "logsBloom": "0x00000000000000000000000000000000000000000000000000000000000000000000000000000000000000000000000000000000000000000000000000000000800000000000000000000008000000000000000000000000000000000000000000000000000000000000010000000000000000000800000000000010000000000000000000000000000000000000000000000000000000000000000000000000000000000000000000000000000000000000800000000000008000000000000000000002000000000000000000000000000000000000000000000000000000000000000000000000000000000002000000000000000000000000000000000000",
      "type": "0x2",
      "transactionHash": "0xce6452e57ba05da05aea8666da32583c0067a8581b93c6645cc02a8fcfc8ab67",
      "transactionIndex": "0x75",
      "blockHash": "0xc93e74a62f56ffcfcfe722be7ef6991eb8c4203d0a139f820301c7b95210154a",
      "blockNumber": "0x260532d",
      "gasUsed": "0x26924",
      "effectiveGasPrice": "0xaad25",
      "blobGasUsed": "0xa794",
      "from": "0x72d31adec4a82bcf8bd20c685b8c350a0f5953bf",
      "to": "0xb7b1fce90f7b56cc9a98f776ee8a20e8c82db73c",
      "contractAddress": null,
      "daFootprintGasScalar": "0x145",
      "l1BaseFeeScalar": "0x8dd",
      "l1BlobBaseFee": "0x1ffa56",
      "l1BlobBaseFeeScalar": "0x101c12",
      "l1Fee": "0x2c4eb5e7",
      "l1GasPrice": "0x2398538",
      "l1GasUsed": "0x843"
    },
    {
      "status": "0x1",
      "cumulativeGasUsed": "0x15060c2",
      "logs": [
        {
          "address": "0x86faa99eb3cbd46bb53807fcd93b8a08d70116e0",
          "topics": [
            "0xddf252ad1be2c89b69c2b068fc378daa952ba7f163c4a11628f55a4df523b3ef",
            "0x00000000000000000000000072d31adec4a82bcf8bd20c685b8c350a0f5953bf",
            "0x00000000000000000000000072d31adec4a82bcf8bd20c685b8c350a0f5953bf"
          ],
          "data": "0x00000000000000000000000000000000000000000000001b1ae4d6e2ef500000",
          "blockHash": "0xc93e74a62f56ffcfcfe722be7ef6991eb8c4203d0a139f820301c7b95210154a",
          "blockNumber": "0x260532d",
          "blockTimestamp": "0x694b033d",
          "transactionHash": "0x1dfe2825669f843c6612a266d5b42d04fa3cdc42a0aeeacf599f1bcb33458132",
          "transactionIndex": "0x76",
          "logIndex": "0x140",
          "removed": false
        }
      ],
      "logsBloom": "0x00000000000000000000000000000000000000000000000000000000000000000000000000000000000000000000000000000000000000000000000000000000800000000000000000000008000000000000000000000000000000000000000000000000000000000000010000000000000000000800000000000010000000000000000000000000000000000000000000000000000000000000000000000000000000000000000000000000000000000000800000000000008000000000000000000002000000000000000000000000000000000000000000000000000000000000000000000000000000000002000000000000000000000000000000000000",
      "type": "0x2",
      "transactionHash": "0x1dfe2825669f843c6612a266d5b42d04fa3cdc42a0aeeacf599f1bcb33458132",
      "transactionIndex": "0x76",
      "blockHash": "0xc93e74a62f56ffcfcfe722be7ef6991eb8c4203d0a139f820301c7b95210154a",
      "blockNumber": "0x260532d",
      "gasUsed": "0x2690c",
      "effectiveGasPrice": "0xaad25",
      "blobGasUsed": "0xa50a",
      "from": "0x72d31adec4a82bcf8bd20c685b8c350a0f5953bf",
      "to": "0xb7b1fce90f7b56cc9a98f776ee8a20e8c82db73c",
      "contractAddress": null,
      "daFootprintGasScalar": "0x145",
      "l1BaseFeeScalar": "0x8dd",
      "l1BlobBaseFee": "0x1ffa56",
      "l1BlobBaseFeeScalar": "0x101c12",
      "l1Fee": "0x2c4eb5e7",
      "l1GasPrice": "0x2398538",
      "l1GasUsed": "0x829"
    },
    {
      "status": "0x1",
      "cumulativeGasUsed": "0x15377f9",
      "logs": [
        {
          "address": "0x86faa99eb3cbd46bb53807fcd93b8a08d70116e0",
          "topics": [
            "0xddf252ad1be2c89b69c2b068fc378daa952ba7f163c4a11628f55a4df523b3ef",
            "0x00000000000000000000000072d31adec4a82bcf8bd20c685b8c350a0f5953bf",
            "0x00000000000000000000000072d31adec4a82bcf8bd20c685b8c350a0f5953bf"
          ],
          "data": "0x00000000000000000000000000000000000000000000001b1ae4d6e2ef500000",
          "blockHash": "0xc93e74a62f56ffcfcfe722be7ef6991eb8c4203d0a139f820301c7b95210154a",
          "blockNumber": "0x260532d",
          "blockTimestamp": "0x694b033d",
          "transactionHash": "0xb3c9113f6947dd0304ecd82af2f8ab9f99606ca8e1be76c06efc6330af016d04",
          "transactionIndex": "0x77",
          "logIndex": "0x141",
          "removed": false
        }
      ],
      "logsBloom": "0x00000000000000000000000000000000000000000000000000000000000000000000000000000000000000000000000000000000000000000000000000000000800000000000000000000008000000000000000000000000000000000000000000000000000000000000010000000000000000000800000000000010000000000000000000000000000000000000000000000000000000000000000000000000000000000000000000000000000000000000800000000000008000000000000000000002000000000000000000000000000000000000000000000000000000000000000000000000000000000002000000000000000000000000000000000000",
      "type": "0x2",
      "transactionHash": "0xb3c9113f6947dd0304ecd82af2f8ab9f99606ca8e1be76c06efc6330af016d04",
      "transactionIndex": "0x77",
      "blockHash": "0xc93e74a62f56ffcfcfe722be7ef6991eb8c4203d0a139f820301c7b95210154a",
      "blockNumber": "0x260532d",
      "gasUsed": "0x31737",
      "effectiveGasPrice": "0xaad25",
      "blobGasUsed": "0xaded",
      "from": "0x72d31adec4a82bcf8bd20c685b8c350a0f5953bf",
      "to": "0xb7b1fce90f7b56cc9a98f776ee8a20e8c82db73c",
      "contractAddress": null,
      "daFootprintGasScalar": "0x145",
      "l1BaseFeeScalar": "0x8dd",
      "l1BlobBaseFee": "0x1ffa56",
      "l1BlobBaseFeeScalar": "0x101c12",
      "l1Fee": "0x2c4eb5e7",
      "l1GasPrice": "0x2398538",
      "l1GasUsed": "0x894"
    },
    {
      "status": "0x1",
      "cumulativeGasUsed": "0x1568f78",
      "logs": [
        {
          "address": "0x86faa99eb3cbd46bb53807fcd93b8a08d70116e0",
          "topics": [
            "0xddf252ad1be2c89b69c2b068fc378daa952ba7f163c4a11628f55a4df523b3ef",
            "0x00000000000000000000000072d31adec4a82bcf8bd20c685b8c350a0f5953bf",
            "0x00000000000000000000000072d31adec4a82bcf8bd20c685b8c350a0f5953bf"
          ],
          "data": "0x00000000000000000000000000000000000000000000001b1ae4d6e2ef500000",
          "blockHash": "0xc93e74a62f56ffcfcfe722be7ef6991eb8c4203d0a139f820301c7b95210154a",
          "blockNumber": "0x260532d",
          "blockTimestamp": "0x694b033d",
          "transactionHash": "0xe48904ecc4f168b3184e02ae696e156f121a4e2bdce1d13786d0fe6a55345d2a",
          "transactionIndex": "0x78",
          "logIndex": "0x142",
          "removed": false
        }
      ],
      "logsBloom": "0x00000000000000000000000000000000000000000000000000000000000000000000000000000000000000000000000000000000000000000000000000000000800000000000000000000008000000000000000000000000000000000000000000000000000000000000010000000000000000000800000000000010000000000000000000000000000000000000000000000000000000000000000000000000000000000000000000000000000000000000800000000000008000000000000000000002000000000000000000000000000000000000000000000000000000000000000000000000000000000002000000000000000000000000000000000000",
      "type": "0x2",
      "transactionHash": "0xe48904ecc4f168b3184e02ae696e156f121a4e2bdce1d13786d0fe6a55345d2a",
      "transactionIndex": "0x78",
      "blockHash": "0xc93e74a62f56ffcfcfe722be7ef6991eb8c4203d0a139f820301c7b95210154a",
      "blockNumber": "0x260532d",
      "gasUsed": "0x3177f",
      "effectiveGasPrice": "0xaad25",
      "blobGasUsed": "0xb446",
      "from": "0x72d31adec4a82bcf8bd20c685b8c350a0f5953bf",
      "to": "0xb7b1fce90f7b56cc9a98f776ee8a20e8c82db73c",
      "contractAddress": null,
      "daFootprintGasScalar": "0x145",
      "l1BaseFeeScalar": "0x8dd",
      "l1BlobBaseFee": "0x1ffa56",
      "l1BlobBaseFeeScalar": "0x101c12",
      "l1Fee": "0x2c4eb5e7",
      "l1GasPrice": "0x2398538",
      "l1GasUsed": "0x8e4"
    },
    {
      "status": "0x1",
      "cumulativeGasUsed": "0x159a6af",
      "logs": [
        {
          "address": "0x86faa99eb3cbd46bb53807fcd93b8a08d70116e0",
          "topics": [
            "0xddf252ad1be2c89b69c2b068fc378daa952ba7f163c4a11628f55a4df523b3ef",
            "0x00000000000000000000000072d31adec4a82bcf8bd20c685b8c350a0f5953bf",
            "0x00000000000000000000000072d31adec4a82bcf8bd20c685b8c350a0f5953bf"
          ],
          "data": "0x00000000000000000000000000000000000000000000001b1ae4d6e2ef500000",
          "blockHash": "0xc93e74a62f56ffcfcfe722be7ef6991eb8c4203d0a139f820301c7b95210154a",
          "blockNumber": "0x260532d",
          "blockTimestamp": "0x694b033d",
          "transactionHash": "0xb162137b2a8b5ab3bb52b89b26ec5e3802cb8f5af8bc136cdecf681861724727",
          "transactionIndex": "0x79",
          "logIndex": "0x143",
          "removed": false
        }
      ],
      "logsBloom": "0x00000000000000000000000000000000000000000000000000000000000000000000000000000000000000000000000000000000000000000000000000000000800000000000000000000008000000000000000000000000000000000000000000000000000000000000010000000000000000000800000000000010000000000000000000000000000000000000000000000000000000000000000000000000000000000000000000000000000000000000800000000000008000000000000000000002000000000000000000000000000000000000000000000000000000000000000000000000000000000002000000000000000000000000000000000000",
      "type": "0x2",
      "transactionHash": "0xb162137b2a8b5ab3bb52b89b26ec5e3802cb8f5af8bc136cdecf681861724727",
      "transactionIndex": "0x79",
      "blockHash": "0xc93e74a62f56ffcfcfe722be7ef6991eb8c4203d0a139f820301c7b95210154a",
      "blockNumber": "0x260532d",
      "gasUsed": "0x31737",
      "effectiveGasPrice": "0xaad25",
      "blobGasUsed": "0xaded",
      "from": "0x72d31adec4a82bcf8bd20c685b8c350a0f5953bf",
      "to": "0xb7b1fce90f7b56cc9a98f776ee8a20e8c82db73c",
      "contractAddress": null,
      "daFootprintGasScalar": "0x145",
      "l1BaseFeeScalar": "0x8dd",
      "l1BlobBaseFee": "0x1ffa56",
      "l1BlobBaseFeeScalar": "0x101c12",
      "l1Fee": "0x2c4eb5e7",
      "l1GasPrice": "0x2398538",
      "l1GasUsed": "0x894"
    },
    {
      "status": "0x1",
      "cumulativeGasUsed": "0x15cbdfe",
      "logs": [
        {
          "address": "0x86faa99eb3cbd46bb53807fcd93b8a08d70116e0",
          "topics": [
            "0xddf252ad1be2c89b69c2b068fc378daa952ba7f163c4a11628f55a4df523b3ef",
            "0x00000000000000000000000072d31adec4a82bcf8bd20c685b8c350a0f5953bf",
            "0x00000000000000000000000072d31adec4a82bcf8bd20c685b8c350a0f5953bf"
          ],
          "data": "0x00000000000000000000000000000000000000000000001b1ae4d6e2ef500000",
          "blockHash": "0x885e2feef86af7df695b55821f2ff7db8496befbba250ace627325b1a80233f2",
          "blockNumber": "0x260532d",
          "blockTimestamp": "0x694b033d",
          "transactionHash": "0xf9c1f72312362e2cee34793f0a0c68ccea2d304875e25030bbf3f1e780dcbc0c",
          "transactionIndex": "0x7a",
          "logIndex": "0x144",
          "removed": false
        }
      ],
      "logsBloom": "0x00000000000000000000000000000000000000000000000000000000000000000000000000000000000000000000000000000000000000000000000000000000800000000000000000000008000000000000000000000000000000000000000000000000000000000000010000000000000000000800000000000010000000000000000000000000000000000000000000000000000000000000000000000000000000000000000000000000000000000000800000000000008000000000000000000002000000000000000000000000000000000000000000000000000000000000000000000000000000000002000000000000000000000000000000000000",
      "type": "0x2",
      "transactionHash": "0xf9c1f72312362e2cee34793f0a0c68ccea2d304875e25030bbf3f1e780dcbc0c",
      "transactionIndex": "0x7a",
      "blockHash": "0x885e2feef86af7df695b55821f2ff7db8496befbba250ace627325b1a80233f2",
      "blockNumber": "0x260532d",
      "gasUsed": "0x3174f",
      "effectiveGasPrice": "0xaad25",
      "blobGasUsed": "0xaf32",
      "from": "0x72d31adec4a82bcf8bd20c685b8c350a0f5953bf",
      "to": "0xb7b1fce90f7b56cc9a98f776ee8a20e8c82db73c",
      "contractAddress": null,
      "daFootprintGasScalar": "0x145",
      "l1BaseFeeScalar": "0x8dd",
      "l1BlobBaseFee": "0x1ffa56",
      "l1BlobBaseFeeScalar": "0x101c12",
      "l1Fee": "0x1d8b2f2e",
      "l1GasPrice": "0x2398538",
      "l1GasUsed": "0x8ae"
    },
    {
      "status": "0x1",
      "cumulativeGasUsed": "0x15fd565",
      "logs": [
        {
          "address": "0x86faa99eb3cbd46bb53807fcd93b8a08d70116e0",
          "topics": [
            "0xddf252ad1be2c89b69c2b068fc378daa952ba7f163c4a11628f55a4df523b3ef",
            "0x00000000000000000000000072d31adec4a82bcf8bd20c685b8c350a0f5953bf",
            "0x00000000000000000000000072d31adec4a82bcf8bd20c685b8c350a0f5953bf"
          ],
          "data": "0x00000000000000000000000000000000000000000000001b1ae4d6e2ef500000",
          "blockHash": "0xc93e74a62f56ffcfcfe722be7ef6991eb8c4203d0a139f820301c7b95210154a",
          "blockNumber": "0x260532d",
          "blockTimestamp": "0x694b033d",
          "transactionHash": "0x0bd19f9b74dcdc7521b5ba75811a8f22aff011b41620262d978a9c790f781360",
          "transactionIndex": "0x7b",
          "logIndex": "0x145",
          "removed": false
        }
      ],
      "logsBloom": "0x00000000000000000000000000000000000000000000000000000000000000000000000000000000000000000000000000000000000000000000000000000000800000000000000000000008000000000000000000000000000000000000000000000000000000000000010000000000000000000800000000000010000000000000000000000000000000000000000000000000000000000000000000000000000000000000000000000000000000000000800000000000008000000000000000000002000000000000000000000000000000000000000000000000000000000000000000000000000000000002000000000000000000000000000000000000",
      "type": "0x2",
      "transactionHash": "0x0bd19f9b74dcdc7521b5ba75811a8f22aff011b41620262d978a9c790f781360",
      "transactionIndex": "0x7b",
      "blockHash": "0xc93e74a62f56ffcfcfe722be7ef6991eb8c4203d0a139f820301c7b95210154a",
      "blockNumber": "0x260532d",
      "gasUsed": "0x31767",
      "effectiveGasPrice": "0xaad25",
      "blobGasUsed": "0xb1bc",
      "from": "0x72d31adec4a82bcf8bd20c685b8c350a0f5953bf",
      "to": "0xb7b1fce90f7b56cc9a98f776ee8a20e8c82db73c",
      "contractAddress": null,
      "daFootprintGasScalar": "0x145",
      "l1BaseFeeScalar": "0x8dd",
      "l1BlobBaseFee": "0x1ffa56",
      "l1BlobBaseFeeScalar": "0x101c12",
      "l1Fee": "0x2c4eb5e7",
      "l1GasPrice": "0x2398538",
      "l1GasUsed": "0x8c9"
    },
    {
      "status": "0x1",
      "cumulativeGasUsed": "0x162ece4",
      "logs": [
        {
          "address": "0x86faa99eb3cbd46bb53807fcd93b8a08d70116e0",
          "topics": [
            "0xddf252ad1be2c89b69c2b068fc378daa952ba7f163c4a11628f55a4df523b3ef",
            "0x00000000000000000000000072d31adec4a82bcf8bd20c685b8c350a0f5953bf",
            "0x00000000000000000000000072d31adec4a82bcf8bd20c685b8c350a0f5953bf"
          ],
          "data": "0x00000000000000000000000000000000000000000000001b1ae4d6e2ef500000",
          "blockHash": "0xc93e74a62f56ffcfcfe722be7ef6991eb8c4203d0a139f820301c7b95210154a",
          "blockNumber": "0x260532d",
          "blockTimestamp": "0x694b033d",
          "transactionHash": "0x924197800d3305b23cbc244af3254e3a6a3ed5287debfaf26716f01a9a20d6b8",
          "transactionIndex": "0x7c",
          "logIndex": "0x146",
          "removed": false
        }
      ],
      "logsBloom": "0x00000000000000000000000000000000000000000000000000000000000000000000000000000000000000000000000000000000000000000000000000000000800000000000000000000008000000000000000000000000000000000000000000000000000000000000010000000000000000000800000000000010000000000000000000000000000000000000000000000000000000000000000000000000000000000000000000000000000000000000800000000000008000000000000000000002000000000000000000000000000000000000000000000000000000000000000000000000000000000002000000000000000000000000000000000000",
      "type": "0x2",
      "transactionHash": "0x924197800d3305b23cbc244af3254e3a6a3ed5287debfaf26716f01a9a20d6b8",
      "transactionIndex": "0x7c",
      "blockHash": "0xc93e74a62f56ffcfcfe722be7ef6991eb8c4203d0a139f820301c7b95210154a",
      "blockNumber": "0x260532d",
      "gasUsed": "0x3177f",
      "effectiveGasPrice": "0xaad25",
      "blobGasUsed": "0xb446",
      "from": "0x72d31adec4a82bcf8bd20c685b8c350a0f5953bf",
      "to": "0xb7b1fce90f7b56cc9a98f776ee8a20e8c82db73c",
      "contractAddress": null,
      "daFootprintGasScalar": "0x145",
      "l1BaseFeeScalar": "0x8dd",
      "l1BlobBaseFee": "0x1ffa56",
      "l1BlobBaseFeeScalar": "0x101c12",
      "l1Fee": "0x189029d3",
      "l1GasPrice": "0x2398538",
      "l1GasUsed": "0x8e4"
    },
    {
      "status": "0x1",
      "cumulativeGasUsed": "0x165acfa",
      "logs": [
        {
          "address": "0x86faa99eb3cbd46bb53807fcd93b8a08d70116e0",
          "topics": [
            "0xddf252ad1be2c89b69c2b068fc378daa952ba7f163c4a11628f55a4df523b3ef",
            "0x00000000000000000000000072d31adec4a82bcf8bd20c685b8c350a0f5953bf",
            "0x00000000000000000000000072d31adec4a82bcf8bd20c685b8c350a0f5953bf"
          ],
          "data": "0x00000000000000000000000000000000000000000000001b1ae4d6e2ef500000",
          "blockHash": "0xc93e74a62f56ffcfcfe722be7ef6991eb8c4203d0a139f820301c7b95210154a",
          "blockNumber": "0x260532d",
          "blockTimestamp": "0x694b033d",
          "transactionHash": "0x9f6b1964b0fe5930c0e126f24fe07d0886702be851c39cb0d5dcd3250a7b6c2f",
          "transactionIndex": "0x7d",
          "logIndex": "0x147",
          "removed": false
        }
      ],
      "logsBloom": "0x00000000000000000000000000000000000000000000000000000000000000000000000000000000000000000000000000000000000000000000000000000000800000000000000000000008000000000000000000000000000000000000000000000000000000000000010000000000000000000800000000000010000000000000000000000000000000000000000000000000000000000000000000000000000000000000000000000000000000000000800000000000008000000000000000000002000000000000000000000000000000000000000000000000000000000000000000000000000000000002000000000000000000000000000000000000",
      "type": "0x2",
      "transactionHash": "0x9f6b1964b0fe5930c0e126f24fe07d0886702be851c39cb0d5dcd3250a7b6c2f",
      "transactionIndex": "0x7d",
      "blockHash": "0xc93e74a62f56ffcfcfe722be7ef6991eb8c4203d0a139f820301c7b95210154a",
      "blockNumber": "0x260532d",
      "gasUsed": "0x2c016",
      "effectiveGasPrice": "0xaad25",
      "blobGasUsed": "0xa794",
      "from": "0x72d31adec4a82bcf8bd20c685b8c350a0f5953bf",
      "to": "0xb7b1fce90f7b56cc9a98f776ee8a20e8c82db73c",
      "contractAddress": null,
      "daFootprintGasScalar": "0x145",
      "l1BaseFeeScalar": "0x8dd",
      "l1BlobBaseFee": "0x1ffa56",
      "l1BlobBaseFeeScalar": "0x101c12",
      "l1Fee": "0x2c4eb5e7",
      "l1GasPrice": "0x2398538",
      "l1GasUsed": "0x843"
    },
    {
      "status": "0x1",
      "cumulativeGasUsed": "0x168c479",
      "logs": [
        {
          "address": "0x86faa99eb3cbd46bb53807fcd93b8a08d70116e0",
          "topics": [
            "0xddf252ad1be2c89b69c2b068fc378daa952ba7f163c4a11628f55a4df523b3ef",
            "0x00000000000000000000000072d31adec4a82bcf8bd20c685b8c350a0f5953bf",
            "0x00000000000000000000000072d31adec4a82bcf8bd20c685b8c350a0f5953bf"
          ],
          "data": "0x00000000000000000000000000000000000000000000001b1ae4d6e2ef500000",
          "blockHash": "0xc93e74a62f56ffcfcfe722be7ef6991eb8c4203d0a139f820301c7b95210154a",
          "blockNumber": "0x260532d",
          "blockTimestamp": "0x694b033d",
          "transactionHash": "0x3c056a8184c670aec28ac9219daf844842f9b60301d8de1976181170b3ccb7d9",
          "transactionIndex": "0x7e",
          "logIndex": "0x148",
          "removed": false
        }
      ],
      "logsBloom": "0x00000000000000000000000000000000000000000000000000000000000000000000000000000000000000000000000000000000000000000000000000000000800000000000000000000008000000000000000000000000000000000000000000000000000000000000010000000000000000000800000000000010000000000000000000000000000000000000000000000000000000000000000000000000000000000000000000000000000000000000800000000000008000000000000000000002000000000000000000000000000000000000000000000000000000000000000000000000000000000002000000000000000000000000000000000000",
      "type": "0x2",
      "transactionHash": "0x3c056a8184c670aec28ac9219daf844842f9b60301d8de1976181170b3ccb7d9",
      "transactionIndex": "0x7e",
      "blockHash": "0xc93e74a62f56ffcfcfe722be7ef6991eb8c4203d0a139f820301c7b95210154a",
      "blockNumber": "0x260532d",
      "gasUsed": "0x3177f",
      "effectiveGasPrice": "0xaad25",
      "blobGasUsed": "0xb446",
      "from": "0x72d31adec4a82bcf8bd20c685b8c350a0f5953bf",
      "to": "0xb7b1fce90f7b56cc9a98f776ee8a20e8c82db73c",
      "contractAddress": null,
      "daFootprintGasScalar": "0x145",
      "l1BaseFeeScalar": "0x8dd",
      "l1BlobBaseFee": "0x1ffa56",
      "l1BlobBaseFeeScalar": "0x101c12",
      "l1Fee": "0x2c4eb5e7",
      "l1GasPrice": "0x2398538",
      "l1GasUsed": "0x8e4"
    }
  ],
  "libraries": [],
  "pending": [],
  "returns": {},
  "timestamp": 1766523713359,
  "chain": 8453,
  "commit": "cd9ac9e"
}