{
  "transactions": [
    {
      "hash": null,
      "transactionType": "CREATE",
      "contractName": "SynapseToken",
      "contractAddress": "0x86faa99eb3cbd46bb53807fcd93b8a08d70116e0",
      "function": null,
      "arguments": null,
      "transaction": {
        "from": "0x72d31adec4a82bcf8bd20c685b8c350a0f5953bf",
        "gas": "0xba567",
        "value": "0x0",
        "input": "0x60c0604052601060809081526f29bcb73a3432b9b4b9902632b233b2b960811b60a0525f9061002e9082610153565b5060408051808201909152600481526314d6539360e21b60208201526001906100579082610153565b506002805460ff19166012179055348015610070575f5ffd5b50600480546001600160a01b031916331790556002546100949060ff16600a610306565b6100a290633b9aca00610318565b6003819055335f9081526005602052604090205561032f565b634e487b7160e01b5f52604160045260245ffd5b600181811c908216806100e357607f821691505b60208210810361010157634e487b7160e01b5f52602260045260245ffd5b50919050565b601f82111561014e57805f5260205f20601f840160051c8101602085101561012c5750805b601f840160051c820191505b8181101561014b575f8155600101610138565b50505b505050565b81516001600160401b0381111561016c5761016c6100bb565b6101808161017a84546100cf565b84610107565b6020601f8211600181146101b2575f831561019b5750848201515b5f19600385901b1c1916600184901b17845561014b565b5f84815260208120601f198516915b828110156101e157878501518255602094850194600190920191016101c1565b50848210156101fe57868401515f19600387901b60f8161c191681555b50505050600190811b01905550565b634e487b7160e01b5f52601160045260245ffd5b6001815b600184111561025c578085048111156102405761024061020d565b600184161561024e57908102905b60019390931c928002610225565b935093915050565b5f8261027257506001610300565b8161027e57505f610300565b8160018114610294576002811461029e576102ba565b6001915050610300565b60ff8411156102af576102af61020d565b50506001821b610300565b5060208310610133831016604e8410600b84101617156102dd575081810a610300565b6102e95f198484610221565b805f19048211156102fc576102fc61020d565b0290505b92915050565b5f6103118383610264565b9392505050565b80820281158282048414176103005761030061020d565b6106fe8061033c5f395ff3fe608060405234801561000f575f5ffd5b506004361061009b575f3560e01c806370a082311161006357806370a08231146101295780638da5cb5b1461014857806395d89b4114610173578063a9059cbb1461017b578063dd62ed3e1461018e575f5ffd5b806306fdde031461009f578063095ea7b3146100bd57806318160ddd146100e057806323b872dd146100f7578063313ce5671461010a575b5f5ffd5b6100a76101b8565b6040516100b49190610553565b60405180910390f35b6100d06100cb3660046105a3565b610243565b60405190151581526020016100b4565b6100e960035481565b6040519081526020016100b4565b6100d06101053660046105cb565b6102af565b6002546101179060ff1681565b60405160ff90911681526020016100b4565b6100e9610137366004610605565b60056020525f908152604090205481565b60045461015b906001600160a01b031681565b6040516001600160a01b0390911681526020016100b4565b6100a7610465565b6100d06101893660046105a3565b610472565b6100e961019c366004610625565b600660209081525f928352604080842090915290825290205481565b5f80546101c490610656565b80601f01602080910402602001604051908101604052809291908181526020018280546101f090610656565b801561023b5780601f106102125761010080835404028352916020019161023b565b820191905f5260205f20905b81548152906001019060200180831161021e57829003601f168201915b505050505081565b335f8181526006602090815260408083206001600160a01b038716808552925280832085905551919290917f8c5be1e5ebec7d5bd14f71427d1e84f3dd0314c0f7b2291e5b200ac8c7c3b9259061029d9086815260200190565b60405180910390a35060015b92915050565b6001600160a01b0383165f908152600560205260408120548211156103125760405162461bcd60e51b8152602060048201526014602482015273496e73756666696369656e742062616c616e636560601b60448201526064015b60405180910390fd5b6001600160a01b0384165f90815260066020908152604080832033845290915290205482111561037d5760405162461bcd60e51b8152602060048201526016602482015275496e73756666696369656e7420616c6c6f77616e636560501b6044820152606401610309565b6001600160a01b0384165f90815260056020526040812080548492906103a49084906106a2565b90915550506001600160a01b0383165f90815260056020526040812080548492906103d09084906106b5565b90915550506001600160a01b0384165f908152600660209081526040808320338452909152812080548492906104079084906106a2565b92505081905550826001600160a01b0316846001600160a01b03167fddf252ad1be2c89b69c2b068fc378daa952ba7f163c4a11628f55a4df523b3ef8460405161045391815260200190565b60405180910390a35060019392505050565b600180546101c490610656565b335f908152600560205260408120548211156104c75760405162461bcd60e51b8152602060048201526014602482015273496e73756666696369656e742062616c616e636560601b6044820152606401610309565b335f90815260056020526040812080548492906104e59084906106a2565b90915550506001600160a01b0383165f90815260056020526040812080548492906105119084906106b5565b90915550506040518281526001600160a01b0384169033907fddf252ad1be2c89b69c2b068fc378daa952ba7f163c4a11628f55a4df523b3ef9060200161029d565b602081525f82518060208401528060208501604085015e5f604082850101526040601f19601f83011684010191505092915050565b80356001600160a01b038116811461059e575f5ffd5b919050565b5f5f604083850312156105b4575f5ffd5b6105bd83610588565b946020939093013593505050565b5f5f5f606084860312156105dd575f5ffd5b6105e684610588565b92506105f460208501610588565b929592945050506040919091013590565b5f60208284031215610615575f5ffd5b61061e82610588565b9392505050565b5f5f60408385031215610636575f5ffd5b61063f83610588565b915061064d60208401610588565b90509250929050565b600181811c9082168061066a57607f821691505b60208210810361068857634e487b7160e01b5f52602260045260245ffd5b50919050565b634e487b7160e01b5f52601160045260245ffd5b818103818111156102a9576102a961068e565b808201808211156102a9576102a961068e56fea2646970667358221220fa0032f0c61be90e3c5b85dc6cd5b6db139f169f44fac6f67ccfa6b2010b60e064736f6c634300081f0033",
        "nonce": "0x0",
        "chainId": "0x14a34"
      },
      "additionalContracts": [],
      "isFixedGasLimit": false
    },
    {
      "hash": null,
      "transactionType": "CREATE",
      "contractName": "SynthesisRegistry",
      "contractAddress": "0xb7b1fce90f7b56cc9a98f776ee8a20e8c82db73c",
      "function": null,
      "arguments": [
        "0x86FaA99Eb3CBD46BB53807fcd93B8a08D70116E0",
        "0x72D31aDeC4A82BcF8bd20C685B8C350A0F5953BF"
      ],
      "transaction": {
        "from": "0x72d31adec4a82bcf8bd20c685b8c350a0f5953bf",
        "gas": "0xbdcf7",
        "value": "0x0",
        "input": "0x60c060405234801561000f575f5ffd5b50604051610a95380380610a9583398101604081905261002e91610060565b6001600160a01b039182166080521660a052610091565b80516001600160a01b038116811461005b575f5ffd5b919050565b5f5f60408385031215610071575f5ffd5b61007a83610045565b915061008860208401610045565b90509250929050565b60805160a0516109cf6100c65f395f818161012f015261040d01525f818160bd01528181610343015261044401526109cf5ff3fe608060405234801561000f575f5ffd5b5060043610610085575f3560e01c806361d027b31161005857806361d027b31461012a57806364b4f751146101515780639501bdc214610161578063b734dcee14610176575f5ffd5b8063443c227c14610089578063451bba72146100b85780635c975abb146100f757806361b8ce8c14610114575b5f5ffd5b61009c6100973660046105f9565b610187565b6040516100af9796959493929190610652565b60405180910390f35b6100df7f000000000000000000000000000000000000000000000000000000000000000081565b6040516001600160a01b0390911681526020016100af565b6001546101049060ff1681565b60405190151581526020016100af565b61011c5f5481565b6040519081526020016100af565b6100df7f000000000000000000000000000000000000000000000000000000000000000081565b61011c681b1ae4d6e2ef50000081565b61017461016f36600461076b565b6102e1565b005b61011c69021e19e0c9bab240000081565b60026020525f90815260409020805481906101a1906107f9565b80601f01602080910402602001604051908101604052809291908181526020018280546101cd906107f9565b80156102185780601f106101ef57610100808354040283529160200191610218565b820191905f5260205f20905b8154815290600101906020018083116101fb57829003601f168201915b50505050509080600101805461022d906107f9565b80601f0160208091040260200160405190810160405280929190818152602001828054610259906107f9565b80156102a45780601f1061027b576101008083540402835291602001916102a4565b820191905f5260205f20905b81548152906001019060200180831161028757829003601f168201915b50505060028401546003850154600490950154939490939092506001600160a01b038116915060ff600160a01b8204811691600160a81b90041687565b60015460ff16156103225760405162461bcd60e51b815260206004820152600660248201526514105554d15160d21b60448201526064015b60405180910390fd5b6040516370a0823160e01b815233600482015269021e19e0c9bab2400000907f00000000000000000000000000000000000000000000000000000000000000006001600160a01b0316906370a0823190602401602060405180830381865afa158015610390573d5f5f3e3d5ffd5b505050506040513d601f19601f820116820180604052508101906103b49190610831565b10156103f05760405162461bcd60e51b815260206004820152600b60248201526a11d0551157d313d0d2d15160aa1b6044820152606401610319565b6040516323b872dd60e01b81523360048201526001600160a01b037f000000000000000000000000000000000000000000000000000000000000000081166024830152681b1ae4d6e2ef50000060448301527f000000000000000000000000000000000000000000000000000000000000000016906323b872dd906064016020604051808303815f875af115801561048a573d5f5f3e3d5ffd5b505050506040513d601f19601f820116820180604052508101906104ae9190610848565b6104e55760405162461bcd60e51b815260206004820152600860248201526711915157d190525360c21b6044820152606401610319565b6040518060e00160405280868152602001858152602001848152602001838152602001336001600160a01b031681526020015f151581526020018260018111156105315761053161063e565b90525f805481526002602052604090208151819061054f90826108ba565b506020820151600182019061056490826108ba565b506040820151600282015560608201516003820155608082015160048201805460a08501511515600160a01b026001600160a81b03199091166001600160a01b03909316929092179190911780825560c0840151919060ff60a81b1916600160a81b8360018111156105d8576105d861063e565b0217905550505f80549150806105ed83610975565b91905055505050505050565b5f60208284031215610609575f5ffd5b5035919050565b5f81518084528060208401602086015e5f602082860101526020601f19601f83011685010191505092915050565b634e487b7160e01b5f52602160045260245ffd5b60e081525f61066460e083018a610610565b8281036020840152610676818a610610565b60408401899052606084018890526001600160a01b038716608085015285151560a0850152915050600283106106ba57634e487b7160e01b5f52602160045260245ffd5b8260c083015298975050505050505050565b634e487b7160e01b5f52604160045260245ffd5b5f82601f8301126106ef575f5ffd5b813567ffffffffffffffff811115610709576107096106cc565b604051601f8201601f19908116603f0116810167ffffffffffffffff81118282101715610738576107386106cc565b60405281815283820160200185101561074f575f5ffd5b816020850160208301375f918101602001919091529392505050565b5f5f5f5f5f60a0868803121561077f575f5ffd5b853567ffffffffffffffff811115610795575f5ffd5b6107a1888289016106e0565b955050602086013567ffffffffffffffff8111156107bd575f5ffd5b6107c9888289016106e0565b94505060408601359250606086013591506080860135600281106107eb575f5ffd5b809150509295509295909350565b600181811c9082168061080d57607f821691505b60208210810361082b57634e487b7160e01b5f52602260045260245ffd5b50919050565b5f60208284031215610841575f5ffd5b5051919050565b5f60208284031215610858575f5ffd5b81518015158114610867575f5ffd5b9392505050565b601f8211156108b557805f5260205f20601f840160051c810160208510156108935750805b601f840160051c820191505b818110156108b2575f815560010161089f565b50505b505050565b815167ffffffffffffffff8111156108d4576108d46106cc565b6108e8816108e284546107f9565b8461086e565b6020601f82116001811461091a575f83156109035750848201515b5f19600385901b1c1916600184901b1784556108b2565b5f84815260208120601f198516915b828110156109495787850151825560209485019460019092019101610929565b508482101561096657868401515f19600387901b60f8161c191681555b50505050600190811b01905550565b5f6001820161099257634e487b7160e01b5f52601160045260245ffd5b506001019056fea2646970667358221220badbe7d9d9aee58415721101c5a3bf6e26b2fb44a4fde1b2b093fa58d67406ff64736f6c634300081f003300000000000000000000000086faa99eb3cbd46bb53807fcd93b8a08d70116e000000000000000000000000072d31adec4a82bcf8bd20c685b8c350a0f5953bf",
        "nonce": "0x1",
        "chainId": "0x14a34"
      },
      "additionalContracts": [],
      "isFixedGasLimit": false
    },
    {
      "hash": null,
      "transactionType": "CALL",
      "contractName": "SynapseToken",
      "contractAddress": "0x86faa99eb3cbd46bb53807fcd93b8a08d70116e0",
      "function": "approve(address,uint256)",
      "arguments": [
        "0xB7B1FCE90f7B56cc9A98F776eE8A20E8c82dB73c",
        "1000000000000000000000000"
      ],
      "transaction": {
        "from": "0x72d31adec4a82bcf8bd20c685b8c350a0f5953bf",
        "to": "0x86faa99eb3cbd46bb53807fcd93b8a08d70116e0",
        "gas": "0x107b8",
        "value": "0x0",
        "input": "0x095ea7b3000000000000000000000000b7b1fce90f7b56cc9a98f776ee8a20e8c82db73c00000000000000000000000000000000000000000000d3c21bcecceda1000000",
        "nonce": "0x2",
        "chainId": "0x14a34"
      },
      "additionalContracts": [],
      "isFixedGasLimit": false
    },
    {
      "hash": null,
      "transactionType": "CALL",
      "contractName": "SynthesisRegistry",
      "contractAddress": "0xb7b1fce90f7b56cc9a98f776ee8a20e8c82db73c",
      "function": "register(string,string,uint256,uint256,uint8)",
      "arguments": [
        "A-LEG-ClauseParser",
        "ar://SYNTH_ATOMIC_LEG_CLAUSEPARSER",
        "9971",
        "1500",
        "0"
      ],
      "transaction": {
        "from": "0x72d31adec4a82bcf8bd20c685b8c350a0f5953bf",
        "to": "0xb7b1fce90f7b56cc9a98f776ee8a20e8c82db73c",
        "gas": "0x4e6fa",
        "value": "0x0",
        "input": "0x9501bdc200000000000000000000000000000000000000000000000000000000000000a000000000000000000000000000000000000000000000000000000000000000e000000000000000000000000000000000000000000000000000000000000026f300000000000000000000000000000000000000000000000000000000000005dc00000000000000000000000000000000000000000000000000000000000000000000000000000000000000000000000000000000000000000000000000000012412d4c45472d436c617573655061727365720000000000000000000000000000000000000000000000000000000000000000000000000000000000000000002261723a2f2f53594e54485f41544f4d49435f4c45475f434c41555345504152534552000000000000000000000000000000000000000000000000000000000000",
        "nonce": "0x3",
        "chainId": "0x14a34"
      },
      "additionalContracts": [],
      "isFixedGasLimit": false
    },
    {
      "hash": null,
      "transactionType": "CALL",
      "contractName": "SynthesisRegistry",
      "contractAddress": "0xb7b1fce90f7b56cc9a98f776ee8a20e8c82db73c",
      "function": "register(string,string,uint256,uint256,uint8)",
      "arguments": [
        "A-LEG-LiabilityScore",
        "ar://SYNTH_ATOMIC_LEG_LIABILITYSCORE",
        "9999",
        "1500",
        "0"
      ],
      "transaction": {
        "from": "0x72d31adec4a82bcf8bd20c685b8c350a0f5953bf",
        "to": "0xb7b1fce90f7b56cc9a98f776ee8a20e8c82db73c",
        "gas": "0x4453f",
        "value": "0x0",
        "input": "0x9501bdc200000000000000000000000000000000000000000000000000000000000000a000000000000000000000000000000000000000000000000000000000000000e0000000000000000000000000000000000000000000000000000000000000270f00000000000000000000000000000000000000000000000000000000000005dc00000000000000000000000000000000000000000000000000000000000000000000000000000000000000000000000000000000000000000000000000000014412d4c45472d4c696162696c69747953636f7265000000000000000000000000000000000000000000000000000000000000000000000000000000000000002461723a2f2f53594e54485f41544f4d49435f4c45475f4c494142494c49545953434f524500000000000000000000000000000000000000000000000000000000",
        "nonce": "0x4",
        "chainId": "0x14a34"
      },
      "additionalContracts": [],
      "isFixedGasLimit": false
    },
    {
      "hash": null,
      "transactionType": "CALL",
      "contractName": "SynthesisRegistry",
      "contractAddress": "0xb7b1fce90f7b56cc9a98f776ee8a20e8c82db73c",
      "function": "register(string,string,uint256,uint256,uint8)",
      "arguments": [
        "A-LEG-PrecedentCheck",
        "ar://SYNTH_ATOMIC_LEG_PRECEDENTCHECK",
        "9946",
        "1500",
        "0"
      ],
      "transaction": {
        "from": "0x72d31adec4a82bcf8bd20c685b8c350a0f5953bf",
        "to": "0xb7b1fce90f7b56cc9a98f776ee8a20e8c82db73c",
        "gas": "0x4453f",
        "value": "0x0",
        "input": "0x9501bdc200000000000000000000000000000000000000000000000000000000000000a000000000000000000000000000000000000000000000000000000000000000e000000000000000000000000000000000000000000000000000000000000026da00000000000000000000000000000000000000000000000000000000000005dc00000000000000000000000000000000000000000000000000000000000000000000000000000000000000000000000000000000000000000000000000000014412d4c45472d507265636564656e74436865636b000000000000000000000000000000000000000000000000000000000000000000000000000000000000002461723a2f2f53594e54485f41544f4d49435f4c45475f505245434544454e54434845434b00000000000000000000000000000000000000000000000000000000",
        "nonce": "0x5",
        "chainId": "0x14a34"
      },
      "additionalContracts": [],
      "isFixedGasLimit": false
    },
    {
      "hash": null,
      "transactionType": "CALL",
      "contractName": "SynthesisRegistry",
      "contractAddress": "0xb7b1fce90f7b56cc9a98f776ee8a20e8c82db73c",
      "function": "register(string,string,uint256,uint256,uint8)",
      "arguments": [
        "A-LEG-RedlineJSON",
        "ar://SYNTH_ATOMIC_LEG_REDLINEJSON",
        "9369",
        "1200",
        "0"
      ],
      "transaction": {
        "from": "0x72d31adec4a82bcf8bd20c685b8c350a0f5953bf",
        "to": "0xb7b1fce90f7b56cc9a98f776ee8a20e8c82db73c",
        "gas": "0x444dd",
        "value": "0x0",
        "input": "0x9501bdc200000000000000000000000000000000000000000000000000000000000000a000000000000000000000000000000000000000000000000000000000000000e0000000000000000000000000000000000000000000000000000000000000249900000000000000000000000000000000000000000000000000000000000004b000000000000000000000000000000000000000000000000000000000000000000000000000000000000000000000000000000000000000000000000000000011412d4c45472d5265646c696e654a534f4e000000000000000000000000000000000000000000000000000000000000000000000000000000000000000000002161723a2f2f53594e54485f41544f4d49435f4c45475f5245444c494e454a534f4e00000000000000000000000000000000000000000000000000000000000000",
        "nonce": "0x6",
        "chainId": "0x14a34"
      },
      "additionalContracts": [],
      "isFixedGasLimit": false
    },
    {
      "hash": null,
      "transactionType": "CALL",
      "contractName": "SynthesisRegistry",
      "contractAddress": "0xb7b1fce90f7b56cc9a98f776ee8a20e8c82db73c",
      "function": "register(string,string,uint256,uint256,uint8)",
      "arguments": [
        "C-LEG-Flow",
        "ar://SYNTH_CHAIN_LEG_V1",
        "9985",
        "7500",
        "0"
      ],
      "transaction": {
        "from": "0x72d31adec4a82bcf8bd20c685b8c350a0f5953bf",
        "to": "0xb7b1fce90f7b56cc9a98f776ee8a20e8c82db73c",
        "gas": "0x35394",
        "value": "0x0",
        "input": "0x9501bdc200000000000000000000000000000000000000000000000000000000000000a000000000000000000000000000000000000000000000000000000000000000e000000000000000000000000000000000000000000000000000000000000027010000000000000000000000000000000000000000000000000000000000001d4c0000000000000000000000000000000000000000000000000000000000000000000000000000000000000000000000000000000000000000000000000000000a432d4c45472d466c6f7700000000000000000000000000000000000000000000000000000000000000000000000000000000000000000000000000000000001761723a2f2f53594e54485f434841494e5f4c45475f5631000000000000000000",
        "nonce": "0x7",
        "chainId": "0x14a34"
      },
      "additionalContracts": [],
      "isFixedGasLimit": false
    },
    {
      "hash": null,
      "transactionType": "CALL",
      "contractName": "SynthesisRegistry",
      "contractAddress": "0xb7b1fce90f7b56cc9a98f776ee8a20e8c82db73c",
      "function": "register(string,string,uint256,uint256,uint8)",
      "arguments": [
        "A-HC-NoteStructure",
        "ar://SYNTH_ATOMIC_HC_NOTESTRUCTURE",
        "9874",
        "1500",
        "0"
      ],
      "transaction": {
        "from": "0x72d31adec4a82bcf8bd20c685b8c350a0f5953bf",
        "to": "0xb7b1fce90f7b56cc9a98f776ee8a20e8c82db73c",
        "gas": "0x444fd",
        "value": "0x0",
        "input": "0x9501bdc200000000000000000000000000000000000000000000000000000000000000a000000000000000000000000000000000000000000000000000000000000000e0000000000000000000000000000000000000000000000000000000000000269200000000000000000000000000000000000000000000000000000000000005dc00000000000000000000000000000000000000000000000000000000000000000000000000000000000000000000000000000000000000000000000000000012412d48432d4e6f74655374727563747572650000000000000000000000000000000000000000000000000000000000000000000000000000000000000000002261723a2f2f53594e54485f41544f4d49435f48435f4e4f5445535452554354555245000000000000000000000000000000000000000000000000000000000000",
        "nonce": "0x8",
        "chainId": "0x14a34"
      },
      "additionalContracts": [],
      "isFixedGasLimit": false
    },
    {
      "hash": null,
      "transactionType": "CALL",
      "contractName": "SynthesisRegistry",
      "contractAddress": "0xb7b1fce90f7b56cc9a98f776ee8a20e8c82db73c",
      "function": "register(string,string,uint256,uint256,uint8)",
      "arguments": [
        "A-HC-InterAudit",
        "ar://SYNTH_ATOMIC_HC_INTERAUDIT",
        "9932",
        "1500",
        "0"
      ],
      "transaction": {
        "from": "0x72d31adec4a82bcf8bd20c685b8c350a0f5953bf",
        "to": "0xb7b1fce90f7b56cc9a98f776ee8a20e8c82db73c",
        "gas": "0x3546c",
        "value": "0x0",
        "input": "0x9501bdc200000000000000000000000000000000000000000000000000000000000000a000000000000000000000000000000000000000000000000000000000000000e000000000000000000000000000000000000000000000000000000000000026cc00000000000000000000000000000000000000000000000000000000000005dc0000000000000000000000000000000000000000000000000000000000000000000000000000000000000000000000000000000000000000000000000000000f412d48432d496e74657241756469740000000000000000000000000000000000000000000000000000000000000000000000000000000000000000000000001f61723a2f2f53594e54485f41544f4d49435f48435f494e544552415544495400",
        "nonce": "0x9",
        "chainId": "0x14a34"
      },
      "additionalContracts": [],
      "isFixedGasLimit": false
    },
    {
      "hash": null,
      "transactionType": "CALL",
      "contractName": "SynthesisRegistry",
      "contractAddress": "0xb7b1fce90f7b56cc9a98f776ee8a20e8c82db73c",
      "function": "register(string,string,uint256,uint256,uint8)",
      "arguments": [
        "A-HC-TrialLinker",
        "ar://SYNTH_ATOMIC_HC_TRIALLINKER",
        "9879",
        "1500",
        "0"
      ],
      "transaction": {
        "from": "0x72d31adec4a82bcf8bd20c685b8c350a0f5953bf",
        "to": "0xb7b1fce90f7b56cc9a98f776ee8a20e8c82db73c",
        "gas": "0x3cc84",
        "value": "0x0",
        "input": "0x9501bdc200000000000000000000000000000000000000000000000000000000000000a000000000000000000000000000000000000000000000000000000000000000e0000000000000000000000000000000000000000000000000000000000000269700000000000000000000000000000000000000000000000000000000000005dc00000000000000000000000000000000000000000000000000000000000000000000000000000000000000000000000000000000000000000000000000000010412d48432d547269616c4c696e6b657200000000000000000000000000000000000000000000000000000000000000000000000000000000000000000000002061723a2f2f53594e54485f41544f4d49435f48435f545249414c4c494e4b4552",
        "nonce": "0xa",
        "chainId": "0x14a34"
      },
      "additionalContracts": [],
      "isFixedGasLimit": false
    },
    {
      "hash": null,
      "transactionType": "CALL",
      "contractName": "SynthesisRegistry",
      "contractAddress": "0xb7b1fce90f7b56cc9a98f776ee8a20e8c82db73c",
      "function": "register(string,string,uint256,uint256,uint8)",
      "arguments": [
        "A-HC-PathValidator",
        "ar://SYNTH_ATOMIC_HC_PATHVALIDATOR",
        "9698",
        "1500",
        "0"
      ],
      "transaction": {
        "from": "0x72d31adec4a82bcf8bd20c685b8c350a0f5953bf",
        "to": "0xb7b1fce90f7b56cc9a98f776ee8a20e8c82db73c",
        "gas": "0x444fd",
        "value": "0x0",
        "input": "0x9501bdc200000000000000000000000000000000000000000000000000000000000000a000000000000000000000000000000000000000000000000000000000000000e000000000000000000000000000000000000000000000000000000000000025e200000000000000000000000000000000000000000000000000000000000005dc00000000000000000000000000000000000000000000000000000000000000000000000000000000000000000000000000000000000000000000000000000012412d48432d5061746856616c696461746f720000000000000000000000000000000000000000000000000000000000000000000000000000000000000000002261723a2f2f53594e54485f41544f4d49435f48435f5041544856414c494441544f52000000000000000000000000000000000000000000000000000000000000",
        "nonce": "0xb",
        "chainId": "0x14a34"
      },
      "additionalContracts": [],
      "isFixedGasLimit": false
    },
    {
      "hash": null,
      "transactionType": "CALL",
      "contractName": "SynthesisRegistry",
      "contractAddress": "0xb7b1fce90f7b56cc9a98f776ee8a20e8c82db73c",
      "function": "register(string,string,uint256,uint256,uint8)",
      "arguments": [
        "C-HC-Flow",
        "ar://SYNTH_CHAIN_HC_V1",
        "9926",
        "7500",
        "0"
      ],
      "transaction": {
        "from": "0x72d31adec4a82bcf8bd20c685b8c350a0f5953bf",
        "to": "0xb7b1fce90f7b56cc9a98f776ee8a20e8c82db73c",
        "gas": "0x35374",
        "value": "0x0",
        "input": "0x9501bdc200000000000000000000000000000000000000000000000000000000000000a000000000000000000000000000000000000000000000000000000000000000e000000000000000000000000000000000000000000000000000000000000026c60000000000000000000000000000000000000000000000000000000000001d4c00000000000000000000000000000000000000000000000000000000000000000000000000000000000000000000000000000000000000000000000000000009432d48432d466c6f770000000000000000000000000000000000000000000000000000000000000000000000000000000000000000000000000000000000001661723a2f2f53594e54485f434841494e5f48435f563100000000000000000000",
        "nonce": "0xc",
        "chainId": "0x14a34"
      },
      "additionalContracts": [],
      "isFixedGasLimit": false
    }
  ],
  "receipts": [],
  "libraries": [],
  "pending": [],
  "returns": {},
  "timestamp": 1766445848778,
  "chain": 84532,
  "commit": "be2fe93"
}